:10000000401D0020690E0000194700003D0E000051
:100010003D0E00003D0E00003D0E000000000000FF
:10002000000000000000000000000000490A00007D
:100030003D0E000000000000E50900003D0E00003C
:10004000050B0000050B0000050B0000050B000070
:10005000050B0000050B0000050B0000050B000060
:10006000050B0000050B0000050B0000050B000050
:10007000050B0000050B0000050B0000050B000040
:10008000050B0000050B0000050B0000050B000030
:10009000050B0000050B0000050B0000050B000020
:1000A000050B0000050B0000050B0000050B000010
:1000B000050B0000050B0000050B0000050B000000
:1000C000050B0000050B0000050B0000050B0000F0
:1000D000050B0000050B0000050B0000050B0000E0
:1000E000050B0000050B0000050B0000050B0000D0
:1000F000050B0000050B0000050B0000050B0000C0
:1001000053B94AB9002908BF00281CBF4FF0FF317E
:100110004FF0FF3000F00CB8ADF1080C6DE904CEE3
:1001200000F008F8DDF804E0DDE9022304B07047D0
:10013000704700BF2DE9F04786468C460846089E6A
:10014000154674461946002B40F0C2808542B2FA2B
:1001500082F245D94AB1C2F1200300FA02FC2EFA1C
:1001600003F3954043EA0C0C94404FEA154EA8B2B5
:10017000BCFBFEF8230C0EFB18CC08FB00F943EA8D
:100180000C43994528D9EB1808F1FF3704D299455B
:1001900002D9A8F102072B44A3EB0903A4B2B3FBD5
:1001A000FEFC0EFB1C330CFB00F044EA0344A042AF
:1001B00014D92C190CF1FF3304D2A04202D9ACF1AE
:1001C00002032C44241A43EA07401EB1D440002302
:1001D00034607360BDE8F0874746DDE76346F1E7CA
:1001E00092BB431B01214FEA154EAFB2B3FBFEFC9D
:1001F000200C0EFB1C330CFB07F840EA0343984528
:1002000062D9EB180CF1FF3004D2984502D9ACF159
:1002100002002B44A3EB0803A4B2B3FBFEFC0EFBCD
:100220001C330CFB07F744EA0344A7424ED92C19B0
:100230000CF1FF3304D2A74202D9ACF102032C44E3
:10024000E41B43EA0040C0E7C2F1200320FA03F1B7
:10025000954090402EFA03F303434FEA154EAFB298
:10026000B1FBFEFC0EFB1C10190C0CFB07F841EA5D
:100270000041884504FA02F422D969180CF1FF30D4
:1002800004D2884502D9ACF102002944A1EB08014F
:100290009BB2B1FBFEFC0EFB1C110CFB07F743EA03
:1002A00001439F420ED9EB180CF1FF3104D29F425B
:1002B00002D9ACF102012B44DB1B41EA004192E779
:1002C0006046E3E76146F7E76046A3E76346B7E7C2
:1002D000834206D916B9002108467BE7C6E900E04B
:1002E000F9E7B3FA83F78FB9834201D3724508D88F
:1002F000BEEB020460EB030301209C461EB9002103
:1003000068E73846FAE7C6E9004CF8E7C7F1200C81
:10031000BB4022FA0CF41C432EFA0CF120FA0CF329
:10032000B84001434FEA14490EFA07F5B3FBF9F858
:100330001FFA84FE09FB18300B0C08FB0EFA43EA87
:1003400000439A4502FA07F240D9E31808F1FF305A
:1003500004D29A4502D9A8F102002344A3EB0A0370
:1003600089B2B3FBF9F809FB183308FB0EFE41EA2A
:1003700003418E452CD9611808F1FF3304D28E4514
:1003800002D9A8F10203214443EA0040A0FB0298ED
:10039000A1EB0E014145CE46434602D306D14D4561
:1003A00004D2B9EB020E68EB04030138002EA6D08C
:1003B000B5EB0E0261EB030101FA0CFC22FA07F324
:1003C0004CEA0303F940C6E9003198E74046C5E727
:1003D0004346D9E710B5084C0421032004F03AF84D
:1003E000042203460321204604F038F800214FF48C
:1003F000004003F017FAEFE7F8520000014B1B68CA
:10040000184700BF00000020014B1860704700BF74
:100410000000002030B585B004460D4610220021B2
:10042000684604F02EFD02238DF802302A46044B64
:1004300001932146684603F0C5FD05B030BD00BFFD
:10044000FD03000080B505460E461746984603F0AA
:1004500003FA034604F01EFDDFF81890044649F83D
:100460000030424630463946A84754F8090000F0AB
:100470007BFD00BF080000002DE9F047058B044616
:100480002807904611D4022905F0070540F0CD80D9
:10049000204604F059F878B10138218B042811D88E
:1004A000DFE800F0C3106D85950001290CBF45F011
:1004B000100545F02005258388F31188BFF36F8F61
:1004C000BDE8F08701F0070AAA4500F0A6800027E2
:1004D000B9463E46A368002B00F0BD8041F00801FC
:1004E000218388F31188BFF36F8FA168002900F082
:1004F000BB800D68002900F0B780D1F80480334636
:1005000052462046C047002D76D02B6829461D460E
:10051000F0E701F007035A1F012A1BD8002221F03F
:100520000701062B276889B2C4E9002209D13B469E
:1005300003E0628B013262831B68002BF9D141F02A
:1005400002012183204603F0FFFF00287BD041F009
:10055000200177E0042B0AD121F0070189B2218321
:10056000204603F0F1FF10B141F020012183218BDF
:1005700001F0070AAA4550D00027B946AAE7236927
:1005800021F0070141F00601062DD3F800902183E8
:100590002DD1B9F1000F40D041F00801218388F33B
:1005A0001188BFF36F8F3A492046C84729E021F0F0
:1005B0000701236941F0040189B2042DD3F80490A6
:1005C0002183E6D000273E464FF0040A82E721F05F
:1005D0000701236941F0050189B2052DD3F8089080
:1005E0002183D6D000273E464FF0050A72E7002748
:1005F0003E464FF0060A6DE72B4687E7B9F1000F3C
:10060000D1D14FF02003EFF3118883F31288BFF3A9
:100610006F8F238B23F008032383258BEA062ED5C7
:1006200025F01003238305F007056669218B002E52
:10063000BFF66FAF00232768C4E9003321F007013C
:1006400041F001012183218B01F0070AAA454FF0F7
:1006500000097FF43FAF002F9BD041F008012183B8
:1006600088F31188BFF36F8F002FC7D03D683946DC
:1006700033465246204603F093FF2F46F4E7AB067D
:100680007FF51AAF25F02003238305F00705FFE669
:10069000CD45000008B504464FF02002EFF311836A
:1006A00082F31288BFF36F8F01F0F6FC204600F052
:1006B00005FC034803F0D2FE00F0F8F8FCE700BFA9
:1006C0002653000001F01ABD014803F0D3BA00BF61
:1006D0003851000038B5044618B90F4B0F485B6815
:1006E00098476168B1F5683F10D0B1F5680F0DD03B
:1006F0000B4DA9420AD011F46861206807D0014669
:10070000084804F084FA00232360656038BD142291
:1007100004F0B7FBF9E700BFD80000204F530000FA
:100720002C5F5CA9D007002008B520B34368B3F55F
:10073000683F10D101220368BFF35B8F53E8001FAD
:10074000002903D143E800200028F7D1BFF35B8FD5
:100750000DD1002008BD094A93420AD000684FF02D
:10076000FF324FF0FF3302F099FC0028F1D004482B
:10077000F0E70448EEE76FF4E040EBE72C5F5CA99C
:10078000E98FFFFFEA8FFFFF08B5D8B14368B3F5E3
:10079000683F10D100220368BFF35B8F53E8001F4E
:1007A000012903D143E800200028F7D1BFF35B8F74
:1007B0000BD1002008BD074A934208D0006802F020
:1007C000E7FCF6E76FF4E040F4E70348F2E703489C
:1007D000F0E700BF2C5F5CA9E98FFFFFEA8FFFFF06
:1007E00010B5044618B91D4B1D485B6898476368EF
:1007F000B3F5683F2FD0B3F5680F2CD0194A934258
:1008000019D1236803BB18484FF0FF324FF0FF3374
:10081000214602F079FB08B923681BB90F4B134836
:100820005B68984720681422002104F02AFB4FF4EB
:100830006863636008E0B3F5683F0DD83A2B03D0D6
:1008400040F6BA629342DED1206804F020FA636871
:1008500043F03A03636010BD054AF3E7D800002077
:100860004F5300002C5F5CA9D00700207553000097
:100870003A00003A08B5064906484023142204F01D
:10088000B8F9BDE808400449044803F065BA00BF60
:10089000D0020020D0070020405100005451000039
:1008A000014910220A60704710ED00E072B6404026
:1008B00080F31188BFF36F8FBFF34F8F30BF62B6E5
:1008C000BFF36F8F704700BF72B6494081F3118844
:1008D000BFF34F8F20BF80F3118862B6704700BF0F
:1008E00040B2002807DB044A4109012300F01F0041
:1008F000834042F82130704700E100E040B2002818
:100900000CDB4309064900F01F002033012282401E
:1009100041F82320BFF34F8FBFF36F8F704700BFA5
:1009200000E100E0054B420900F01F0053F82220CF
:10093000012303FA00F01040704700BF00E100E01F
:1009400040B20028A8BF00F1604001F10101B8BF2A
:10095000064B4FEA4111ACBF00F5614000F00F00BB
:10096000C9B2B4BF195480F80013704714ED00E009
:1009700030BFFFF7FDBF00BF0B4A08B50B4B22F09D
:100980007F029A60BFF34F8FBFF36F8FD3F8882039
:1009900022F47002C3F8882002F0E4F902F0C2FFEA
:1009A00000F056FA02F030FA0000000000ED00E01E
:1009B000094A0A49936809689967094958674B6861
:1009C00043F080534B60002383F31188BFF36F8F94
:1009D0009368986F704700BF400900205452000090
:1009E00000ED00E015498A684FF030001044EFF345
:1009F000098C80E8F01F202080F31288BFF36F8FEE
:100A00000F4F4FF000664A698A603E604FF07004F5
:100A1000141920680B4C2060506F0023536780F33B
:100A2000118804B5104600F0C1FABDE8044002F197
:100A3000300090E8F01F8CF30988704740090020CF
:100A400004ED00E0EC0700201EF0040F0CBFEFF3F4
:100A50000880EFF30980816911F8021C0229FFD098
:100A600001B503F051FE01BD42F8203C009B42F865
:100A70001C3C0A49019B42F8183C029B42F8143C7A
:100A800021F001014FF0807342F8043C42F8081C49
:100A90000023203A02654367704700BF4504000009
:100AA000094A0346906870B113F1160F006E05D025
:100AB000A0F140029A4205D8834203D2814228BF66
:100AC00000207047002070474009002008B51446F8
:100AD0000A4A0B4B9060026F1A600D4600F066FAEE
:100AE000204685F30988002163B681F31188BFF39E
:100AF0006F8F00220023FFF7A5FC00BF40090020F4
:100B0000EC07002001B5EFF30580A0F110004FEADB
:100B1000C0000449014409C99847BDE801400249A1
:100B200008470000584F0000890B0000114B124A83
:100B30002DE9F041D518DFF84480013DB5FBF3F510
:100B40005D430F4B08EB0304013CB4FBF3F403FBE0
:100B500004540E1B07460B49304604F084F9701903
:100B600042460021083E04F08CF93E6704F108007B
:100B7000BDE8F0810100000000000000040000005A
:100B80000400000028510000044B9968586988420D
:100B900003D003494FF080520A607047400900209B
:100BA00004ED00E070B5264B15469A6A12F0100F5E
:100BB0009A6A14BF1124102412F0080F9A6A18BF01
:100BC0001224920706460AD5586B9A6A140634D541
:100BD00019B19A6A22F080029A62132401E06FF040
:100BE0001500174B9A6A12F0010F9A6A18BF142465
:100BF00012F0200F9A6A18BF1524D20602D49B6AFD
:100C00009B070AD50E4B5B68190506D53146FFF7E1
:100C100047FF10B180F309880224094B9A6A9206B3
:100C200042BF5A6A22F400525A629A6A42F0FF02A4
:100C30009A6200232B70204670BD6FF01500CCE740
:100C400000ED00E0134B9A6A12F0007F9A6A14BF1D
:100C50001E201D2012F0807F9A6A18BF1F2012F4F8
:100C6000002F9A6A18BF212012F4802F9A6A18BFA9
:100C7000222012F4003F9A6A18BF232012F4803F0A
:100C80009A6A6FEA02426FEA12429A6218BF2420FF
:100C9000704700BF00ED00E010B5194B0246986A9E
:100CA0009C6A10F4805F14BF1720162014F4006FA4
:100CB0009C6A18BF1820A40509D5986B986A00048F
:100CC00004D51AB19A6A22F400429A6219200C4B98
:100CD0009A6A12F4806F9A6A18BF1A20D2050CD44F
:100CE0009B6A13F4005F18BF1C20054A936A43F403
:100CF0007F43936200230B7010BD1B20F5E700BFFC
:100D000000ED00E0F0B5484B5B688BB00446C3F3E0
:100D10000803002585F31188BFF36F8F02F07F4031
:100D2000B0F17F4F11D102F00C0008280DD0100750
:100D30004CBF0C4601250022033B8DF80720032BF6
:100D400005D8DFE803F0246367602C46F3E700234F
:100D50009DF80720CAB902AE04F120072068616837
:100D6000324603C20834BC421646F7D1099A002D18
:100D700054D0C2F3080121B96FEA52226FEA42222D
:100D8000099202A9184603F0BDFC0BB0F0BD264B3A
:100D9000DA6A9107DBD4DA6A002AD8DBDA6A520011
:100DA000D5D55A69A16942F480725A61BFF34F8F59
:100DB000BFF36F8F5A6931F8021C22F480725A61B6
:100DC000BFF34F8FBFF36F8F4DF6027291420AD07F
:100DD0009A6AD2B24AB10DF1070201212046FFF70B
:100DE000E1FE0346B4E72368B2E79A6A12F47F4F44
:100DF00005D00DF107010120FFF74EFFF1E79B6AD7
:100E0000B3F5803FA3D3FFF71DFFEAE70DF107021B
:100E10000021E3E70DF107010020EDE722F4FF7266
:100E200022F00102ACE700BF00ED00E0024A536986
:100E300043F010035361704700ED00E0EFF30880CA
:100E4000EFF3098101B57246FFF75CFF01BD00BFFA
:100E5000044800232021C2180133302B82F80013EC
:100E6000F9D1704700E100E0002080F31488BFF35F
:100E70006F8FFFF727FC00200D490860BFF34F8FED
:100E80000C4880F3088800F03DF8202080F311889A
:100E900009484FF40461401880F30988EFF3148087
:100EA0000221084380F31488BFF36F8FFFF764FDBE
:100EB00094ED00E0401D0020800F0020BFF34F8F15
:100EC0000549064BCA6802F4E0621343CB60BFF3E6
:100ED0004F8F00BFFDE700BF00ED00E00400FA0502
:100EE0000749D1F890200023C2F307221846934205
:100EF00000DB7047C1F89830C1F8A0000133F6E775
:100F000000ED00E008B572B6002383F31388FFF705
:100F1000E7FF144B4FF0FF32C3F88020C3F8842062
:100F2000C3F88820C3F88C20C3F89020C3F894201D
:100F3000C3F89820C3F89C20C3F88021C3F884210B
:100F4000C3F88821C3F88C21C3F89021C3F89421F9
:100F5000C3F89821C3F89C2162B6BFF34F8FBFF34B
:100F60006F8F08BD00E100E0084B9B6883420BD106
:100F7000EFF3058343B1064B5A6842F080525A6042
:100F80005A6A22F400425A6202F06CBC4009002006
:100F900000ED00E0024B034A0348012100F070B865
:100FA000000004200000002064510000026E054B88
:100FB000403A1A60044A4021C3E90112184601214F
:100FC00000F068B8F007002000000B15F0B5204EC7
:100FD00000258D4239DA446874B353B104F1FF3C03
:100FE00014EA0C0F2FD11F2C2DD907681CEA070F0C
:100FF00029D1202C0768D0F808C05FFA82FE1ED9DC
:10100000B4F1004F1DD8013CB4FA84F4C4F11F04BC
:101010006400BEF1070F4CEA040C14D827F01F043B
:10102000144344F01004C6F89820C6F89C404CF0D5
:101030000104C6F8A040013201350C30C9E708248C
:10104000E7E73E24E5E76FF015021046F0BD00BF6C
:1010500000ED00E0044B0522C3F89420BFF34F8F4E
:10106000BFF36F8F704700BF00ED00E0BFF35F8FED
:10107000024B0022C3F89420704700BF00ED00E04F
:1010800010B5034C01232278FFF7A0FF207010BD9C
:10109000480B002008B5094A00231278FFF796FF95
:1010A00010F1160F02D0064A072800DD08BDC2F86D
:1010B0009800C2F8A0300130F6E700BF480B0020CE
:1010C00000ED00E014490868082810B521D8FFF7A2
:1010D000CDFF124C49680022904201F10C0105D16C
:1010E0000F4B1870FFF7B6FF002010BDC4F8982012
:1010F00051F80C3C23F01F03134343F01003C4F8D2
:101100009C3051F8043C43F00103C4F8A030013294
:10111000E2E74FF0FF30E8E77051000000ED00E03B
:10112000480B002008B5024B1B689847002008BDFB
:10113000FC070020034B044A1860937843F0020335
:1011400093707047FC0700202400002008B5064972
:10115000064821F00701C1F1005202F5802203F098
:10116000B6F9002008BD00BF931D0020801D00209F
:101170000E4A0123C2F840354FF080424FF08051B3
:10118000C2F87835D1F83001082808D1D1F83411E7
:10119000052904D80648415C09B1C2F838364FF039
:1011A00080430122C3F880250020704700E0014001
:1011B000B553000020B1034B800143F001031847F1
:1011C000704700BF30510000084B70B5C31A0D4680
:1011D00007499B10044659430648402203F0C4FACD
:1011E0002B4601462046BDE87040184714080020F1
:1011F000B76DDBB6084F000073B50C4C0C4A4023AA
:10120000041B00930D460B460A49A4106143064691
:10121000094803F0D6FA011E05DA30462B4602B023
:10122000BDE87040184702B070BD00BF1408002030
:101230002F480000B76DDBB6084F0000002270B5E4
:10124000012104461046FFF77BFB0F4801F0E0F850
:101250000E4B984215D103F0F8FB26690C49304635
:1012600003F0C2F900280BDB012535642469084925
:1012700004F11C0003F0B8F9002801DBE56400204C
:1012800070BD6FF00400FBE7C91200000000AD0B59
:101290009051000070B501460C2309484B43C41817
:1012A000D4E90E56403300221844A26303F049FAF1
:1012B0002DB132462B460348BDE87040184770BD3B
:1012C00014080020084F000010B1012804D0704716
:1012D000034B1B6C5B0701D1FFF7DCBF704700BFFE
:1012E0001408002008B54FF02003EFF3118183F3B9
:1012F0001288BFF36F8F124A136843F00200106028
:10130000DA0708D481F31188BFF36F8F0120BDE89D
:10131000084003F0A7BB4FF08043D3F80C24D3F868
:101320000C34DB07EED5074803F00BFA81F3118884
:10133000BFF36F8F0020BDE80840FFF7ABBF00BFD1
:1013400064080020540800201FB500220123CDE9C5
:101350000223094ACDF800D06B46CDF804D003F043
:101360005FFA002805DB4FF480420023684601F055
:101370006FFF05B05DF804FB4D48000010B54FF05D
:101380002003EFF3118483F31288BFF36F8F074AB2
:10139000136823F00201DB07116002D4012003F07F
:1013A0009DFB84F31188BFF36F8F10BD640800208C
:1013B0002DE9F0413849BFF35B8F0746012251E820
:1013C000003F41E800200028F9D1BFF35B8F33B91B
:1013D000324933484B60CB608A6003F018F97B1EBA
:1013E000012B2BD8012F07D14FF08043D3F81C34A9
:1013F00003F00303012B21D003F02FFC0546F8B9BD
:10140000284B1B78E3B14FF080430222C3F8082336
:101410000646DFF894804FF08044D4F81824D4F8BE
:101420001834D20316D503F00303012B01D0012F8A
:1014300010D15DB386F31188BFF36F8FBDE8F081E3
:101440004FF02003EFF3118683F31288BFF36F8F01
:101450000125DEE7ADB13046FFF736FAD4F818358E
:10146000002BDAD1D4F80421002AD6D0C4F80431F4
:10147000D4F804310123C4F81835C8F88031A360CA
:10148000CBE70021212002F0CDF9E7E74FF08043C0
:101490000222C3F80423D1E710080020000800202E
:1014A000300800205B0F002000E100E008B507488D
:1014B00003F07AFB38B10648FFF73CFE0448FEF71C
:1014C000A3FF002008BD6FF01200FBE7444F0000AF
:1014D000D51400000A2838B5074D044604D1AB687E
:1014E0000D215B6828469847AB6803485B68E1B20A
:1014F0009847204638BD00BF444F000030B54068D3
:10150000057B01F01F04B2F5001F85B044EA4514C5
:1015100005D1204601F058FA002005B030BD002565
:10152000B2F5800FCDE9025514D1B3F1007F0CBFA5
:10153000042305238DF808300023194602AA20460B
:1015400001F05EF8234B98423DD10121204601F085
:10155000EDF9E1E7B3F1C06F27D0B3F1007F14BF1D
:10156000012302238DF80830836823FA01F111F07A
:101570000101E1D1B2F1A07FDED104F01F036209C5
:1015800003F5E07313D0012A20D1134A52F8233017
:10159000DB07D1D40DF107052946204601F070F98B
:1015A0000E4B984206D00395C6E70323DAE74FF0C7
:1015B000A042EBE7284601F0B3F9064B9842F2D07F
:1015C0006FF00B00A9E76FF01500A6E751F8233084
:1015D000FFDE00BF0000AD0B000300500400AD0BA8
:1015E00010B501F08DF9044668B901F061F9084BB6
:1015F00098420AD10748214601F03CF922460521CC
:101600000620FFF79DF9002010BD6FF00400FBE7F6
:101610000000AD0B19160000420970B5034602D058
:10162000012A17D070BD0D4E326951680029F9D0DA
:1016300003F01F0301250C689D400029F2D08A6841
:101640002A4002D04B68304698472CB12368214687
:101650001C46F2E7024EE7E72346F8E7304F00006A
:101660001C4F00002DE9FF4147683B7B01F01F053F
:1016700045EA43150E4628460DF10701144601F0D0
:10168000FFF814F4403F80460DD1284601F0C2F91E
:101690003D4B984503D19DF8070001F03BF9002030
:1016A00004B0BDE8F0810023194602AA2846CDE91E
:1016B000023300F0A5FF344B984214D1804503D18A
:1016C0009DF8070001F026F9A3034ED540F206333A
:1016D0002340B3F5837F1AD00DD8062B18D005D838
:1016E000B3B1022B33D06FF01500D9E7B3F5807F8B
:1016F000F9D101230CE040F20222934229D0B3F544
:10170000407F28D0B3F5007FEDD1022300E007230E
:101710008DF8083084F48033C3F30043E0068DF87D
:10172000093054BFC4F34013032321038DF80A305A
:1017300013D57A680123B340C2F80835002202A904
:10174000284601F01DF8104B9842A8D0CBE704239F
:10175000DEE70523DCE70323DAE7620341BF012369
:101760007A68B340C2F80C35E8E7E3064FF00003AF
:1017700054BFC4F3401403241A4602A928468DF826
:10178000084000F03DFFDEE70000AD0B036803F00A
:101790001F025B09026004D0012B034818BF002020
:1017A00070474FF0A0407047000300502DE9F04F04
:1017B000DFF8849185B01546824600EB81014FF039
:1017C0000108514503D1002005B0BDE8F08FDAF8DB
:1017D000003003F07F04C3F343277F2C4FEA134309
:1017E00008BF4FF0FF34222B00F2A380DFE803F0A4
:1017F00012232B442E3544A1A1A1A14773A1A1A17D
:10180000A1A1A1A1A1A176818487A1A1A18A909380
:1018100096999C00C5F80C45601C1BD003A8039446
:10182000FFF7B4FF039B08FA03F3C0F8083501265D
:101830004FF0010B2CE0C5F81445631C0AD00026BC
:101840004FF0000B24E0C5F80845E5E7621CC5F839
:1018500008456CD10AF1040AB3E7631CC5F80C45CE
:10186000F8D0012603A80394FFF790FF039B08FA22
:1018700003F3C0F80C35DBE7C5F81045DDE7C5F824
:101880000845002FD9D1671CE4D00026B3460627AF
:10189000DAF80030019303F40052002A03A81CBFB9
:1018A00001264FF0000B0394FFF770FF039A019B92
:1018B00000EB8200C3F3C114D0F800273B0243EAD7
:1018C000840343EA0B0302EA0902134343EA460393
:1018D000C0F80037BEE7C5F80C45D2E7C5F860454B
:1018E000661CDAF80030B5D0C3F38033002BB8D0D3
:1018F00094E7C5F86445F3E7C5F86845F0E7C5F82F
:101900006C45EDE7C5F82445621CA3D0012697E796
:10191000C5F8284580E7C5F83045F5E7C5F83445F2
:10192000F2E7C5F83845EFE7C5F83C45ECE7002697
:1019300098E76FF0850047E7F0F8FCFFF0B54B79CA
:10194000012B26D0032B21D110258B79032B1DD100
:10195000CE790EB1012E19D10A7912B1022A15D110
:101960000E220B684468B3F5164F276867D02DD850
:10197000B3F5165F66D016D8B3F5966F64D00AD863
:10198000B3F5967F63D0B3F5167F63D06FF0850013
:1019900054E00025D9E7B3F5166F5ED0B3F5965F36
:1019A000F4D1384B3CE0B3F5E14F59D007D8B3F54B
:1019B000615F57D0B3F5964FE8D1334B30E047F62F
:1019C0001224A342E2D14FF4000329E0B3F5613FB2
:1019D0004AD013D8B3F5963F49D009D84DF6C02464
:1019E000A34246D0B3F5614FD0D14FF46B0317E05B
:1019F000B3F5E13FCAD14FF0EB7311E0B3F5612FBE
:101A00003AD008D8214CA34239D0B3F5E12FBDD14B
:101A10004FF0E86304E01E4CA342B7D14FF080536F
:101A20000469C7F82435436835431B682A43C3F863
:101A30006C2503C9231D83E803000020F0BD4FF48B
:101A40001D03EDE7134BEBE74FF49E23E8E74FF45C
:101A5000A033E5E74FF41C33E2E74FF41D23DFE743
:101A60000D4BDDE70D4BDBE74FF06C73D8E70C4B0C
:101A7000D6E74FF46503D3E74FF07063D0E74FF03C
:101A80008063CDE700B0130000A04E0090D00300AB
:101A900040420F000050270000C0750000F03A00DF
:101AA00000903A012DE9F7438046002201210220EF
:101AB000FEF746FF0220FEF713FFD8F80470D8F8AF
:101AC00010603C680021C4F80015C6F80080D7F803
:101AD0000C9001AA484602F011FF051E4CDB019B49
:101AE000D9F8002019791868FFF760FE051E43DB5E
:101AF000311D4046FFF722FF054600283CD17B6898
:101B0000990712D506F1180001F098F81E4B98427B
:101B100036D1307E04F10C0204F5907102F08BFF97
:101B2000337E0120984000F00BFC0823C4F80035F8
:101B30003B7A53B9C4F81031D4F810317369C4F842
:101B400034350123C4F8383523607B689A075CBFBD
:101B50004FF48073C4F804337B68DB0644BF4FF452
:101B60008003C4F804333369C4F844350023C4F84F
:101B700048350123A360E360284603B0BDE8F08345
:101B80006FF00405F8E700BF0000AD0BF8B50446A0
:101B900007690D4603F061F8B0B92E4B1B789BB175
:101BA0006426606802F0E0FE00BB012002F041FF05
:101BB000013EF6D10021212001F034FEF0E786F34A
:101BC0001188BFF36F8FF5E74FF02003EFF3118615
:101BD00083F31288BFF36F8F6068314602F0C4FE52
:101BE00090B986F31188BFF36F8FEDE74FF02003B4
:101BF000EFF3118683F31288BFF36F8F606831466D
:101C000002F0B2FE0028DAD03B691D7062683869C4
:101C10001368C3F844050120C3F848050020C3F841
:101C20002001D3F82051C3F858015268D3F8580165
:101C3000D20608D5626812680820C2F800054FF481
:101C40008002C3F8042301229A6081F31188BFF354
:101C50006F8FF8BD5B0F002070B5012383400E4AE3
:101C6000BFF35B8FDC4352E8001F01EA040542E842
:101C70000056002EF7D1BFF35B8F4FF480328240C5
:101C80000648C0F80823BFF35F8FBFF36F8F0B4286
:101C900014BF0120002070BD840800200010014006
:101CA00070B40E49D1E90034D01AC31844F10004CD
:101CB00022F07F46C1E90034A6F50013B3F5400FCA
:101CC00009D2074B1B681A0A1B069C19054B42F1E7
:101CD0000005C3E9004570BC01F0FABEA001002078
:101CE00088080020A801002011B3BFF35B8F0123F7
:101CF000104A834052E800CF4CEA030C42E800C18E
:101D00000029F7D1BFF35B8F0B4A4FF48033834038
:101D1000C2F80433094BBFF35B8F1B68BFF35B8FC3
:101D2000C340DB0742BF064B4FF40032C3F800212B
:101D3000704700BF84080020001001408008002088
:101D400000E100E00D4B1868010A0006BFF35F8F49
:101D50000B4BD3F80435181841F10001B3F5801F7F
:101D60000AD2084BD3E90023904271EB030303D25C
:101D700010F1807041F10001704700BF8808002019
:101D800000100140A80100202DE9F04F85B0164653
:101D90001F469DF840A00446FFF75EFF0190FFF745
:101DA000D1FFB04271EB070354D23E4B301A67EBC0
:101DB0000101984271F100014FD23B4B03EB041338
:101DC000D3E902239F4208BF96425ED037494FF4C1
:101DD000803804F1500508FA04F8AD00C1F84883D2
:101DE0002046ADB202F009FE26F07F4B05F180459A
:101DF00004F5A87305F58835DC464FF00309029316
:101E0000029A2CF07F4341F82230C1F84483D1F884
:101E10000435274A6FF00200C01A604420F07F406A
:101E2000904232D9286868B1D1F804350393A3EB06
:101E30000B0020F07F40B0F5000F26D9204602F0BD
:101E4000DCFD039BBAF1000F07D109EB030C09F18C
:101E50000109D5E7BAF1000F09D06FF0150520464A
:101E60000199FFF741FF284605B0BDE8F08F012337
:101E7000104ABFF35B8FA34052E8000F184342E8BB
:101E800000010029F8D1BFF35B8F07490E982301A9
:101E900001EB0412C8500F9B5360C2E90267002592
:101EA000DDE700BF0100800090010020001001402C
:101EB000FDFF7F00800800207FB51C4C1C4BC4F840
:101EC0000833C4F848331B4B00254FF0FF304FF068
:101ED000FF31C4F80855C3E902014FF48033C4F858
:101EE0000433154B02264FF400320121C4F8046379
:101EF0001120C3F880212A46FEF722FD1120FEF7AB
:101F0000EFFC0E4A0123A360236013600C4B0D4AC3
:101F10000093CDE9015500232846FFF735FF3046F1
:101F2000FFF746FA284604B070BD00BF001001401C
:101F300003000F009001002000E100E08408002071
:101F4000A11C0000FFFF7F002DE9F7432F4CD4F8C0
:101F5000043399070BD5D4F8043143B12C4A00233C
:101F6000C4F80431D4F80431136801331360D4F891
:101F70000433DA032AD5BFF35B8F264B53E8002FD7
:101F800022F0010143E800100028F7D1BFF35B8F76
:101F9000D30702D4D4F84031C3B10025C4F840516E
:101FA000D4F84031FFF7CEFE4FF02003EFF311825B
:101FB00083F31288BFF36F8F174BD3E90267B042E8
:101FC000B94106D282F31188BFF36F8F03B0BDE829
:101FD000F0834FF0FF384FF0FF39C3E90289D3E9AE
:101FE00000101D604FF48033C4F84833C4F84051EA
:101FF000D4F8403182F31188BFF36F8F0029E5D008
:10200000009032463B4628468847DFE700100140F3
:102010008808002080080020900100201FB5431C84
:1020200023D0012823DD134A134B9042D4BF04462A
:102030001C46FFF787FE114B0F49D3E90023801A96
:10204000B0F5000F28BF002404448C4228BF0C4682
:10205000A2180B4900914FF00000CDE9010043F1B7
:102060000003FFF791FE04B010BD034CE1E701242B
:10207000DFE700BFFEFF7F00FFFF7F00A001002021
:10208000A11C000008B5FFF75DFE024B1B68C01ADB
:1020900008BD00BFA001002010B5084C01236360FB
:1020A0001120FEF72BFC064BC4F80833C4F8483364
:1020B000044B4FF40032C3F8802110BD00100140E2
:1020C00003000F0000E100E04FF08053D3F830210F
:1020D000082A06D1D3F83431052B02D8024AD05C45
:1020E00070470020704700BF28540000024AD2F811
:1020F0000034002BFBD0704700E0014010B54FF0DA
:102100008053D3F83021082A4ED14FF0804200216D
:10211000C2F80C11C2F81011C2F8381502F540428D
:10212000D3F80414C2F82015D3F80814C2F8241503
:10213000D3F80C14C2F82815D3F81014C2F82C15D3
:10214000D3F81414C2F83015D3F81814C2F83415A3
:10215000D3F81C14C2F84015D3F82014C2F8441563
:10216000D3F82414C2F84815D3F82814C2F84C1533
:10217000D3F82C14C2F85015D3F83014C2F8541503
:10218000D3F83414C2F86015D3F83814C2F86415C3
:10219000D3F83C14C2F86815D3F84014C2F86C1593
:1021A000D3F84434C2F87035FFF78EFF18B13A4BBC
:1021B0003A4AC3F88C26FFF787FF18B1384BFB2249
:1021C000C3F81825FFF780FF70B14FF080414FF042
:1021D0008053D1F8E42ED3F8583222F00F0203F0E6
:1021E0000F031343C1F8E43EFFF76EFF20B12D4B00
:1021F0004FF40072C3F840264FF08053D3F83031CB
:10220000082B1AD14FF08043D3F80024D20744BFE3
:102210006FF00102C3F800244FF08053D3F834313B
:10222000052B02D8204AD35C3BB14FF01023D3F8E2
:1022300008224FF08043C3F858254FF01023D3F8FD
:102240000022002A03DBD3F80432002B22DA1749DC
:1022500001234FF01020C1F804351224FFF746FF88
:10226000C0F80042FFF742FFC0F80442FFF73EFF0C
:102270000023C1F80435FFF739FFBFF34F8F0C4936
:102280000C4BCA6802F4E0621343CB60BFF34F8F7C
:1022900000BFFDE710BD00BF0050004048810300B3
:1022A00000F00040009002402254000000E0014095
:1022B00000ED00E00400FA0530B50468CCB1BFF3CE
:1022C0005B8FB4FA84F3C3F11F03DBB201229A409F
:1022D00024EA020250E8005FA54204D140E8002C45
:1022E000BCF1000FF6D1BFF35B8FE6D102480B7053
:1022F00030BD0248FCE700BF0000AD0B0200AD0B93
:1023000010B50368CB40DB0714D401238B4002686F
:10231000BFF35B8F43EA020150E8004F944204D1BF
:1023200040E8001CBCF1000FF6D1BFF35B8FEED18B
:10233000014810BD0148FCE70000AD0B0400AD0BE7
:10234000014BC3F80405704700F00140F7B504469F
:1023500018B1012823D003B0F0BD4FF08043022212
:10236000C3F80823C3F80401D3F804210122DA607A
:10237000064601238DF8073042F210754FF0804772
:10238000D4B1012CE7D1D7F80C3403F48033AEBBC1
:1023900083B3012002F04DFB013DF4D12AE04FF060
:1023A00080430022C3F80803C3F80021D3F80021BA
:1023B00058600DF10706DCE7D7F8183403F48033D2
:1023C0003EB9002BC7D0012002F033FB013DF3D111
:1023D000C1E7D7F8182402F003023260002BBAD00C
:1023E0009DF80700012803D102F023FB013DC7D16E
:1023F000012CB0D1054B00225A71ACE7D7F80C2460
:1024000002F001023270002BEAD1F3E78C080020C1
:10241000044B1A7922B9012218609A800248704749
:10242000024870478C0800200000AD0B0C00AD0B7B
:1024300010B54FF08043D3F800216AB10022C3F8F1
:102440000021D3F800210122C3F80823114B587949
:1024500010B95A711B6898474FF08043D3F8042194
:1024600072B10022C3F80421D3F80421D3F8182450
:10247000D3F81824920704D10122C3F818259A60D2
:1024800010BD0222C3F80823024BBDE810401B68B0
:10249000012018478C080020036803F01F025B0925
:1024A000026004D0012B034818BF002070474FF092
:1024B000A040704700030050034A430900F01F008A
:1024C000D35C1844C0B270473954000008B5FFF718
:1024D000F3FF034B083033F81000C0F3401008BD81
:1024E0005000002008B5FFF7E7FF034B083033F832
:1024F0001000C0F3400008BD5000002008B5FFF7F1
:10250000DBFF034B083033F81000400B08BD00BF61
:102510005000002070B50546FFF7CEFF0C4C083088
:102520000E4634F81030DA0508D5C3F3432304EB24
:10253000C302284654F8333052689847A3682BB139
:10254000E26831462846BDE87040184770BD00BFBC
:102550005000002010B5FFF7AFFF124A083032F8E4
:102560001030D9051CD5C3F3432123F4F85322F8C6
:10257000103002F10E04002034F8023F13F4807F83
:1025800003D0C3F3432399420AD001303028F3D15A
:10259000002342F831300448BDE81040FFF7B0BED8
:1025A00010BD00BF50000020C4000020F0B501465F
:1025B000104A114C00200125064602F14043A3F5C4
:1025C000C2439B0805FA03F3194204D0176817B1F8
:1025D0001660176818430432A242EED1074BD3F8B5
:1025E0007C2132B10022C3F87C21D3F87C3140F049
:1025F0000040F0BD006100402061004000600040EC
:102600002DE9F04385B0054690461E46FFF754FF7E
:10261000044609B32846FFF765FF18B12846FFF7BF
:1026200055FF38BB0023CDE900338DF80E308DF80F
:102630000F300DF10F020B4628460DF10E0102F08E
:102640004FFA4A4A04F1080132F8113023F002032C
:1026500043F0010322F81130B8F1000F31D02846C1
:1026600098F80070D8F80490FFF73CFF20B1B9F15A
:10267000000F1BD03E4826E03C4B04F1080C33F819
:102680001C1021F02001C904C90C23F81C10B9F159
:10269000000F0BD0032FEDD8D8F8042092F800E0FB
:1026A000A7B9344B0EF5A27E43F82E702F4A04F1E1
:1026B000080132F8113023F01C0343EA870322F8A3
:1026C00011304EBB2C4805B0BDE8F0834FEA8E02B6
:1026D00002F1804202F5C04241EA4E31D2F81005C3
:1026E00020F00300C2F81005D2F8100520F44F3096
:1026F00020F44070C2F81005D2F81085280200F4CA
:102700007C5040EA080040EA074041F0200123F8ED
:102710001C10C2F81005C9E7D6E900762846FFF775
:1027200019FF002FCED0114DD5E90023974201D1DA
:102730009E4218D011480DF10F01FFF7BDFD0E4B61
:102740009842C0D19DF80F2045F8327005EBC203C6
:1027500008345E6035F8143043EA422343F4807352
:1027600025F81430AEE70022EEE700BF500000204D
:102770000400AD0B006000400000AD0BC400002061
:102780002DE9FF4104461646FFF796FE054631B394
:102790002046FFF7A7FE20B92046FFF797FE002846
:1027A00060D1314F05F1080837F8183013F01C0FCD
:1027B00002D04B78012B55D001238DF80F30002328
:1027C000CDE900134A1C8B1C20460DF10F0102F0CD
:1027D00087F937F8183043F0030327F818301EB98B
:1027E000224804B0BDE8F0812046FFF77BFEC8B365
:1027F0001D4F96F800C005F10800614637F81050EB
:10280000890025F0200501F18041ED0401F5C0416A
:10281000ED0C27F810500023C1F810357278002A0B
:10282000DED0D1F81035B67823F4991323F4F85399
:10283000C1F8103512042302D1F810E502F4403239
:1028400003F47C531343320543EA0E0302F480126F
:1028500045EA4C35134345F0200527F81050C1F8E0
:102860001035BDE70248BCE7500000200000AD0B6A
:102870000400AD0B014BC3E902017047500000207A
:1028800010B50446FFF722FE50B12046FFF714FEB4
:10289000044B083033F8103003485B0B0B7010BD4D
:1028A0000248FCE7500000200000AD0B0400AD0B17
:1028B00070B50F4C94F87860BEB90E4D6022314669
:1028C00004F1100002F0DDFAC5F87C610620D5F8AD
:1028D0007C31FEF705F84FF00043C5F80433064895
:1028E000012384F87830636770BD0448FCE700BFBB
:1028F00050000020006000400000AD0B0500AD0B53
:10290000034B93F87800003818BF0120704700BFD0
:102910005000002001460148FFF7F2BCC000002033
:1029200001460148FFF7C8BCC000002037B5044687
:10293000FFF7CCFD08B32046FFF7D4FD0546E0B90C
:102940002046FFF7DBFD03B29B0003F1804202F556
:10295000C24203F1804303F5C04315601268D3F807
:10296000102542F00102C3F8102521B1144A0123B9
:102970008340C2F8043303B030BD2046FFF79CFD0E
:10298000104B083033F81030C3F38203042B12D0FD
:10299000052B12D001A80194FFF77EFD019BD0F812
:1029A0001015D94001F001010231204603B0BDE805
:1029B000304002F0DEB80321F7E70221F5E700BF5F
:1029C000006000405000002010B50446FFF77EFD77
:1029D000C0B12046FFF786FDA0B92046FFF78EFD67
:1029E0000B4A01238340C2F8083303B29B0003F172
:1029F000804303F5C043D3F8102522F00302C3F847
:102A0000102510BD20460021BDE8104002F0B1B8ED
:102A10000060004073B50446FFF74EFD184E00F10C
:102A2000080536F81530DB0727D52046FFF7CCFF21
:102A30002046FFF74BFD40B12046FFF75FFD114BED
:102A400000F5A270002243F820202046FFF782FD07
:102A5000002301A826F815300194FFF71DFD019B06
:102A600000EB8300084BD0F80027134043F002032B
:102A7000C0F80037054802B070BD0548FBE700BF4D
:102A80005000002000600040F0F8FCFF0000AD0B9B
:102A90000400AD0B2DE9F04F644BD3F80403C0B232
:102AA00085B040F00040FFF781FD051E80F2A18057
:102AB0004FF0A043D3F820250292C3F82025D3F885
:102AC00020280392C3F820280DF108084FF00009D0
:102AD000574B09EB030B4FE093FAA3FA9BF8004026
:102AE000BAFA8AFA4AEA44142046FFF7E5FC514B49
:102AF000019408304FEADA0233F810700AF0070345
:102B00000120984018F8023023EA000308F8023048
:102B100001A8FFF7C1FC019B03F5E073B90850F869
:102B20002330C7F38206C3F3014A4B0737462FD53C
:102B300020463146FFF7EEFC01A80194FFF7ACFCFC
:102B4000019B03F5E0735FFA8AFA50F82330C3F370
:102B500001439A4507D10021204602F00AF8514668
:102B6000204602F006F801A80194FFF795FC019AAF
:102B700001239340C0F82035D8F80030002BABD1AA
:102B800008F10408B9F1000F1DD14FF001099FE7CA
:102B9000BAF1020F0CD10321204601F0EAFF06F042
:102BA0000503012BDFD139462046FFF7B3FCDAE7F6
:102BB0000221204601F0DDFF032EF4D0BAF1030F0D
:102BC000D1D1022EEEE74FF00040FFF7EFFC4FF0BF
:102BD000A0421949D2F820350293C2F82035D1F825
:102BE000202503921343C1F820257FF46DAF25F013
:102BF0000045012415B905B0BDE8F08F95FAA5F39D
:102C0000B3FA83F304FA03F29B0003F1804303F564
:102C1000C04325EA0205D3F81005D3F81015C0F318
:102C20000520C1F30141FFF775FCE3E700600040B8
:102C300049540000500000200003005001460148A4
:102C4000FFF73ABBCC00002008B5144BA8220021A6
:102C5000184602F016F90322026111494261114A35
:102C60008161C2614FF4806202620022826242622C
:102C7000C26201660C494166102181660346026703
:102C8000C2664267BFF35F8F084911F8010D98547F
:102C90000132102AF9D1BFF35F8F08BD94080020DC
:102CA000605400005B0B00204B0B002079540000A7
:102CB00038B503464FF02002EFF3118582F31288F6
:102CC000BFF36F8F02F0E6F8064A1458184601F079
:102CD000A0FE85F31188BFF36F8F2046BDE8384012
:102CE000FEF742B908000000104B70B553F82040C1
:102CF000013053F82060A64200D870BDD4E90035F9
:102D000095B153B12846984738B10028B8BF404222
:102D1000EB68FF28A8BFFF201870EA68537843F0DB
:102D2000010353700834E6E79847FBE75852000068
:102D300008B50A4B012203201A70FFF7D5FF00F0F7
:102D40004BFF0420FFF7D0FF00F04CF9FDF742FBEA
:102D5000034A137B23F00103137308BD5B0F0020AC
:102D60003002002008B50348034A0021121A01F07E
:102D700026FF08BD90010020600F002070B50023E1
:102D800086B00122CDE90423194E1A4D01930F227A
:102D9000CDE902321849142303FB005506EBC01697
:102DA00004464FF4C070154B00954FF4A07200FB21
:102DB0000411304600F0D6F8737B114AEE6023F020
:102DC000040373734FF4046304FB033313446B6015
:102DD0000C4B2C74BFF35B8F53E8001F013143E8A9
:102DE0000012002AF8D1BFF35B8F06B070BD00BFA0
:102DF000B001002040090020C0170020674C0000EF
:102E0000800F00203C09002080B50020A6B0FFF70D
:102E10006BFF2D4B83F308882C4D2D4E6B692D4F86
:102E200043F400736B610024E02385F82230EC77D3
:102E30002C766C76AC7685F820406B6A43F4E02300
:102E40006B6285F82340FDF7F1FFFDF729FD4FF098
:102E5000FF33AB62EB62FEF735F9FEF79BF840F209
:102E60000113ADF8243006ABB360CDE91E442194C4
:102E700001F099FE0120FFF737FF0220164DFFF702
:102E800033FF00F045FC154B756105930123144990
:102E90000094CDE903434FF480623B46CDE9014401
:102EA000284600F05FF86A7B064622F004022846B6
:102EB0006A7301F02DFF2046FFF760FF3A46314666
:102EC0002846FDF703FE00BFC017002000ED00E01C
:102ED00040090020312D0000300200207A5400000B
:102EE0004019002038B5064C064D0020AC4200D3F6
:102EF00038BD204601F067FE0028F9DB1C34F5E7F9
:102F0000400100204001002073B50C464FF0200521
:102F1000EFF3118185F31288BFF36F8F45695DB1BF
:102F200025602B684361836901338361002081F34D
:102F30001188BFF36F8F11E052EA030603D12560B9
:102F40006FF00B00F3E7CDE900230246083000F0F4
:102F5000E9FA18B9024B9B685B69236002B070BD47
:102F6000400900202DE9F04385B00732994600F171
:102F7000580322F00706C0E91633109B037306F1CD
:102F800040050423002743730D440F9B8373884639
:102F9000C0E9067729468760C7730446FDF7C6FD7A
:102FA00008F140030730C4E9183620F007000E9BF3
:102FB000A06602930D9B01932D1A0C9B00932A4649
:102FC0004B4641462046FDF74FFD054B67659B6824
:102FD00003B1DB6EE366284605B0BDE8F08300BFB1
:102FE000400900202DE9F043294C2A4D87B02646A0
:102FF000AE4204F12C040FD300F05AFB244CDFF84E
:1030000098904FF4004640F2E737AC4220D307B027
:10301000BDE8F04300F060BB54F8043C059354F85D
:103020000C3C049354F8103C039354F8143C029362
:1030300054F8183C019354F81C3C009354E90923BC
:1030400054E90B01FFF78EFF54F82C3C5E65CEE788
:10305000636A5A1C0DD023EAE37300213846C3FB90
:10306000060151EAC333D4F8008004D1404600F091
:10307000CFFA2C34C9E74FF47A720023FDF740F8F9
:1030800002460B4608F11800494600F0ABFCF0E799
:10309000D8500000D8500000754D00002DE9F341D4
:1030A000044617461E464FF02003EFF3118883F3C2
:1030B0001288BFF36F8FC368334A7BB18068916811
:1030C000884219D057EA060318D188F31188BFF354
:1030D0006F8F6FF00F0002B0BDE8F081916891F939
:1030E0000E1021610133E3609368A36088F31188B7
:1030F000BFF36F8F0020EEE72169F2E791F90E1020
:1031000090F90E309942A8BF19466FF07E029142A5
:10311000B8BF11468B422EDD01F0B1FD0546CDE969
:1031200000761A482246414600F0FCF90028E1D01A
:103130004FF02003EFF3118683F31288BFF36F8FF4
:10314000A068D0B1236821699C420AD04BB193F9A1
:103150000E309942A8BF19466FF07E039942B8BF5E
:10316000194601F08CFD40B10848314600F03EFAA6
:103170006FF00A00AFE70025D1E7002DF4D186F308
:103180001188BFF36F8FF3E7400900205C0F002028
:1031900038B5836804466BB3194A926893422CD1C0
:1031A000C368012B03D9013BC360002038BD4FF039
:1031B0002003EFF3118583F31288BFF36F8F01694A
:1031C000806801F05CFD204601F0D8FDA06058B198
:1031D00090F90E2022610022826701F099FD0948D2
:1031E000294600F003FAE0E7E06085F31188BFF3B9
:1031F0006F8FDAE76FF01500D8E74FF0FF30D5E7B3
:10320000400900205C0F002038B504464FF0200331
:10321000EFF3118583F31288BFF36F8F01F0AEFDDA
:1032200048B10022826701F073FD29460748BDE8D6
:10323000384000F0DBB9D4E902329A4218BF0133BA
:10324000A36085F31188BFF36F8F38BD5C0F00203A
:1032500013B54FF02004EFF3118184F31288BFF30C
:103260006F8F846844B1013C846081F31188BFF39F
:103270006F8F002002B010BD52EA030406D181F323
:103280001188BFF36F8F6FF00F00F3E7CDE90023D4
:103290000246024800F046F9ECE700BF5C0F002050
:1032A000C3897F2B12D80A4B1B6863B1094B90F975
:1032B0000E201B689A4209DB437BDB0606D1064BD6
:1032C000C31A18BF012303F0010070470023FAE777
:1032D0006809002064090020B0010020044BC01AD6
:1032E000044BC0105843044B01221A54704700BFCE
:1032F000B0020020ABAAAAAA5C0F002070B50E4B4A
:103300000E4C1E7C06EB460304EBC3040546204628
:1033100001F066FD0A4B002228469A55FFF7C0FFD0
:1033200048B1084B08491A68013A2046D317BDE84E
:10333000704000F057BB70BD40090020B002002073
:103340005C0F002068090020DD32000038B50D4D0B
:103350002B4653F8184F9C4200D004B9EC68AB6878
:1033600038B95A7BD20604D1A26912B9DA897F2A08
:1033700005D89C4202D02046FFF7C0FF23466B6170
:1033800038BD00BF4009002070B590F90D20437B87
:10339000002A014604DA03F07F03437301F07EFC48
:1033A0004B7B154A63F07F0310464B7350F8183F70
:1033B000D469834208BF002323B9C1E90004216016
:1033C000D1610CE091F90E5093F90E60B5420ED028
:1033D000AE420CDD5868C1E9003001605960906868
:1033E000431A5842BDE870405841FFF7AFBF9C42B6
:1033F000E3D01B68E0E700BF4009002070B490F9FB
:103400000D30427B002B29DBD30627D183692BBBF0
:10341000134962F07F0242730A4652F8184F9442F1
:1034200018BF2346CC6923B9C0E900242060C861D5
:103430000CE090F90E5093F90E60B5420AD0AE42FE
:1034400008DD5A68C0E900321060586070BC002086
:10345000FFF77CBFA342E7D01B68E4E770BC70476E
:103460004009002008B590F90D20437B002A014651
:1034700004DA03F07F03437301F010FC044B9868F7
:10348000431A58425841BDE80840FFF75FBF00BFEC
:103490004009002070B515461C46064601F010FC98
:1034A000B4F1FF3F08BFB5F1FF3F08D02A462346DD
:1034B00006F118000249BDE8704000F093BA70BDF3
:1034C000754D000038B54FF02003EFF3118583F3FD
:1034D0001288BFF36F8F104B104A9C681068A0428F
:1034E00006D1FFF70BFF85F31188BFF36F8F38BD4F
:1034F00000211B7C11600A4AD35C002BF3D02046CC
:10350000FFF7CEFE0028EED0637BDB0602D120461B
:10351000FFF73AFF2046E4E7400900206009002059
:103520005C0F002070B50C480C4D86682E600C4670
:103530001146DDE904234FF02006EFF3118586F3F1
:103540001288BFF36F8F8068FFF7A4FF2046BDE8A5
:103550007040FDF72DBA00BF40090020600900202F
:10356000F8B504464FF02003EFF3118683F3128879
:10357000BFF36F8F437BDA0649B219D18569BDB9B4
:1035800003F07F03437301F089FB437B164A817389
:1035900063F07F034373134653F8180F984218BF24
:1035A0000546D0695DB9C4E900300460D46111E01A
:1035B000A173002086F31188BFF36F8FF8BD95F9D2
:1035C0000E70B9420BD08F4209DD6B68C4E900531D
:1035D0001C606C600120FFF7B9FE0120EAE7A842F9
:1035E000E1D02D68DEE700BF4009002049B9EFF3C4
:1035F000058030B9054B5A699B689A4201D0FDF7A6
:10360000D7B981F31188BFF36F8F7047400900204D
:1036100010B54FF02002EFF3118482F31288BFF34C
:103620006F8F427B510704D484F31188BFF36F8FEF
:1036300010BD22F004024273FFF7E0FE214602486B
:10364000BDE81040FFF7D2BF5D0F002070B5044603
:10365000183001F0C5FB4FF02003EFF3118683F320
:103660001288BFF36F8F94F90D20637B002A05DA6F
:1036700003F07F036373204601F010FB0B4D637B67
:10368000A86843F010036373031B58425841FFF7C7
:103690005DFE86F31188BFF36F8FAB68A34203D141
:1036A000BDE8704001F092BB70BD00BF4009002032
:1036B0004FF02003EFF3118183F31288BFF36F8F74
:1036C000044B9A68D37B013BD37381F31188BFF31A
:1036D0006F8F70474009002010B54FF02003EFF3C3
:1036E000118483F31288BFF36F8F084B9A68D37BE2
:1036F0000133D3730020FFF729FE84F31188BFF351
:103700006F8FBDE8104001F061BB00BF4009002091
:10371000024B03F11802C3E906227047400900205A
:10372000F8B54FF02003EFF3118583F31288BFF350
:103730006F8F19498868437B03F07F03437301F05F
:10374000ADFA8B685A7B084662F07F025A7350F8D4
:10375000182FCC69824208BF002222B9C3E90004B5
:103760002360CB610CE093F90E6092F90E70BE42BB
:103770000ED0B7420CDD5168C3E900210B605360E5
:103780000120FFF7E3FD2846BDE8F840FDF710B93A
:10379000A242E3D01268E0E74009002050EA0103AA
:1037A0002DE9F04105460E4603D1FFF7B9FF002091
:1037B0002CE0831C71F1FF332ADB01F027FB2C186E
:1037C0004FF02003EFF3118883F31288BFF36F8F5C
:1037D000114F124BB8681860FFF744FEB8681049E3
:1037E0002A463346183000F0FDF8BA68537B43F0A0
:1037F000100353734046FDF7DBF801F007FB201A76
:1038000063EB0303012873F10003D0DBBDE8F08113
:103810006FF00104241AD3E740090020600900205A
:10382000754D0000B1F1FF3F08BFB0F1FF3F08B593
:1038300006D1084B9868FFF709FF4FF0FF3008BD2D
:10384000FFF7ACFF4FF47A7380FB0303C00B40EA31
:103850004340F4E740090020014B9868704700BFDF
:10386000400900202DE9F04104464FF02003EFF31A
:10387000118683F31288BFF36F8F037BD9070BD5B3
:1038800086F31188BFF36F8F404080F311884FF0AB
:10389000040002DFBDE8F081437B1A0704D586F3FC
:1038A0001188BFF36F8FF5E723F0200242F0080183
:1038B000D20920D14173A36813B1204601F0F6F973
:1038C00004F1180001F08CFA04F158074FF00008D9
:1038D000A56DBD4200D0B5B90120FFF737FD104BF3
:1038E0009B68A342DBD1EFF30583002BD7D1304691
:1038F000FDF75EF8D3E703F05F0343F0080343737B
:1039000001F0CCF9D7E7284601F0D0F905F118000D
:1039100001F066FAC5F878802846FFF76FFDD7E713
:103920004009002008B50648064A0749121A01F066
:1039300048F9BDE80840054A0549064801F041B983
:103940000000002090010020BC5400000000000096
:10395000BC54000000000020034B1B680BB9FEF7AD
:1039600091BB0020704700BF6C09002010B50E4BC2
:103970001C689C4204D1FFF7EFFF6FF0004010BDC0
:10398000FFF7EAFF002CF8D0D4E904321B1A62EBEF
:10399000E072B3F1004F72F10001EEDA002AACBF21
:1039A00018460020EBE700BFD000002030B570B112
:1039B0000B4B5B6898420AD0036843B1D3E90421FA
:1039C000D0E90445121941EB0501C3E90421D0E90E
:1039D000003213605A600023C0E9003330BD00BFDD
:1039E000D0000020B3F1FF3F08BFB2F1FF3FF8B5B0
:1039F00004461D4616465CD081604FF02003EFF36D
:103A0000118783F31288BFF36F8F013275F1FF3393
:103A100024DA2D49D1E900206FF001039B1A4FF001
:103A2000FF3262EB00009E1B60EB0500012E70F17F
:103A3000000301DA01260020C4E90460234ED6F811
:103A400000C07568B44508BF4FF0000CBCF1000F12
:103A50000DD1C4E900652C6074601CE0FFF77CFFA9
:103A6000013645F10005361845EBE070E4E7DCE986
:103A70000420D4E90431934271EB000E1ADAD21A11
:103A8000DCF8043060EB0100CCE90420C4E900C399
:103A90001C60CCF804403368B34206D09C4204D189
:103AA000FFF764FF0021FEF7B9FA87F31188BFF32F
:103AB0006F8FF8BD9B1A61EB0001AC45C4E904317E
:103AC000C7D0DCF800C0C1E7C8020020D000002049
:103AD0002DE9F84F4FF02003EFF3118C83F3128898
:103AE000BFF36F8FDFF8B0A0DFF8B0902C4FC9F8AC
:103AF0000000DAF800000024504508BF002000252F
:103B0000D7E90021D9F80030E04680B3D0E9046C51
:103B10004FEAE37EB3427EEB0C0B05DAF61A6CEB50
:103B20000E04C0E9046422E0B21841EBE671C0E97A
:103B30000445C7E90021FFF739FF88F31188BFF377
:103B40006F8F836898474FF02003EFF3118883F35A
:103B50001288BFF36F8FD9F80030DAF800009B1B92
:103B60005045C446C9F80030CAD1D7E900219A1897
:103B700041EBE3730024C7E90023C9F80040FFF7D5
:103B8000F5FE2146FEF74AFA88F31188BFF36F8FDE
:103B9000BDE8F84FFFF796BCD00000206C0900206C
:103BA000C802002010B54FF02003EFF3118483F317
:103BB0001288BFF36F8FFFF7CFFE064A0346D2E9A4
:103BC0000001181841EBE37184F31188BFF36F8F84
:103BD00010BD00BFC8020020014800F03FBC00BF7C
:103BE0008254000010B50A4C23681BB101232360E6
:103BF000002010BD00F0EAF80028F7D001380628B0
:103C000003D8044B53F8200010BD034810BD00BF7B
:103C10007009002070520000FE8FFFFFBFF34F8F2E
:103C20000549064BCA6802F4E0621343CB60BFF358
:103C30004F8F00BFFDE700BF00ED00E00400FA0574
:103C400010B4094B09490A4C4FF0FE32C3F8002466
:103C50004968C3F80424C3F80824C3F80C240023DB
:103C6000C4F8003510BC084700B00250D80000204E
:103C700000A00250D0E90012014BC3E900127047C6
:103C8000D800002010B5044650B1636813F0685F97
:103C900005D0064A934202D000232360626010BD23
:103CA000034B04485B689847EFE700BF2C5F5CA9B3
:103CB000D80000208C520000C8B143680D4A9342DE
:103CC00013D013F0685F0ED0012350E8002F19467F
:103CD00040E8001C9CF0000FF7D1012AF5D0BFF39B
:103CE0005F8F0020704704487047044870476FF4A6
:103CF000E04070472C5F5CA9E98FFFFFEA8FFFFF70
:103D000080B14368094A93420AD013F0685F05D036
:103D1000BFF35F8F00230360184670470448704765
:103D2000044870476FF4E040704700BF2C5F5CA907
:103D3000E98FFFFFEA8FFFFF10B5044620B1044B67
:103D400063600022226010BD0248FFF779FFF6E7AA
:103D50003A00003AB452000070B5D0E90023174C85
:103D6000174D6360D0E90230C4E902302260486830
:103D7000D1F800C0134BC3E900C0D5F81801D1F841
:103D800008C0C3F808C010F0685FD1F80CC009691A
:103D9000C3F80CC0196110D00B49C5F8BC11002341
:103DA000C5E9453105F58A70C5F8B83190472368F3
:103DB00005F5DC70BDE87040184770BDF4000020C8
:103DC00088090020E00000202C5F5CA938B500F0D5
:103DD0002FF820B1032400F063F8204638BD00F02E
:103DE00031F898B900F0ACF898B90F4DD5F82839EA
:103DF0001B0EF02B08D1D5F8242A0C4B9A420AD07E
:103E0000072400F017F8E6E70624FAE70424204622
:103E100038BD0024F5E7012000F092F804460028A0
:103E2000F7D1C5F80C0AD8E700B002500000E02036
:103E30000020704700207047014BC3F8040A704708
:103E400000B0025010B5114800F048F800B110BDA4
:103E50000F4800F043F80028F9D10E4C204600F03E
:103E60003DF80028F3D10C4B0C481C6000F036F8EC
:103E700001460028EBD100F02DF8044608B1204699
:103E800010BD00F03FF82046FAE700BF34010020E3
:103E9000300100202C0100202401002028010020F6
:103EA00008B5084800F024F8074800F021F8074852
:103EB00000F01EF8064800F01BF8BDE8084000F0CE
:103EC0000BB800BF34010020300100202C0100207D
:103ED0002801002000207047704700BF08B5034B41
:103EE00002681B6810689847002008BDF400002095
:103EF00008B5034B02685B6810689847002008BD4E
:103F0000F400002070B5094C094D2069AB68984752
:103F100018B1084B08485B689847084AEB68206965
:103F200000211160BDE87040184700BFE00000208C
:103F3000F4000020D8000020D8520000840900209E
:103F4000F8B51A4D1A4E0446B26828699047E8B988
:103F5000184F3B684CB1A3B1012B19D0013B3B601A
:103F60002869F36898470020F8BD43B9124A012137
:103F7000C2F800151149D1F81029002AFBD10133EC
:103F80003B60F368286998470020F8BD0C48F8BDED
:103F90000A4AD2F81039002BFBD1074A6FF07E4055
:103FA000C2F80035FFF748FF3B68D7E7E000002084
:103FB000F40000208409002000A0025000B002504C
:103FC000E98FFFFF2DE9F04F8BB0436801938378B1
:103FD0009F078246144640F10981002591F8008030
:103FE000B8F1000F00F00481B8F1250F0BD04B1C85
:103FF00002930135019B5146404698470028C0F284
:10400000F5800299EAE791F801808B1CB8F1250F41
:104010000293EED0002399461F461F2F39D8A8F1EE
:104020002002102A0AD8DFE802F02B090931090919
:10403000092109090929092E09091F00A8F13002DF
:10404000092A32D9B8F12A0F35D1780654F8042B51
:1040500000F18180002AA7BF47F020079146C2F1F6
:10406000000947F0280701E047F00107029A12F81B
:10407000018B0292B8F1000FCFD132E047F0020776
:1040800047F00407F2E747F00807EFE747F01007AB
:10409000ECE77F2F18D8A8F13002092AD2D87E0683
:1040A00003D50A2101FB0323E0E70A2101FB0929CB
:1040B00047F02007DAE7B8F12E0F05D1790600F1B5
:1040C000978047F04007D1E7B8F16C0F32D02AD87B
:1040D000B8F1680F35D0B8F16A0F39D0B8F14C0F8C
:1040E00036D0002B48F02002B8BF27F04007A2F1DD
:1040F0006501BCBFBFB20023022901D9612A2CD1BE
:10410000073424F007049A4E08344FF007083807A4
:1041100063D506EB080B37465F4560D1AE1B3744CD
:10412000A9EB080954E1B8F1740F9FD0B8F17A0FE8
:104130009CD0D6E73A0648BF47F4007747F080079F
:1041400094E7FE0548BF47F4007747F480778DE792
:1041500047F420778AE7134688E7A8F1630112291C
:1041600000F2CF80DFE811F013004800CD00CD0051
:10417000CD00CD004800CD00CD00CD00CD00CD005C
:10418000DF00C700CD00CD001B00CD00960054F825
:10419000043B8DF81C304FF0010807AEB7E754F828
:1041A000046B744A002E08BF164617F0400F14BF68
:1041B00019464FF0FF31304600F02DFE8046A6E74D
:1041C000019B51462020984700280FDB013FB8454E
:1041D000F6D34D44ED1BB9469BE74F46F7E717F87A
:1041E000010B019B51469847002895DA4FF0FF35A7
:1041F00028460BB0BDE8F08F390637D5BA0545BF64
:10420000073424F0070454F8040B54F8080B27F083
:1042100010060028B6B232DA404246F480660393B4
:1042200007AF0A22394600F002FE7206039BA0EB9C
:1042300007074BD526F00101BB4289B240F38A80C3
:10424000B8F1000F00F0828016F01002039240F0E7
:1042500083809B460E4640F2064116EA0102039215
:104260001EBF00220BF1010B039238E0FE0554F84B
:10427000040BCCD5B9054CBF40B200B2C7E7CED1D4
:104280007A06CCD5002BCAD127F01107BEB21F4643
:104290009B46E0E727F01007BFB20A223E0646D54C
:1042A000B80545BF073424F0070454F8040B54F84C
:1042B000080B002844D127F016067906B6B242D57D
:1042C000002B40D127F01707BEB21F4616F0100290
:1042D00003924AD0B8F1000F45D107F1010B310725
:1042E0005CD4F20705D5D94575DDA9EB0B02D319CE
:1042F000CB465A464CE047F0100710224FF07808A2
:10430000CCE7782A06D1B8F1580F14BF10224FF429
:104310000472C3E7019B5146252098470028FFF609
:1043200065AF023566E608224FF00008B6E7F905EA
:1043300054F8040BBDD5BE054CBFC0B280B2B8E77F
:1043400027F00607BEB2039307AF6BE726F011060E
:10435000B6B29DE70E46B9E738460E461F4607F14E
:10436000020B0746BBE73846F9E7BB4673E700BFD9
:10437000B1540000AA540000CDE904325146019B1B
:10438000202098470028FFF631AF059A049B0132A0
:104390009145F1DCA5EB0B018D189346039A32B3DE
:1043A00003935146019B302098470028FFF61EAF2B
:1043B000039BB8F1000F10D101355E19711B8F42BC
:1043C00027DB3E460DF11C0866BB2F44A9EB0B0909
:1043D0003D46B94438E03B468BE7039302355146EE
:1043E0004046019B98470028039BE6DAFEE640F230
:1043F00006410E42E1D016F0020F14BF2B20202000
:1044000016F4806F039305F10105514618BF2D2066
:10441000E7E7019B514630209847002805F1010548
:10442000CCDAE3E6013E019B18F8060051469847B6
:104430000028C9DADAE6019B514620209847002877
:1044400005F10105FFF6D2AEA9EB0503002BF2DC66
:10445000D7E500BF08447047002070470FB407B588
:1044600004A951F8040B0191FBF7D4FF03B05DF8E8
:1044700004EB04B0704700EBC1004088400870476F
:10448000F8B50346FFF7F7FFB0FA80F0C0F11F0060
:1044900003EB800CCA00DCF81060171D0C460632D6
:1044A0008DB256B9012101FA00F0D9680143D960F3
:1044B000CCF81040DD539D52F8BDF1000431585A3C
:1044C000D85303EBC0009E52C5805D52F4E7043A16
:1044D0002DE9F041CC1D114424F0070421F007011F
:1044E0000E1BF708B7FA87F2C2F12405AD004FF0B2
:1044F00000080735C2F12002ED0804604146A760BC
:10450000C4F80C80920004F1100000F0BAFC6B00BB
:1045100043F00103638004EBC5027B1B5900A4F840
:1045200000805180A21924F83550A2F80280A353CC
:1045300004EBC70329465A8842F001025A802046FC
:10454000BDE8F041FFF79CBF038B13F0070305D1D3
:104550000368002B0CBF002003207047022B05D1FD
:10456000408BB0FA80F0400980007047012B05D1E4
:104570000368002B0CBF0020052070470020704707
:1045800010B50C4600B111B96FF0150010BD081D33
:1045900000F095F80028F9D1A368032BF6D9F3E7CA
:1045A0002DE9F0410D4607461946281D90461E4646
:1045B00000F096F8044638B133464246294638465C
:1045C000A446BDE8F0416047BDE8F08110B44FF06B
:1045D0002004EFF3118284F31288BFF36F8F4161DF
:1045E00010BC0121FBF748BF38B50C46054658B151
:1045F00051B10B6843B14B6833B11C22002100F06C
:1046000040FC2C61002038BD6FF01500FBE770B551
:1046100005460E46FFF7B4FF041E15DB4FF02003DE
:10462000EFF3118283F31288BFF36F8F6B8B2C8BA8
:104630004FF6FF718B4204F0070407D182F3118813
:10464000BFF36F8F6FF00A04204670BD022C0CD1AF
:1046500001336B8382F31188BFF36F8F00232246EF
:1046600031462846FFF79CFFEEE7062C14D8DFE81A
:1046700004F004131313041A0400002333606B685E
:104680003BB9C5E90066ACB902212846FBF7F4FE48
:10469000DAE71E606E60F6E782F31188BFF36F8F72
:1046A0006FF00404D0E782F31188BFF36F8F6FF0CF
:1046B0008504C9E782F31188BFF36F8FC4E703460F
:1046C00058B1426802F00302012A03D0032A04D140
:1046D000026812B10020986070476FF015007047B3
:1046E0004268816002F00302032A4FF00002034691
:1046F0000CBF006810465A607047704708B500202C
:10470000FBF7C8FFFEF7D4BA01460068FEF7D0BA3F
:1047100000210120FFF7F6BF08B5FCF729F9BDE835
:104720000840FCF731BA08B5FCF7FCFC002008BDD6
:104730000369C9B20C2201FB0233186C00F00700B8
:1047400070474FF02003EFF3118283F31288BFF319
:104750006F8F036803F0C00343F00203036082F32A
:104760001188BFF36F8F704770B5C9B203694FF0FE
:104770002004EFF3118584F31288BFF36F8F0C26AA
:1047800006FB0134246C14F0C00408D0A24206D009
:1047900085F31188BFF36F8F4FF0FF3070BD06FBBC
:1047A000013301221A6485F31188BFF36F8F4368C8
:1047B00003EBC1035B6898470020EFE78022FFF717
:1047C000D3BFF8B5069F0469C9B24FF02005EFF3D7
:1047D000118685F31288BFF36F8F0C2505FB01440A
:1047E000256C05F0070CBCF1010F0CD1276486F392
:1047F0001188BFF36F8FC4E90E23436853F831303B
:1048000098470020F8BD05F0C005AF4286F3118837
:10481000BFF36F8F0CBF6FF077004FF0FF30F1E701
:1048200013B580240094FFF7CCFF02B010BD10B484
:104830000069CBB21C2403FB0400002110BC10470C
:10484000002000F00FB9002000F048B91046FEF734
:10485000DBBC43685B68D3F810350B600020704701
:1048600043685B6802EA010021EA0201C3F8080517
:10487000C3F80C150020704743685B680020C3F83C
:104880000815704743685B680020C3F80C15704733
:1048900043685A68D2F8043521EA03000B40C2F895
:1048A0000805C2F80C350020704710B50369586838
:1048B000F8B1884219D19C6808685860A14200D1BB
:1048C0009860002008602AB15A680A609A685960A6
:1048D00002B99960002010E0814206D1086820608A
:1048E00098688142EDD19C60EBE70446006800289F
:1048F000F2D1002AE8D16FF0150010BD30B5436841
:104900001360057A446804EBC504A34202D36FF038
:10491000010030BD5C798C4201D00833F0E7002003
:10492000F7E702690B46D2E9010183E803000020A2
:10493000704743681B68D3F88004C3F8800470474D
:10494000436802691B68D3F8100150B15269002016
:1049500012780A70C3F81001D3F8102101221A60EE
:1049600070474FF0FF30704702680346D2F8580195
:1049700040B95B689B0706D4D2F82001003818BF05
:10498000012070470120704742681368D3F8041370
:10499000C90518D5D3F82011A9B14FF02000EFF3C5
:1049A000118180F31288BFF36F8FD3F8200130B1EB
:1049B0000020C3F82001D3F820010120D86081F342
:1049C0001188BFF36F8F5268D20615D54FF02001C2
:1049D000EFF3118281F31288BFF36F8FD3F8581170
:1049E00011B10021C3F800154FF48001C3F808137A
:1049F00082F31188BFF36F8F704700F150039B0063
:104A00009BB203F1804303F5883300221A601B68D0
:104A1000704708B50020FCF751FAFFF7E3B808B576
:104A2000FBF752FEFBF726FFBDE80840FFF7DAB8B8
:104A3000004700F0B4B8C00000F1804000F5F83045
:104A4000C0F81015C0F81425704708B50020FBF712
:104A500069FF08B9FBF744FF4FF080430022C3F819
:104A6000182508BD08B510B101282CD008BD4FF09D
:104A70008042D2F81814D2F81834C80317D503F0BE
:104A80000303012B04D013B10020FDF75FFC0023CA
:104A90004FF08042C2F818350023C2F80431D2F832
:104AA00004310223C2F8043301239360DEE7D2F815
:104AB0001434D907EBD5D2F81C349B07E4D4022375
:104AC000C2F80433D2E74FF080430022C3F800213C
:104AD000D3F80021C3F804031860C7E7FDF736BC1C
:104AE000F7B5019001A8DDE9084716461D46FDF718
:104AF000D3FC019BB6F1000C18BF4FF0010C00EB8A
:104B000083000B1E18BF0123002D43EA4C0314BF82
:104B10004FF00C0C4FF0000C002C43EA0C0314BFB8
:104B20004FF4E06C4FF0000C002F43EA0C03D0F878
:104B3000002714BF4FF4403C4FF0000C43EA0C0335
:104B400022EA030301B109780EB1367876001943E1
:104B50000DB12D78AD0031430CB1247824022943E6
:104B60000FB13F783F040C433C43C0F8004703B00B
:104B7000F0BD1FB50DF10F03019300238DF80F1049
:104B800000931A461946FFF7ABFF05B05DF804FB2A
:104B9000FEF75AB808B5FFF7FBFF002008BD08B1C3
:104BA000FCF708BB7047704740B1C368587810F0F5
:104BB00001001EBF1878B0FA80F04009704700F07D
:104BC00060B900F050B9D0E90332134313F0030386
:104BD0000CD143618168994201D800207047416936
:104BE0001160C168426101330A44F3E76FF01500B8
:104BF000704710B5C0E902320023016183610446A9
:104C0000FFF7E1FF0028A8BFC4E9004410BDF8B5D4
:104C100004460D464FF02003EFF3118683F312880C
:104C2000BFF36F8F47696FB900F0A8F850B187677D
:104C3000456100F06DF8314604F10800BDE8F84028
:104C4000FEF7D4BC63692B60A3696561013BA36176
:104C500086F31188BFF36F8FF8BDEFF3058000383E
:104C600018BF0120704708B54FF02002EFF3118301
:104C700082F31288BFF36F8FFBF718FEF4E790F909
:104C80000E308B4201D0FEF76BBC0020704703460C
:104C90000020C3E90200C3E900337047D0E90032C5
:104CA00013605A600023C0E90033704708B5FFF76E
:104CB000F5FF437B23F0020343730023836008BDA9
:104CC00038B504460D46FEF7CDFB637B43F0020387
:104CD0006373E5B1A5602B689D4209D16B68C4E997
:104CE00000531C606C6012E06A689342F6D01B6847
:104CF000002BF3D094F90E2093F90E108A42F3D0D2
:104D00009142F1DD5A68C4E9003214605C6038BD3C
:104D100010B54FF02003EFF3118483F31288BFF333
:104D20006F8FFEF76BFB84F31188BFF36F8F10BD9D
:104D300038B504464FF02003EFF3118583F3128852
:104D4000BFF36F8F437B13F0280F0BD183680BB138
:104D5000FFF7ACFF637B51B903F0FB03637320469D
:104D6000FEF74CFB85F31188BFF36F8F38BD03F05E
:104D7000EB03F3E701211838FFF7DABF38B54FF03E
:104D80002003EFF3118583F31288BFF36F8F04685C
:104D9000A0420DD034B12046FFF788FF04F118007F
:104DA00000F01EF885F31188BFF36F8F204638BDE1
:104DB0000024F7E7034620B9EFF305820AB9FBF7B1
:104DC000F7BD83F31188BFF36F8F70474FF0200357
:104DD000EFF3118083F31288BFF36F8FFFF7EABF01
:104DE00010B54FF02002EFF3118482F31288BFF365
:104DF0006F8F03683BB1FEF7D9FD002084F3118863
:104E0000BFF36F8F10BD6FF01500F7E708B5FEF721
:104E1000C9FE08BD704710B5024601448A421346D8
:104E200003D01C780132002CF8D1181A10BD93055C
:104E300070B548BF22F40072044608464CBF0721F3
:104E40002721B4FBF2F502FB1543DBB2092B88BF27
:104E50005B18264688BFDBB23033B24200F8013B14
:104E60002C46EED970BD0A44914200F1FF3300D1C7
:104E7000704710B511F8014B03F8014F9142F9D179
:104E800010BD02440346934200D1704703F8011B52
:104E9000F9E700000148006870470000EC070020B7
:084EA00094B2FF7F0100000045
:104EA80071110000000000003D120000084F0000D2
:104EB800954B000000000000E52E000000000000F7
:104EC800E1150000304F0000E11500001C4F000004
:104ED8001B4A000000000000A51A0000444F000013
:104EE800AD14000000000000B91E00000000000022
:104EF8004D110000000000001F4A000000000000E3
:104F0800BF5300009C510000AC5100003801002044
:104F180014080020DC530000C8510000E8510000CC
:104F28003A01002068080020EA530000D851000028
:104F3800E85100003C01002074080020F8530000EC
:104F48000C520000405200003E01002034000020B6
:104F580031240000314A0000000000001147000021
:104F6800444F00008949000000000000114700007C
:104F78000000000011470000000000001147000079
:104F8800952A0000314A0000000000001147000087
:104F98000000000011470000000000001147000059
:104FA8000000000011470000000000001147000049
:104FB8000000000011470000000000001147000039
:104FC8000000000011470000000000001147000029
:104FD800000000001147000000000000491F000009
:104FE8000000000011470000000000001147000009
:104FF80000000000114700000000000011470000F9
:1050080000000000114700000000000011470000E8
:1050180000000000114700000000000011470000D8
:1050280000000000114700000000000011470000C8
:1050380000000000114700000000000011470000B8
:1050480000000000114700000000000011470000A8
:105058000000000011470000000000001147000098
:105068000000000011470000000000001147000088
:105078000000000011470000000000001147000078
:105088000000000011470000000000001147000068
:105098000000000011470000000000001147000058
:1050A8000000000011470000000000001147000048
:1050B8000000000011470000000000001147000038
:1050C8000000000011470000000000001147000028
:1050D8002E540000000000004B54000000000000A7
:1050E80057540000000000001553000000000000A5
:1050F800CE5300000000000016540000000000001D
:10510800A2530000000000007F54000000000000CF
:10511800BB5300000000000006540000000000001F
:08512800FFFFFFFFFFFFFFFF87
:105130000338FDD87047000000000000FD46000065
:105140001C000020140000200C00002000000000C3
:1051500004000020E1070000D50600002907000038
:1051600089070000000000200000000000000B067E
:10517000020000007851000000000000A65300006B
:105180002600020700000020AE53000022000B1191
:10519000F9110000C911000000000000E512000034
:1051A0007D130000414800004748000049130000FB
:1051B000BD4700002148000000000000314700000A
:1051C0000000000000000000FFFF0000000300508E
:1051D0000000000001000000FFFFFFFF0000005082
:1051E00000000000000000006516000053480000A9
:1051F000614800007948000085480000914800009F
:10520000FD140000AB48000000000000002000403A
:1052100002000000000000001C52000000200040BE
:10522000285200000100000030520000040000007D
:10523000060000000500020088010100870103004C
:10524000414900008D1B0000334900003D1900005A
:1052500023490000F5FFFFFFA84E0000A84E000004
:10526000F04E0000F84E0000084F0000084F00000C
:10527000FF8FFFFFFF8FFFFFFE8FFFFFFE8FFFFF00
:10528000FD8FFFFFFC8FFFFFFC8FFFFF6D757465C7
:10529000785F667265652063616C6C656420776910
:1052A0007468204E554C4C20706172616D65746558
:1052B0007200000043616E277420696E6974696131
:1052C0006C697A65206D757465782C207761732020
:1052D0004E554C4C0D0A0000436F756C64206E6F88
:1052E00074206C6F636B20706F77657220736176CA
:1052F00065206D75746578005468652073756D2040
:105300006F6620256420616E642025642069732007
:1053100025640A0D0063627072696E74665F706165
:10532000636B616765004661696C656420746F201A
:105330007265626F6F743A207370696E6E696E6722
:1053400020656E646C6573736C792E2E2E0A006D69
:10535000757465785F696E69742063616C6C6564EF
:105360002077697468204E554C4C20706172616DD5
:105370006574657200436F756C64206E6F74206194
:105380006C6C6F63617465206D75746578206265FF
:10539000666F726520696E697469616C697A696E9D
:1053A00067006D707500464C4153485F30005352A2
:1053B000414D5F3000000001000000736F63006327
:1053C0006C6F636B40343030303030303000636CA1
:1053D0006F636B5F636F6E74726F6C006770696F81
:1053E000403530303030333030006770696F4035D1
:1053F00030303030303030007561727440343030CD
:10540000303230303000756172745F6E7266785F72
:10541000756172746500666174616C5F6572726F4C
:1054200072000000000000010100000000004E5268
:1054300046585F434C4F434B0000203030303030F3
:1054400030303030303030303000014E5246585F0E
:105450004750494F5445004E5246585F50504900FE
:105460005465726D696E616C0000000000000054AC
:10547000545220524547474553006D61696E006F95
:1054800073002A2A2A20426F6F74696E67206E5259
:105490004620436F6E6E6563742053444B20763212
:1054A0002E352E31202A2A2A0A00286E756C6C2986
:0C54B000002A666C6F61742A0000000086
:1054BC0059440000540100203A000000680100200B
:1054CC003A000000400100203A0000007C0100205E
:1054DC003A00000000000000274700000000000018
:1054EC000000000000000000802500000001030007
:1054FC00000000004A0B0020490B002000000000B7
:10550C00000000000000000000000000000000008F
:10551C00000000000000000000000000000000007F
:10552C00000000000000000000000000000000006F
:10553C00000000000000000000000000000000005F
:10554C00000000000000000000000000000000004F
:10555C00000000000000000000000000000000003F
:10556C00000000000000000000000000000000002F
:10557C00FF0000000000000000000000FFFF0F0013
:10558C00D0000020D0000020000000001D3C0000D6
:10559C001C010020140100200C0100200000000060
:1055AC0004010020393D0000853C0000B93C00009E
:1055BC00013D0000740900203A00003A78090020EF
:1055CC003A00003A7C0900203A00003A8009002099
:1055DC003A00003A2C010020F0000020E8000020E6
:0855EC00E4000020E0000020B3
:0855F4000000000000000000AF
:1055FC0040010020400100200000000000000000DD
:10560C000E00000054010020540100200000000096
:10561C00000000000E00000068010020680100205E
:10562C0000000000000000000E0000007C010020C3
:10563C007C01002000000000000000000E000000B3
:04564C0015E015E070
:0400000300000E6982
:00000001FF
