:10000000401D002035120000D14B000009120000F5
:10001000091200000912000009120000000000008F
:100020000000000000000000000000007D0C000047
:100030000912000000000000190C00000912000065
:10004000390D0000390D0000390D0000390D000098
:10005000390D0000390D0000390D0000390D000088
:10006000390D0000390D0000390D0000390D000078
:10007000390D0000390D0000390D0000390D000068
:10008000390D0000390D0000390D0000390D000058
:10009000390D0000390D0000390D0000390D000048
:1000A000390D0000390D0000390D0000390D000038
:1000B000390D0000390D0000390D0000390D000028
:1000C000390D0000390D0000390D0000390D000018
:1000D000390D0000390D0000390D0000390D000008
:1000E000390D0000390D0000390D0000390D0000F8
:1000F000390D0000390D0000390D0000390D0000E8
:1001000053B94AB9002908BF00281CBF4FF0FF317E
:100110004FF0FF3000F00CB8ADF1080C6DE904CEE3
:1001200000F008F8DDF804E0DDE9022304B07047D0
:10013000704700BF2DE9F04786468C460846089E6A
:10014000154674461946002B40F0C2808542B2FA2B
:1001500082F245D94AB1C2F1200300FA02FC2EFA1C
:1001600003F3954043EA0C0C94404FEA154EA8B2B5
:10017000BCFBFEF8230C0EFB18CC08FB00F943EA8D
:100180000C43994528D9EB1808F1FF3704D299455B
:1001900002D9A8F102072B44A3EB0903A4B2B3FBD5
:1001A000FEFC0EFB1C330CFB00F044EA0344A042AF
:1001B00014D92C190CF1FF3304D2A04202D9ACF1AE
:1001C00002032C44241A43EA07401EB1D440002302
:1001D00034607360BDE8F0874746DDE76346F1E7CA
:1001E00092BB431B01214FEA154EAFB2B3FBFEFC9D
:1001F000200C0EFB1C330CFB07F840EA0343984528
:1002000062D9EB180CF1FF3004D2984502D9ACF159
:1002100002002B44A3EB0803A4B2B3FBFEFC0EFBCD
:100220001C330CFB07F744EA0344A7424ED92C19B0
:100230000CF1FF3304D2A74202D9ACF102032C44E3
:10024000E41B43EA0040C0E7C2F1200320FA03F1B7
:10025000954090402EFA03F303434FEA154EAFB298
:10026000B1FBFEFC0EFB1C10190C0CFB07F841EA5D
:100270000041884504FA02F422D969180CF1FF30D4
:1002800004D2884502D9ACF102002944A1EB08014F
:100290009BB2B1FBFEFC0EFB1C110CFB07F743EA03
:1002A00001439F420ED9EB180CF1FF3104D29F425B
:1002B00002D9ACF102012B44DB1B41EA004192E779
:1002C0006046E3E76146F7E76046A3E76346B7E7C2
:1002D000834206D916B9002108467BE7C6E900E04B
:1002E000F9E7B3FA83F78FB9834201D3724508D88F
:1002F000BEEB020460EB030301209C461EB9002103
:1003000068E73846FAE7C6E9004CF8E7C7F1200C81
:10031000BB4022FA0CF41C432EFA0CF120FA0CF329
:10032000B84001434FEA14490EFA07F5B3FBF9F858
:100330001FFA84FE09FB18300B0C08FB0EFA43EA87
:1003400000439A4502FA07F240D9E31808F1FF305A
:1003500004D29A4502D9A8F102002344A3EB0A0370
:1003600089B2B3FBF9F809FB183308FB0EFE41EA2A
:1003700003418E452CD9611808F1FF3304D28E4514
:1003800002D9A8F10203214443EA0040A0FB0298ED
:10039000A1EB0E014145CE46434602D306D14D4561
:1003A00004D2B9EB020E68EB04030138002EA6D08C
:1003B000B5EB0E0261EB030101FA0CFC22FA07F324
:1003C0004CEA0303F940C6E9003198E74046C5E727
:1003D0004346D9E738B50B480B4D0A22492104F0B2
:1003E000DEFB012401210B464B430131A142FBDD21
:1003F000224649212846013404F0D1FB0B2CF1D1CF
:1004000038BD00BFE4570000185800007FB5344BDA
:100410006A4603F10806154618685968144603C46D
:100420000833B3422246F7D118681B792371206044
:1004300049212C4804F0B3FB03222B48492104F046
:10044000AEFB2A48442104F0AAFB2948572104F0B6
:10045000A6FB2848452104F0A2FB274A274849214A
:1004600004F09DFB0D222946032000F0B9F9244C2D
:10047000204604F0EFFD70B322484FF4D01104F091
:100480001DFA002827DB20484FF4803104F016FACB
:10049000002820DB2369A5681B68AE6913F4006F90
:1004A00014BF4FF000734FF080630B214FF0A07228
:1004B0002046B0471549164B4B604FF400638B60E4
:1004C000EB6913B101222046984700214FF0967046
:1004D00003F0DCFBF9E74FF0FF3004B070BD00BF64
:1004E000E0550000385800005A5800006B580000D2
:1004F0008D580000B2580000D5580000E2580000A6
:10050000E0530000F855000000560000D002002023
:10051000D5030000014B1B68184700BF00000020F6
:10052000014B1860704700BF0000002030B585B057
:1005300004460D4610220021684604F0FAFE02230C
:100540008DF802302A46044B01932146684603F099
:100550006DFF05B030BD00BF1505000080B5054634
:100560000E461746984603F0ABFB034604F0EAFE3E
:10057000DFF81890044649F80030424630463946C4
:10058000A84754F8090000F0D5FE00BF080000009D
:100590002DE9F047058B04462807904611D402291F
:1005A00005F0070540F0CD80204604F01EFA78B132
:1005B0000138218B042811D8DFE800F0C3106D85C5
:1005C000950001290CBF45F0100545F02005258355
:1005D00088F31188BFF36F8FBDE8F08701F0070A39
:1005E000AA4500F0A6800027B9463E46A368002B26
:1005F00000F0BD8041F00801218388F31188BFF32A
:100600006F8FA168002900F0BB800D68002900F001
:10061000B780D1F80480334652462046C047002DAB
:1006200076D02B6829461D46F0E701F007035A1FD4
:10063000012A1BD8002221F00701062B276889B266
:10064000C4E9002209D13B4603E0628B0132628398
:100650001B68002BF9D141F002012183204604F0F0
:10066000C4F900287BD041F0200177E0042B0AD1A7
:1006700021F0070189B22183204604F0B6F910B1B8
:1006800041F020012183218B01F0070AAA4550D0B7
:100690000027B946AAE7236921F0070141F00601C6
:1006A000062DD3F8009021832DD1B9F1000F40D051
:1006B00041F00801218388F31188BFF36F8F3A4915
:1006C0002046C84729E021F00701236941F00401D1
:1006D00089B2042DD3F804902183E6D000273E464A
:1006E0004FF0040A82E721F00701236941F0050178
:1006F00089B2052DD3F808902183D6D000273E4635
:100700004FF0050A72E700273E464FF0060A6DE7F4
:100710002B4687E7B9F1000FD1D14FF02003EFF35B
:10072000118883F31288BFF36F8F238B23F00803A4
:100730002383258BEA062ED525F01003238305F0AD
:1007400007056669218B002EBFF66FAF002327686F
:10075000C4E9003321F0070141F001012183218B1D
:1007600001F0070AAA454FF000097FF43FAF002FC0
:100770009BD041F00801218388F31188BFF36F8F6C
:10078000002FC7D03D68394633465246204604F014
:1007900058F92F46F4E7AB067FF51AAF25F0200392
:1007A000238305F00705FFE66F4A000008B50446FD
:1007B0004FF02002EFF3118382F31288BFF36F8FA3
:1007C00001F060FE204600F05FFD034804F097F85A
:1007D00000F058F9FCE700BF0759000001F08EBE99
:1007E0002DE9F84FDFF89490DFF894A080460F468B
:1007F00016461446BD192D1B0CB9BDE8F88F08F13B
:10080000FF33032B98BF19F803101E4888BF3F2100
:1008100004F075F84FF0000B5C4527D915F80B1064
:10082000194804F06CF80BF1010BBBF1080FF3D180
:10083000164804F064F84FF0000B5C451AD915F81F
:100840000B1013481AF8012012F0970F08BF2E2141
:1008500004F055F80BF1010BBBF1080FEDD10D4879
:1008600004F04DF8072CC8D9083CC3E70A4804F047
:1008700046F8D8E7094804F042F8EBE7445900008D
:100880008660000030590000355900003F590000D3
:1008900041590000EC5F00003B5900003D59000049
:1008A000014803F01BBC00BF0856000038B50446E1
:1008B00018B90F4B0F485B6898476168B1F5683FFE
:1008C00010D0B1F5680F0DD00B4DA9420AD011F42C
:1008D0006861206807D00146084804F0EEFB002359
:1008E0002360656038BD142204F023FDF9E700BFE2
:1008F000D8000020485900002C5F5CA9DC070020CC
:1009000008B520B34368B3F5683F10D101220368EE
:10091000BFF35B8F53E8001F002903D143E8002099
:100920000028F7D1BFF35B8F0DD1002008BD094A25
:1009300093420AD000684FF0FF324FF0FF3302F0CD
:10094000E1FD0028F1D00448F0E70448EEE76FF439
:10095000E040EBE72C5F5CA9E98FFFFFEA8FFFFF28
:1009600008B5D8B14368B3F5683F10D100220368D9
:10097000BFF35B8F53E8001F012903D143E8002038
:100980000028F7D1BFF35B8F0BD1002008BD074AC9
:10099000934208D0006802F02FFEF6E76FF4E040C3
:1009A000F4E70348F2E70348F0E700BF2C5F5CA9D7
:1009B000E98FFFFFEA8FFFFF10B5044618B91D4B02
:1009C0001D485B6898476368B3F5683F2FD0B3F55F
:1009D000680F2CD0194A934219D1236803BB1848D9
:1009E0004FF0FF324FF0FF33214602F0C1FC08B94F
:1009F00023681BB90F4B13485B6898472068142283
:100A0000002104F096FC4FF46863636008E0B3F5DE
:100A1000683F0DD83A2B03D040F6BA629342DED13C
:100A2000206804F08CFB636843F03A03636010BDF8
:100A3000054AF3E7D8000020485900002C5F5CA964
:100A4000DC0700206E5900003A00003A08B506495C
:100A500006484023142204F022FBBDE80840044964
:100A6000044803F0ADBB00BFDC020020DC0700201F
:100A70001056000024560000014910220A607047F9
:100A800010ED00E072B6404080F31188BFF36F8F25
:100A9000BFF34F8F30BF62B6BFF36F8F704700BF99
:100AA00072B6494081F31188BFF34F8F20BF80F3A6
:100AB000118862B6704700BF37B505460C46C9B10C
:100AC0008B680093D1E900230E48452104F067F8B4
:100AD00063690093D4E903230B48452104F05FF8D0
:100AE000E2690A48452104F05AF8A26908484521FC
:100AF00004F055F82146284603B0BDE8304002F026
:100B0000D7BA00BF9B590000CF590000035A00001C
:100B1000175A000040B2002807DB044A41090123AC
:100B200000F01F00834042F82130704700E100E0F0
:100B300040B200280CDB4309064900F01F002033B7
:100B40000122824041F82320BFF34F8FBFF36F8F04
:100B5000704700BF00E100E0054B420900F01F00B4
:100B600053F82220012303FA00F01040704700BF21
:100B700000E100E040B20028A8BF00F1604001F1B0
:100B80000101B8BF064B4FEA4111ACBF00F561400F
:100B900000F00F00C9B2B4BF195480F800137047B9
:100BA00014ED00E030BFFFF7FDBF00BF0B4A08B5F2
:100BB0000B4B22F07F029A60BFF34F8FBFF36F8F12
:100BC000D3F8882022F47002C3F8882002F0FEFADD
:100BD00003F0DCF800F022FB02F04AFB000000000A
:100BE00000ED00E0094A0A499368096899670949D4
:100BF00058674B6843F080534B60002383F31188A0
:100C0000BFF36F8F9368986F704700BF4C09002047
:100C10002C57000000ED00E015498A684FF03000C5
:100C20001044EFF3098C80E8F01F202080F3128835
:100C3000BFF36F8F0F4F4FF000664A698A603E60C6
:100C40004FF07004141920680B4C2060506F002383
:100C5000536780F3118804B5104600F08DFBBDE8A2
:100C6000044002F1300090E8F01F8CF309887047CF
:100C70004C09002004ED00E0F80700201EF0040FEE
:100C80000CBFEFF30880EFF30980816911F8021CB3
:100C90000229FFD001B503F093FF01BD42F8203CCB
:100CA000009B42F81C3C0A49019B42F8183C029BFD
:100CB00042F8143C21F001014FF0807342F8043CEB
:100CC00042F8081C0023203A02654367704700BFC2
:100CD0005D050000094A0346906870B113F1160FD4
:100CE000006E05D0A0F140029A4205D8834203D29B
:100CF000814228BF00207047002070474C09002027
:100D000008B514460A4A0B4B9060026F1A600D46F4
:100D100000F032FB204685F30988002163B681F399
:100D20001188BFF36F8F00220023FFF717FC00BF6D
:100D30004C090020F807002001B5EFF30580A0F171
:100D400010004FEAC0000449014409C99847BDE8B2
:100D5000014002490847000008540000BD0D000092
:100D6000114B124A2DE9F041D518DFF84480013DBE
:100D7000B5FBF3F55D430F4B08EB0304013CB4FBFB
:100D8000F3F403FB04540E1B07460B49304604F0F2
:100D9000C2FA701942460021083E04F0CAFA3E67C2
:100DA00004F10800BDE8F08101000000000000002F
:100DB0000400000004000000E0550000044B9968A6
:100DC0005869884203D003494FF080520A60704747
:100DD0004C09002004ED00E02DE9F843364D804633
:100DE000894636484521174603F0D9FEAB6ADE0630
:100DF00026D53348452103F0D2FE1124AB6A1D07E6
:100E000004D53048452103F0CAFE12242A4DAB6AAE
:100E1000980717D545212C4803F0C1FE6E6BAB6ACD
:100E2000190645D529483246452103F0B8FEB9F1E7
:100E3000000F03D0AB6A23F08003AB62132403E0FE
:100E40001024DBE76FF015061B4DAB6ADA0704D5FB
:100E50001F48452103F0A3FE1424AB6A9B0604D56A
:100E60001C48452103F09BFE1524134B9A6AD506B6
:100E700002D49A6A90070AD55B68190507D54146DE
:100E80003046FFF727FF10B180F3098802240A4B90
:100E90009A6A920642BF5A6A22F400525A629A6AC9
:100EA00042F0FF029A6200233B702046BDE8F883BF
:100EB0006FF01506C2E700BF00ED00E04A5A0000DF
:100EC000655A00009D5A0000B55A0000D25A000031
:100ED000ED5A0000115B000010B5204C2048452160
:100EE00003F05DFEA36A990136D51E48452103F043
:100EF00056FE1E20A36ADA0104D51B48452103F0E3
:100F00004EFE1F20154CA36A1B0304D5174845212C
:100F100003F045FE2120A36A590304D51448452156
:100F200003F03DFE22200D4CA36A9A0304D511481C
:100F3000452103F034FE2320A36ADB0304D50E48C9
:100F4000452103F02CFE2420044A936A6FEA0343F0
:100F50006FEA1343936210BD1D20CBE700ED00E064
:100F6000455B0000625B00007A5B0000995B00005B
:100F7000BC5B0000E65B0000055C000070B5284C1F
:100F800006460D462748452103F009FEA36AD90409
:100F90003BD52548452103F002FE1720A36A1A0518
:100FA00004D52248452103F0FAFD18201C4CA36A01
:100FB0009B0511D51E48452103F0F1FDA26BA36AE4
:100FC000180408D51B48452103F0E9FD1EB1A36AAA
:100FD00023F40043A3621920114CA36A590504D5D8
:100FE0001548452103F0DBFD1A20A36ADA050ED56A
:100FF0001248452103F0D3FD1B20094A936A43F4AC
:101000007F43936200232B7070BD1620C6E7A36A4E
:101010009B04F2D50A48452103F0C1FD1C20ECE7F2
:1010200000ED00E0355C0000505C00009D5A0000BF
:10103000665C0000845C00009E5C0000BE5C0000FA
:10104000115B00002DE9F041604B5F688AB00446F7
:10105000C7F30806002585F31188BFF36F8F02F0F0
:101060007F43B3F17F4F07D102F00C03082B14D15B
:101070005748452103F093FD00252C464FF000080A
:10108000F31E8DF80780092B00F28D80DFE803F056
:101090000A80847C8B8B8B8B8B8810074CBF0C4613
:1010A0000125EBE74B48494E452103F078FD8DF8CB
:1010B0000780F36A9A0705D54748452103F06FFD7D
:1010C000002333E0F36A002B02DA44484521F5E7B8
:1010D000F36A5B00F4D54248452103F060FD736973
:1010E000A26943F480737361BFF34F8FBFF36F8FB7
:1010F000736932F8022C23F480737361BFF34F8F4E
:10110000BFF36F8F4DF602739A4209D0B36ADBB218
:1011100063B30DF1070201212046FFF75DFE35E0C4
:1011200022683048452103F03AFD23689DF80720E6
:10113000CAB902AE04F1200720686168324603C2D2
:101140000834BC421646F7D1099A002D38D0C2F3B4
:10115000080121B96FEA52226FEA4222099202A9DC
:101160001846FFF7A9FC0AB0BDE8F081B36A13F492
:101170007F4F05D00DF107010120FFF7FFFE05E0CD
:10118000B36AB3F5803F9BD3FFF7A6FE0346CDE7D6
:101190000DF107020021BFE70DF107010020ECE788
:1011A000114845218AE71149114A124817F4F87F7E
:1011B00008BF0A46A6F11003452103F0F0FC7FE7C3
:1011C00022F4FF7222F00102C8E700BF00ED00E048
:1011D000095D0000395D0000555D00007B5D000089
:1011E0008E5D0000B25D0000D35D0000DB5C00009E
:1011F000F05C0000FC5D0000024A536943F01003FC
:101200005361704700ED00E0EFF30880EFF30981D0
:1012100001B57246FFF716FF01BD00BF0448002369
:101220002021C2180133302B82F80013F9D1704706
:1012300000E100E0002080F31488BFF36F8FFFF718
:10124000CDFA00200D490860BFF34F8F0C4880F3A2
:10125000088800F03DF8202080F3118809484FF4F9
:101260000461401880F30988EFF3148002210843D9
:1012700080F31488BFF36F8FFFF798FC94ED00E0C4
:10128000401D0020800F0020BFF34F8F0549064B03
:10129000CA6802F4E0621343CB60BFF34F8F00BF14
:1012A000FDE700BF00ED00E00400FA050749D1F8B2
:1012B00090200023C2F307221846934200DB7047B8
:1012C000C1F89830C1F8A0000133F6E700ED00E066
:1012D00008B572B6002383F31388FFF7E7FF144BBA
:1012E0004FF0FF32C3F88020C3F88420C3F8882071
:1012F000C3F88C20C3F89020C3F89420C3F898203A
:10130000C3F89C20C3F88021C3F88421C3F8882146
:10131000C3F88C21C3F89021C3F89421C3F8982115
:10132000C3F89C2162B6BFF34F8FBFF36F8F08BD28
:1013300000E100E0084B9B6883420BD1EFF305838B
:1013400043B1064B5A6842F080525A605A6A22F4FE
:1013500000425A6202F0BABC4C09002000ED00E0E5
:10136000024B034A0348012100F07CB8000004202E
:101370000000002034560000026E054B403A1A600F
:10138000044A4021C3E901121846012100F074B853
:10139000FC07002000000B15F8B5244E00258D42F7
:1013A0000FDA4468002C3ED09BB104F1FF3C14EAF4
:1013B0000C0F08D01E482A46452103F0F0FB6FF0C1
:1013C00015021046F8BD1F2CF4D907681CEA070F58
:1013D000F0D1202C0768D0F808C05FFA82FE10D93F
:1013E000B4F1004F0FD8013CB4FA84F4C4F11F04E7
:1013F0006400BEF1070F4CEA040C06D90D484521E4
:10140000DBE70824F5E73E24F3E727F01F04144345
:1014100044F01004C6F89820C6F89C404CF0010433
:10142000C6F8A040013201350C30B8E700ED00E00D
:10143000185E0000405E0000044B0522C3F89420B3
:10144000BFF34F8FBFF36F8F704700BF00ED00E019
:10145000BFF35F8F024B0022C3F89420704700BF98
:1014600000ED00E010B5034C01232278FFF794FF54
:10147000207010BD540B002008B5094A00231278D3
:10148000FFF78AFF10F1160F03D0064B0022072842
:1014900000DD08BDC3F89800C3F8A0200130F6E7CE
:1014A000540B002000ED00E014490868082810B52E
:1014B00021D8FFF7CDFF124C49680022904201F17C
:1014C0000C0105D10F4B1870FFF7B6FF002010BDBF
:1014D000C4F8982051F80C3C23F01F03134343F049
:1014E0001003C4F89C3051F8043C43F00103C4F8E5
:1014F000A0300132E2E74FF0FF30E8E7405600004D
:1015000000ED00E0540B002008B5024B1B68984723
:10151000002008BD08080020034B044A1860937897
:1015200043F0020393707047080800202400002055
:1015300008B50649064821F00701C1F1005202F53D
:10154000802203F015FA002008BD00BF931D002083
:10155000801D00200E4A0123C2F840354FF0804222
:101560004FF08051C2F87835D1F83001082808D101
:10157000D1F83411052904D80648415C09B1C2F8F4
:1015800038364FF080430122C3F880250020704791
:1015900000E001407A5E000020B1034B800143F07F
:1015A00001031847704700BFF0550000084B70B5A5
:1015B000C31A0D4607499B1004465943064840226A
:1015C00003F02EFB2B4601462046BDE8704018472D
:1015D00020080020B76DDBB6B853000073B50C4C83
:1015E0000C4A4023041B00930D460B460A49A410E5
:1015F00061430646094803F03FFB011E05DA304609
:101600002B4602B0BDE87040184702B070BD00BF65
:1016100020080020E34C0000B76DDBB6B853000093
:10162000002270B5012104461046FFF7A3FA0F48C7
:1016300001F0EEF80E4B984215D103F05CFC2669E0
:101640000C49304603F021FA00280BDB01253564F4
:101650002469084904F11C0003F017FA002801DB93
:10166000E564002070BD6FF00400FBE7AD160000DC
:101670000000AD0B6056000070B501460C23094810
:101680004B43C418D4E90E56403300221844A263D9
:1016900003F0B3FA2DB132462B460348BDE8704043
:1016A000184770BD20080020B853000010B1012871
:1016B00004D07047034B1B6C5B0701D1FFF7DCBF05
:1016C000704700BF2008002008B54FF02003EFF35B
:1016D000118183F31288BFF36F8F124A136843F0AE
:1016E00002001060DA0708D481F31188BFF36F8F0E
:1016F0000120BDE8084003F00BBC4FF08043D3F855
:101700000C24D3F80C34DB07EED5074803F075FA48
:1017100081F31188BFF36F8F0020BDE80840FFF709
:10172000ABBF00BF70080020600800201FB500227A
:101730000123CDE90223094ACDF800D06B46CDF84C
:1017400004D003F0C7FA002805DB4FF480420023E1
:10175000684601F0B1FF05B05DF804FB014D0000E3
:1017600010B54FF02003EFF3118483F31288BFF319
:101770006F8F074A136823F00201DB07116002D460
:10178000012003F001FC84F31188BFF36F8F10BDBB
:10179000700800202DE9F0413849BFF35B8F074600
:1017A000012251E8003F41E800200028F9D1BFF3B1
:1017B0005B8F33B9324933484B60CB608A6003F0AA
:1017C00077F97B1E012B2BD8012F07D14FF08043D7
:1017D000D3F81C3403F00303012B21D003F093FC56
:1017E0000546F8B9284B1B78E3B14FF0804302223D
:1017F000C3F808230646DFF894804FF08044D4F8FD
:101800001824D4F81834D20316D503F00303012B9F
:1018100001D0012F10D15DB386F31188BFF36F8F14
:10182000BDE8F0814FF02003EFF3118683F31288B7
:10183000BFF36F8F0125DEE7ADB13046FFF730F91A
:10184000D4F81835002BDAD1D4F80421002AD6D0E8
:10185000C4F80431D4F804310123C4F81835C8F8A9
:101860008031A360CBE70021212002F00FFAE7E7E7
:101870004FF080430222C3F80423D1E71C08002064
:101880000C0800203C080020670F002000E100E069
:1018900008B5074803F0DEFB38B10648FFF73CFE09
:1018A0000448FEF73DFE002008BD6FF01200FBE784
:1018B000F4530000B91800000A2838B5074D044653
:1018C00004D1AB680D215B6828469847AB68034894
:1018D0005B68E1B29847204638BD00BFF453000072
:1018E00030B54068057B01F01F04B2F5001F85B0DC
:1018F00044EA451405D1204601F066FA002005B0FF
:1019000030BD0025B2F5800FCDE9025514D1B3F1F9
:10191000007F0CBF042305238DF8083000231946EF
:1019200002AA204601F06CF8234B98423DD10121D8
:10193000204601F0FBF9E1E7B3F1C06F27D0B3F126
:10194000007F14BF012302238DF80830836823FA37
:1019500001F111F00101E1D1B2F1A07FDED104F07B
:101960001F03620903F5E07313D0012A20D1134A43
:1019700052F82330DB07D1D40DF107052946204664
:1019800001F07EF90E4B984206D00395C6E703237B
:10199000DAE74FF0A042EBE7284601F0C1F9064B29
:1019A0009842F2D06FF00B00A9E76FF01500A6E7A0
:1019B00051F82330FFDE00BF0000AD0B00030050E4
:1019C0000400AD0B10B501F09BF9044668B901F0B5
:1019D0006FF9084B98420AD10748214601F04AF9AD
:1019E000224605210620FFF7C5F8002010BD6FF044
:1019F0000400FBE70000AD0BFD190000420970B5C3
:101A0000034602D0012A17D070BD0D4E32695168CD
:101A10000029F9D003F01F0301250C689D4000291F
:101A2000F2D08A682A4002D04B68304698472CB1E1
:101A3000236821461C46F2E7024EE7E72346F8E713
:101A4000E0530000CC5300002DE9FF4147683B7B89
:101A500001F01F0545EA43150E4628460DF1070122
:101A6000144601F00DF914F4403F80460DD128468C
:101A700001F0D0F93D4B984503D19DF8070001F0E6
:101A800049F9002004B0BDE8F0810023194602AAFC
:101A90002846CDE9023300F0B3FF344B984214D10D
:101AA000804503D19DF8070001F034F9A3034ED51A
:101AB00040F206332340B3F5837F1AD00DD8062BAE
:101AC00018D005D8B3B1022B33D06FF01500D9E789
:101AD000B3F5807FF9D101230CE040F2022293425A
:101AE00029D0B3F5407F28D0B3F5007FEDD1022394
:101AF00000E007238DF8083084F48033C3F30043FB
:101B0000E0068DF8093054BFC4F3401303232103CA
:101B10008DF80A3013D57A680123B340C2F808352E
:101B2000002202A9284601F02BF8104B9842A8D0B9
:101B3000CBE70423DEE70523DCE70323DAE76203D0
:101B400041BF01237A68B340C2F80C35E8E7E306E9
:101B50004FF0000354BFC4F3401403241A4602A9F3
:101B600028468DF8084000F04BFFDEE70000AD0B83
:101B7000036803F01F025B09026004D0012B0348D5
:101B800018BF002070474FF0A0407047000300507E
:101B90002DE9F04FDFF8849185B01546824600EBC1
:101BA00081014FF00108514503D1002005B0BDE887
:101BB000F08FDAF8003003F07F04C3F343277F2C63
:101BC0004FEA134308BF4FF0FF34222B00F2A380EB
:101BD000DFE803F012232B442E3544A1A1A1A14735
:101BE00073A1A1A1A1A1A1A1A1A176818487A1A195
:101BF000A18A909396999C00C5F80C45601C1BD057
:101C000003A80394FFF7B4FF039B08FA03F3C0F89B
:101C1000083501264FF0010B2CE0C5F81445631C74
:101C20000AD000264FF0000B24E0C5F80845E5E790
:101C3000621CC5F808456CD10AF1040AB3E7631CBD
:101C4000C5F80C45F8D0012603A80394FFF790FFD0
:101C5000039B08FA03F3C0F80C35DBE7C5F8104521
:101C6000DDE7C5F80845002FD9D1671CE4D0002670
:101C7000B3460627DAF80030019303F40052002A35
:101C800003A81CBF01264FF0000B0394FFF770FF61
:101C9000039A019B00EB8200C3F3C114D0F8002724
:101CA0003B0243EA840343EA0B0302EA09021343BB
:101CB00043EA4603C0F80037BEE7C5F80C45D2E753
:101CC000C5F86045661CDAF80030B5D0C3F3803340
:101CD000002BB8D094E7C5F86445F3E7C5F868452C
:101CE000F0E7C5F86C45EDE7C5F82445621CA3D0C4
:101CF000012697E7C5F8284580E7C5F83045F5E7A0
:101D0000C5F83445F2E7C5F83845EFE7C5F83C4576
:101D1000ECE7002698E76FF0850047E7F0F8FCFF56
:101D2000F0B54B79012B26D0032B21D110258B79CF
:101D3000032B1DD1CE790EB1012E19D10A7912B122
:101D4000022A15D10E220B684468B3F5164F276896
:101D500067D02DD8B3F5165F66D016D8B3F5966F59
:101D600064D00AD8B3F5967F63D0B3F5167F63D0FD
:101D70006FF0850054E00025D9E7B3F5166F5ED00B
:101D8000B3F5965FF4D1384B3CE0B3F5E14F59D051
:101D900007D8B3F5615F57D0B3F5964FE8D1334B11
:101DA00030E047F61224A342E2D14FF4000329E0C9
:101DB000B3F5613F4AD013D8B3F5963F49D009D85F
:101DC0004DF6C024A34246D0B3F5614FD0D14FF4B5
:101DD0006B0317E0B3F5E13FCAD14FF0EB7311E0AD
:101DE000B3F5612F3AD008D8214CA34239D0B3F5CE
:101DF000E12FBDD14FF0E86304E01E4CA342B7D100
:101E00004FF080530469C7F82435436835431B6895
:101E10002A43C3F86C2503C9231D83E8030000206F
:101E2000F0BD4FF41D03EDE7134BEBE74FF49E239A
:101E3000E8E74FF4A033E5E74FF41C33E2E74FF453
:101E40001D23DFE70D4BDDE70D4BDBE74FF06C7338
:101E5000D8E70C4BD6E74FF46503D3E74FF0706338
:101E6000D0E74FF08063CDE700B0130000A04E0034
:101E700090D0030040420F000050270000C07500C2
:101E800000F03A0000903A012DE9F7438046002225
:101E900001210220FEF76EFE0220FEF73BFED8F87D
:101EA0000470D8F810603C680021C4F80015C6F82A
:101EB0000080D7F80C9001AA484602F079FF051E71
:101EC0001EDB019BD9F8002019791868FFF760FE26
:101ED000051E15DB311D4046FFF722FF054678B988
:101EE0007B6899071CD506F1180001F0A7F8204B74
:101EF000984209D01F48452102F051FE6FF00405B9
:101F0000284603B0BDE8F083307E04F10C0204F5EE
:101F1000907102F0E6FF337E0120984000F010FC43
:101F20000823C4F800353B7A53B9C4F81031D4F80B
:101F300010317369C4F834350123C4F8383523608F
:101F40007B689A075CBF4FF48073C4F804337B68E6
:101F5000DB0644BF4FF48003C4F804333369C4F88C
:101F600044350023C4F848350123A360E360C7E784
:101F70000000AD0BC95E0000F8B5044607690D46C8
:101F800003F0C1F8B0B92E4B1B789BB16426606892
:101F900002F044FF00BB012002F0A1FF013EF6D198
:101FA0000021212001F072FEF0E786F31188BFF3D3
:101FB0006F8FF5E74FF02003EFF3118683F312885C
:101FC000BFF36F8F6068314602F028FF90B986F347
:101FD0001188BFF36F8FEDE74FF02003EFF3118609
:101FE00083F31288BFF36F8F6068314602F016FFEB
:101FF0000028DAD03B691D70626838691368C3F83D
:1020000044050120C3F848050020C3F82001D3F897
:102010002051C3F858015268D3F85801D20608D5A8
:10202000626812680820C2F800054FF48002C3F805
:10203000042301229A6081F31188BFF36F8FF8BDEA
:10204000670F002070B5012383400E4ABFF35B8FFA
:10205000DC4352E8001F01EA040542E80056002E66
:10206000F7D1BFF35B8F4FF4803282400648C0F84F
:102070000823BFF35F8FBFF36F8F0B4214BF0120A4
:10208000002070BD900800200010014070B40E497F
:10209000D1E90034D01AC31844F1000422F07F467D
:1020A000C1E90034A6F50013B3F5400F09D2074B80
:1020B0001B681A0A1B069C19054B42F10005C3E96F
:1020C000004570BC01F038BFA0010020940800203A
:1020D000A801002011B3BFF35B8F0123104A834096
:1020E00052E800CF4CEA030C42E800C10029F7D1C6
:1020F000BFF35B8F0B4A4FF480338340C2F8043345
:10210000094BBFF35B8F1B68BFF35B8FC340DB07DB
:1021100042BF064B4FF40032C3F80021704700BFA6
:1021200090080020001001408C08002000E100E031
:102130000D4B1868010A0006BFF35F8F0B4BD3F8F5
:102140000435181841F10001B3F5801F0AD2084B7D
:10215000D3E90023904271EB030303D210F18070A6
:1021600041F10001704700BF9408002000100140B9
:10217000A80100202DE9F04F85B016461F469DF8B6
:1021800040A00446FFF75EFF0190FFF7D1FFB04289
:1021900071EB070354D23E4B301A67EB01019842B2
:1021A00071F100014FD23B4B03EB0413D3E902233F
:1021B0009F4208BF96425ED037494FF4803804F101
:1021C000500508FA04F8AD00C1F848832046ADB2C6
:1021D00002F06DFE26F07F4B05F1804504F5A873F3
:1021E00005F58835DC464FF003090293029A2CF07E
:1021F0007F4341F82230C1F84483D1F80435274A9F
:102200006FF00200C01A604420F07F40904232D943
:10221000286868B1D1F804350393A3EB0B0020F0D4
:102220007F40B0F5000F26D9204602F040FE039B08
:10223000BAF1000F07D109EB030C09F10109D5E749
:10224000BAF1000F09D06FF0150520460199FFF78C
:1022500041FF284605B0BDE8F08F0123104ABFF3C7
:102260005B8FA34052E8000F184342E800010029A9
:10227000F8D1BFF35B8F07490E98230101EB0412DD
:10228000C8500F9B5360C2E902670025DDE700BF1D
:10229000010080009001002000100140FDFF7F0040
:1022A0008C0800207FB51C4C1C4BC4F80833C4F8C4
:1022B00048331B4B00254FF0FF304FF0FF31C4F87F
:1022C0000855C3E902014FF48033C4F80433154BB9
:1022D00002264FF400320121C4F804631120C3F830
:1022E00080212A46FEF746FC1120FEF713FC0E4A19
:1022F0000123A360236013600C4B0D4A0093CDE9CA
:10230000015500232846FFF735FF3046FFF742FA14
:10231000284604B070BD00BF0010014003000F004C
:102320009001002000E100E0900800208D200000D6
:10233000FFFF7F002DE9F7432F4CD4F804339907B2
:102340000BD5D4F8043143B12C4A0023C4F804312E
:10235000D4F80431136801331360D4F80433DA037A
:102360002AD5BFF35B8F264B53E8002F22F00101E3
:1023700043E800100028F7D1BFF35B8FD30702D4E6
:10238000D4F84031C3B10025C4F84051D4F84031ED
:10239000FFF7CEFE4FF02003EFF3118283F3128894
:1023A000BFF36F8F174BD3E90267B042B94106D232
:1023B00082F31188BFF36F8F03B0BDE8F0834FF055
:1023C000FF384FF0FF39C3E90289D3E900101D60DF
:1023D0004FF48033C4F84833C4F84051D4F8403146
:1023E00082F31188BFF36F8F0029E5D00090324649
:1023F0003B4628468847DFE700100140940800204C
:102400008C080020900100201FB5431C23D0012818
:1024100023DD134A134B9042D4BF04461C46FFF7FA
:1024200087FE114B0F49D3E90023801AB0F5000F46
:1024300028BF002404448C4228BF0C46A2180B4934
:1024400000914FF00000CDE9010043F10003FFF7D8
:1024500091FE04B010BD034CE1E70124DFE700BFAB
:10246000FEFF7F00FFFF7F00A00100208D20000005
:1024700008B5FFF75DFE024B1B68C01A08BD00BF20
:10248000A001002010B5084C012363601120FEF765
:102490004FFB064BC4F80833C4F84833044B4FF4E1
:1024A0000032C3F8802110BD0010014003000F006E
:1024B00000E100E0034808B5452102F070FB002070
:1024C000FEF7E2FE0B5F00004FF08053D3F830219F
:1024D000082A06D1D3F83431052B02D8024AD05C41
:1024E00070470020704700BF335F0000024AD2F8F7
:1024F0000034002BFBD0704700E0014010B54FF0D6
:102500008053D3F83021082A4ED14FF08042002169
:10251000C2F80C11C2F81011C2F8381502F5404289
:10252000D3F80414C2F82015D3F80814C2F82415FF
:10253000D3F80C14C2F82815D3F81014C2F82C15CF
:10254000D3F81414C2F83015D3F81814C2F834159F
:10255000D3F81C14C2F84015D3F82014C2F844155F
:10256000D3F82414C2F84815D3F82814C2F84C152F
:10257000D3F82C14C2F85015D3F83014C2F85415FF
:10258000D3F83414C2F86015D3F83814C2F86415BF
:10259000D3F83C14C2F86815D3F84014C2F86C158F
:1025A000D3F84434C2F87035FFF78EFF18B13A4BB8
:1025B0003A4AC3F88C26FFF787FF18B1384BFB2245
:1025C000C3F81825FFF780FF70B14FF080414FF03E
:1025D0008053D1F8E42ED3F8583222F00F0203F0E2
:1025E0000F031343C1F8E43EFFF76EFF20B12D4BFC
:1025F0004FF40072C3F840264FF08053D3F83031C7
:10260000082B1AD14FF08043D3F80024D20744BFDF
:102610006FF00102C3F800244FF08053D3F8343137
:10262000052B02D8204AD35C3BB14FF01023D3F8DE
:1026300008224FF08043C3F858254FF01023D3F8F9
:102640000022002A03DBD3F80432002B22DA1749D8
:1026500001234FF01020C1F804351224FFF746FF84
:10266000C0F80042FFF742FFC0F80442FFF73EFF08
:102670000023C1F80435FFF739FFBFF34F8F0C4932
:102680000C4BCA6802F4E0621343CB60BFF34F8F78
:1026900000BFFDE710BD00BF0050004048810300AF
:1026A00000F00040009002402D5F000000E001407B
:1026B00000ED00E00400FA0530B50468CCB1BFF3CA
:1026C0005B8FB4FA84F3C3F11F03DBB201229A409B
:1026D00024EA020250E8005FA54204D140E8002C41
:1026E000BCF1000FF6D1BFF35B8FE6D102480B704F
:1026F00030BD0248FCE700BF0000AD0B0200AD0B8F
:1027000010B50368CB40DB0714D401238B4002686B
:10271000BFF35B8F43EA020150E8004F944204D1BB
:1027200040E8001CBCF1000FF6D1BFF35B8FEED187
:10273000014810BD0148FCE70000AD0B0400AD0BE3
:10274000014BC3F80405704700F00140F7B504469B
:1027500018B1012823D003B0F0BD4FF0804302220E
:10276000C3F80823C3F80401D3F804210122DA6076
:10277000064601238DF8073042F210754FF080476E
:10278000D4B1012CE7D1D7F80C3403F48033AEBBBD
:1027900083B3012002F0A3FB013DF4D12AE04FF006
:1027A00080430022C3F80803C3F80021D3F80021B6
:1027B00058600DF10706DCE7D7F8183403F48033CE
:1027C0003EB9002BC7D0012002F089FB013DF3D1B7
:1027D000C1E7D7F8182402F003023260002BBAD008
:1027E0009DF80700012803D102F079FB013DC7D114
:1027F000012CB0D1054B00225A71ACE7D7F80C245C
:1028000002F001023270002BEAD1F3E798080020B1
:10281000044B1A7922B9012218609A800248704745
:1028200002487047980800200000AD0B0C00AD0B6B
:1028300010B54FF08043D3F800216AB10022C3F8ED
:102840000021D3F800210122C3F80823114B587945
:1028500010B95A711B6898474FF08043D3F8042190
:1028600072B10022C3F80421D3F80421D3F818244C
:10287000D3F81824920704D10122C3F818259A60CE
:1028800010BD0222C3F80823024BBDE810401B68AC
:102890000120184798080020036803F01F025B0915
:1028A000026004D0012B034818BF002070474FF08E
:1028B000A040704700030050034A430900F01F0086
:1028C000D35C1844C0B27047445F000008B5FFF7FE
:1028D000F3FF034B083033F81000C0F3401008BD7D
:1028E0005000002008B5FFF7E7FF034B083033F82E
:1028F0001000C0F3400008BD5000002008B5FFF7ED
:10290000DBFF034B083033F81000400B08BD00BF5D
:102910005000002070B50546FFF7CEFF0C4C083084
:102920000E4634F81030DA0508D5C3F3432304EB20
:10293000C302284654F8333052689847A3682BB135
:10294000E26831462846BDE87040184770BD00BFB8
:102950005000002010B5FFF7AFFF124A083032F8E0
:102960001030D9051CD5C3F3432123F4F85322F8C2
:10297000103002F10E04002034F8023F13F4807F7F
:1029800003D0C3F3432399420AD001303028F3D156
:10299000002342F831300448BDE81040FFF7B0BED4
:1029A00010BD00BF50000020C4000020F0B501465B
:1029B000104A114C00200125064602F14043A3F5C0
:1029C000C2439B0805FA03F3194204D0176817B1F4
:1029D0001660176818430432A242EED1074BD3F8B1
:1029E0007C2132B10022C3F87C21D3F87C3140F045
:1029F0000040F0BD006100402061004000600040E8
:102A00002DE9F04385B0054690461E46FFF754FF7A
:102A1000044609B32846FFF765FF18B12846FFF7BB
:102A200055FF38BB0023CDE900338DF80E308DF80B
:102A30000F300DF10F020B4628460DF10E0102F08A
:102A4000A5FA4A4A04F1080132F8113023F00203D2
:102A500043F0010322F81130B8F1000F31D02846BD
:102A600098F80070D8F80490FFF73CFF20B1B9F156
:102A7000000F1BD03E4826E03C4B04F1080C33F815
:102A80001C1021F02001C904C90C23F81C10B9F155
:102A9000000F0BD0032FEDD8D8F8042092F800E0F7
:102AA000A7B9344B0EF5A27E43F82E702F4A04F1DD
:102AB000080132F8113023F01C0343EA870322F89F
:102AC00011304EBB2C4805B0BDE8F0834FEA8E02B2
:102AD00002F1804202F5C04241EA4E31D2F81005BF
:102AE00020F00300C2F81005D2F8100520F44F3092
:102AF00020F44070C2F81005D2F81085280200F4C6
:102B00007C5040EA080040EA074041F0200123F8E9
:102B10001C10C2F81005C9E7D6E900762846FFF771
:102B200019FF002FCED0114DD5E90023974201D1D6
:102B30009E4218D011480DF10F01FFF7BDFD0E4B5D
:102B40009842C0D19DF80F2045F8327005EBC203C2
:102B500008345E6035F8143043EA422343F480734E
:102B600025F81430AEE70022EEE700BF5000002049
:102B70000400AD0B006000400000AD0BC40000205D
:102B80002DE9FF4104461646FFF796FE054631B390
:102B90002046FFF7A7FE20B92046FFF797FE002842
:102BA00060D1314F05F1080837F8183013F01C0FC9
:102BB00002D04B78012B55D001238DF80F30002324
:102BC000CDE900134A1C8B1C20460DF10F0102F0C9
:102BD000DDF937F8183043F0030327F818301EB931
:102BE000224804B0BDE8F0812046FFF77BFEC8B361
:102BF0001D4F96F800C005F10800614637F81050E7
:102C0000890025F0200501F18041ED0401F5C04166
:102C1000ED0C27F810500023C1F810357278002A07
:102C2000DED0D1F81035B67823F4991323F4F85395
:102C3000C1F8103512042302D1F810E502F4403235
:102C400003F47C531343320543EA0E0302F480126B
:102C500045EA4C35134345F0200527F81050C1F8DC
:102C60001035BDE70248BCE7500000200000AD0B66
:102C70000400AD0B014BC3E9020170475000002076
:102C800010B50446FFF722FE50B12046FFF714FEB0
:102C9000044B083033F8103003485B0B0B7010BD49
:102CA0000248FCE7500000200000AD0B0400AD0B13
:102CB00070B50F4C94F87860BEB90E4D6022314665
:102CC00004F1100002F035FBC5F87C610620D5F850
:102CD0007C31FDF71FFF4FF00043C5F80433064871
:102CE000012384F87830636770BD0448FCE700BFB7
:102CF00050000020006000400000AD0B0500AD0B4F
:102D0000034B93F87800003818BF0120704700BFCC
:102D10005000002001460148FFF7F2BCC00000202F
:102D200001460148FFF7C8BCC000002037B5044683
:102D3000FFF7CCFD08B32046FFF7D4FD0546E0B908
:102D40002046FFF7DBFD03B29B0003F1804202F552
:102D5000C24203F1804303F5C04315601268D3F803
:102D6000102542F00102C3F8102521B1144A0123B5
:102D70008340C2F8043303B030BD2046FFF79CFD0A
:102D8000104B083033F81030C3F38203042B12D0F9
:102D9000052B12D001A80194FFF77EFD019BD0F80E
:102DA0001015D94001F001010231204603B0BDE801
:102DB000304002F034B90321F7E70221F5E700BF04
:102DC000006000405000002010B50446FFF77EFD73
:102DD000C0B12046FFF786FDA0B92046FFF78EFD63
:102DE0000B4A01238340C2F8083303B29B0003F16E
:102DF000804303F5C043D3F8102522F00302C3F843
:102E0000102510BD20460021BDE8104002F007B992
:102E10000060004073B50446FFF74EFD184E00F108
:102E2000080536F81530DB0727D52046FFF7CCFF1D
:102E30002046FFF74BFD40B12046FFF75FFD114BE9
:102E400000F5A270002243F820202046FFF782FD03
:102E5000002301A826F815300194FFF71DFD019B02
:102E600000EB8300084BD0F80027134043F0020327
:102E7000C0F80037054802B070BD0548FBE700BF49
:102E80005000002000600040F0F8FCFF0000AD0B97
:102E90000400AD0B2DE9F04F644BD3F80403C0B22E
:102EA00085B040F00040FFF781FD051E80F2A18053
:102EB0004FF0A043D3F820250292C3F82025D3F881
:102EC00020280392C3F820280DF108084FF00009CC
:102ED000574B09EB030B4FE093FAA3FA9BF8004022
:102EE000BAFA8AFA4AEA44142046FFF7E5FC514B45
:102EF000019408304FEADA0233F810700AF0070341
:102F00000120984018F8023023EA000308F8023044
:102F100001A8FFF7C1FC019B03F5E073B90850F865
:102F20002330C7F38206C3F3014A4B0737462FD538
:102F300020463146FFF7EEFC01A80194FFF7ACFCF8
:102F4000019B03F5E0735FFA8AFA50F82330C3F36C
:102F500001439A4507D10021204602F060F851460E
:102F6000204602F05CF801A80194FFF795FC019A55
:102F700001239340C0F82035D8F80030002BABD1A6
:102F800008F10408B9F1000F1DD14FF001099FE7C6
:102F9000BAF1020F0CD10321204602F040F806F0EE
:102FA0000503012BDFD139462046FFF7B3FCDAE7F2
:102FB0000221204602F033F8032EF4D0BAF1030FB9
:102FC000D1D1022EEEE74FF00040FFF7EFFC4FF0BB
:102FD000A0421949D2F820350293C2F82035D1F821
:102FE000202503921343C1F820257FF46DAF25F00F
:102FF0000045012415B905B0BDE8F08F95FAA5F399
:10300000B3FA83F304FA03F29B0003F1804303F560
:10301000C04325EA0205D3F81005D3F81015C0F314
:103020000520C1F30141FFF775FCE3E700600040B4
:10303000545F00005000002000030050014601488A
:10304000FFF73ABBCC00002008B5144BA8220021A2
:10305000184602F06EF90322026111494261114AD9
:103060008161C2614FF48062026200228262426228
:10307000C26201660C4941661021816603460267FF
:10308000C2664267BFF35F8F084911F8010D98547B
:103090000132102AF9D1BFF35F8F08BDA0080020CC
:1030A0006B5F0000670B0020570B0020845F00005F
:1030B000F7B504460D464FF02003EFF3118783F375
:1030C0001288BFF36F8F02F03DF91A4B042C1E5883
:1030D00096BF194B194B53F824301948002200921F
:1030E0004521224601F05BFD3DB1EB69C3F30803C6
:1030F0001BB11448452101F052FD36B1304602F0B3
:1031000008F8034608B1027802B90F4B0F4832465F
:10311000452101F044FD29462046FFF7CBF987F30E
:103120001188BFF36F8F304603B0BDE8F040FEF763
:1031300001B900BF0800000030570000855F0000A3
:103140009B5F0000C85F0000935F0000EE5F00001F
:10315000104B70B553F82040013053F82060A64260
:1031600000D870BDD4E9003595B153B128469847D1
:1031700038B10028B8BF4042EB68FF28A8BFFF2045
:103180001870EA68537843F0010353700834E6E797
:103190009847FBE74457000008B50A4B012203207B
:1031A0001A70FFF7D5FF00F04BFF0420FFF7D0FFA8
:1031B00000F04CF9FDF72AF9034A137B23F00103D1
:1031C000137308BD670F00203002002008B50348C4
:1031D000034A0021121A01F048FF08BD90010020A7
:1031E0006C0F002070B5002386B00122CDE90423C6
:1031F000194E1A4D01930F22CDE9023218491423BA
:1032000003FB005506EBC01604464FF4C070154B87
:1032100000954FF4A07200FB0411304600F0D6F880
:10322000737B114AEE6023F0040373734FF404635D
:1032300004FB033313446B600C4B2C74BFF35B8FA4
:1032400053E8001F013143E80012002AF8D1BFF310
:103250005B8F06B070BD00BFB00100204C0900209C
:10326000C017002017510000800F002048090020DF
:1032700080B50020A6B0FFF76BFF2D4B83F30888C5
:103280002C4D2D4E6B692D4F43F400736B61002460
:10329000E02385F82230EC772C766C76AC7685F8D6
:1032A00020406B6A43F4E0236B6285F82340FDF70E
:1032B000A3FFFDF7E1FB4FF0FF33AB62EB62FEF7DC
:1032C000F3F8FEF74DF840F20113ADF8243006ABE9
:1032D000B360CDE91E44219401F0BBFE0120FFF74D
:1032E00037FF0220164DFFF733FF00F045FC154B6A
:1032F00075610593012314490094CDE903434FF40C
:1033000080623B46CDE90144284600F05FF86A7BC5
:10331000064622F0040228466A7301F051FF204657
:10332000FFF760FF3A4631462846FDF7E9FC00BF4B
:10333000C017002000ED00E04C090020993100008A
:1033400030020020556000004019002038B5064CBE
:10335000064D0020AC4200D338BD204601F089FE66
:103360000028F9DB1C34F5E7400100204001002073
:1033700073B50C464FF02005EFF3118185F31288E9
:10338000BFF36F8F45695DB125602B684361836929
:1033900001338361002081F31188BFF36F8F11E047
:1033A00052EA030603D125606FF00B00F3E7CDE985
:1033B00000230246083000F0E9FA18B9024B9B6876
:1033C0005B69236002B070BD4C0900202DE9F04319
:1033D00085B00732994600F1580322F00706C0E98C
:1033E0001633109B037306F1400504230027437333
:1033F0000D440F9B83738846C0E906772946876092
:10340000C7730446FDF7ACFC08F140030730C4E97C
:10341000183620F007000E9BA06602930D9B0193C7
:103420002D1A0C9B00932A464B4641462046FDF739
:1034300035FC054B67659B6803B1DB6EE366284688
:1034400005B0BDE8F08300BF4C0900202DE9F04332
:10345000294C2A4D87B02646AE4204F12C040FD3E6
:1034600000F05AFB244CDFF898904FF4004640F2ED
:10347000E737AC4220D307B0BDE8F04300F060BBB3
:1034800054F8043C059354F80C3C049354F8103C55
:10349000039354F8143C029354F8183C019354F8E5
:1034A0001C3C009354E9092354E90B01FFF78EFFFC
:1034B00054F82C3C5E65CEE7636A5A1C0DD023EAB3
:1034C000E37300213846C3FB060151EAC333D4F845
:1034D000008004D1404600F0CFFA2C34C9E74FF405
:1034E0007A720023FCF70CFE02460B4608F1180026
:1034F000494600F0ABFCF0E7885500008855000015
:10350000255200002DE9F341044617461E464FF0B0
:103510002003EFF3118883F31288BFF36F8FC36822
:10352000334A7BB180689168884219D057EA060314
:1035300018D188F31188BFF36F8F6FF00F0002B0BE
:10354000BDE8F081916891F90E1021610133E360CB
:103550009368A36088F31188BFF36F8F0020EEE7B4
:103560002169F2E791F90E1090F90E309942A8BF47
:1035700019466FF07E029142B8BF11468B422EDD94
:1035800001F0D5FD0546CDE900761A4822464146B0
:1035900000F0FCF90028E1D04FF02003EFF3118692
:1035A00083F31288BFF36F8FA068D0B123682169BD
:1035B0009C420AD04BB193F90E309942A8BF1946EC
:1035C0006FF07E039942B8BF194601F0B0FD40B1DB
:1035D0000848314600F03EFA6FF00A00AFE70025D8
:1035E000D1E7002DF4D186F31188BFF36F8FF3E795
:1035F0004C090020680F002038B5836804466BB37F
:10360000194A926893422CD1C368012B03D9013B1C
:10361000C360002038BD4FF02003EFF3118583F322
:103620001288BFF36F8F0169806801F080FD20462A
:1036300001F0FCFDA06058B190F90E20226100223B
:10364000826701F0BDFD0948294600F003FAE0E772
:10365000E06085F31188BFF36F8FDAE76FF0150034
:10366000D8E74FF0FF30D5E74C090020680F002065
:1036700038B504464FF02003EFF3118583F3128829
:10368000BFF36F8F01F0D2FD48B10022826701F0D5
:1036900097FD29460748BDE8384000F0DBB9D4E97A
:1036A00002329A4218BF0133A36085F31188BFF339
:1036B0006F8F38BD680F002013B54FF02004EFF373
:1036C000118184F31288BFF36F8F846844B1013C89
:1036D000846081F31188BFF36F8F002002B010BDAA
:1036E00052EA030406D181F31188BFF36F8F6FF0A4
:1036F0000F00F3E7CDE900230246024800F046F947
:10370000ECE700BF680F0020C3897F2B12D80A4B5B
:103710001B6863B1094B90F90E201B689A4209DBC4
:10372000437BDB0606D1064BC31A18BF012303F007
:10373000010070470023FAE7740900207009002097
:10374000B0010020044BC01A044BC0105843044B76
:1037500001221A54704700BFB0020020ABAAAAAAE7
:10376000680F002070B50E4B0E4C1E7C06EB460316
:1037700004EBC3040546204601F08AFD0A4B0022F3
:1037800028469A55FFF7C0FF48B1084B08491A6808
:10379000013A2046D317BDE8704000F057BB70BD1A
:1037A0004C090020B0020020680F0020740900209E
:1037B0004537000038B50D4D2B4653F8184F9C4245
:1037C00000D004B9EC68AB6838B95A7BD20604D192
:1037D000A26912B9DA897F2A05D89C4202D0204614
:1037E000FFF7C0FF23466B6138BD00BF4C090020C6
:1037F00070B590F90D20437B002A014604DA03F0EE
:103800007F03437301F0A2FC4B7B154A63F07F03F7
:1038100010464B7350F8183FD469834208BF002309
:1038200023B9C1E900042160D1610CE091F90E5087
:1038300093F90E60B5420ED0AE420CDD5868C1E976
:103840000030016059609068431A5842BDE87040EA
:103850005841FFF7AFBF9C42E3D01B68E0E700BFD1
:103860004C09002070B490F90D30427B002B29DB0D
:10387000D30627D183692BBB134962F07F024273C1
:103880000A4652F8184F944218BF2346CC6923B910
:10389000C0E900242060C8610CE090F90E5093F953
:1038A0000E60B5420AD0AE4208DD5A68C0E9003267
:1038B0001060586070BC0020FFF77CBFA342E7D0C7
:1038C0001B68E4E770BC70474C09002008B590F90C
:1038D0000D20437B002A014604DA03F07F03437383
:1038E00001F034FC044B9868431A58425841BDE833
:1038F0000840FFF75FBF00BF4C09002070B51546B8
:103900001C46064601F034FCB4F1FF3F08BFB5F198
:10391000FF3F08D02A46234606F118000249BDE8B9
:10392000704000F093BA70BD2552000038B54FF0DA
:103930002003EFF3118583F31288BFF36F8F104BD1
:10394000104A9C681068A04206D1FFF70BFF85F370
:103950001188BFF36F8F38BD00211B7C11600A4AAC
:10396000D35C002BF3D02046FFF7CEFE0028EED02C
:10397000637BDB0602D12046FFF73AFF2046E4E7EF
:103980004C0900206C090020680F002070B50C481D
:103990000C4D86682E600C461146DDE904234FF07D
:1039A0002006EFF3118586F31288BFF36F8F8068CE
:1039B000FFF7A4FF2046BDE87040FDF713B900BF34
:1039C0004C0900206C090020F8B504464FF0200394
:1039D000EFF3118683F31288BFF36F8F437BDA0610
:1039E00049B219D18569BDB903F07F03437301F072
:1039F000ADFB437B164A817363F07F034373134629
:103A000053F8180F984218BF0546D0695DB9C4E94C
:103A100000300460D46111E0A173002086F31188A6
:103A2000BFF36F8FF8BD95F90E70B9420BD08F427E
:103A300009DD6B68C4E900531C606C600120FFF76E
:103A4000B9FE0120EAE7A842E1D02D68DEE700BF19
:103A50004C09002049B9EFF3058030B9054B5A698C
:103A60009B689A4201D0FDF7BDB881F31188BFF37E
:103A70006F8F70474C09002010B54FF02002EFF314
:103A8000118482F31288BFF36F8F427B510704D4F5
:103A900084F31188BFF36F8F10BD22F004024273CC
:103AA000FFF7E0FE21460248BDE81040FFF7D2BF15
:103AB000690F002070B50446183001F0E9FB4FF0A3
:103AC0002003EFF3118683F31288BFF36F8F94F90D
:103AD0000D20637B002A05DA03F07F036373204621
:103AE00001F034FB0B4D637BA86843F01003637354
:103AF000031B58425841FFF75DFE86F31188BFF360
:103B00006F8FAB68A34203D1BDE8704001F0B6BB34
:103B100070BD00BF4C0900204FF02003EFF311816E
:103B200083F31288BFF36F8F044B9A68D37B013BFA
:103B3000D37381F31188BFF36F8F70474C09002056
:103B400010B54FF02003EFF3118483F31288BFF315
:103B50006F8F084B9A68D37B0133D3730020FFF734
:103B600029FE84F31188BFF36F8FBDE8104001F088
:103B700085BB00BF4C090020024B03F11802C3E9CA
:103B8000062270474C090020F8B54FF02003EFF3F0
:103B9000118583F31288BFF36F8F19498868437BBF
:103BA00003F07F03437301F0D1FA8B685A7B084618
:103BB00062F07F025A7350F8182FCC69824208BF16
:103BC000002222B9C3E900042360CB610CE093F921
:103BD0000E6092F90E70BE420ED0B7420CDD5168F5
:103BE000C3E900210B6053600120FFF7E3FD284685
:103BF000BDE8F840FCF7F6BFA242E3D01268E0E768
:103C00004C09002050EA01032DE9F04105460E461B
:103C100003D1FFF7B9FF00202CE0831C71F1FF33C3
:103C20002ADB01F04BFB2C184FF02003EFF3118837
:103C300083F31288BFF36F8F114F124BB86818606F
:103C4000FFF744FEB86810492A463346183000F0A2
:103C5000FDF8BA68537B43F0100353734046FCF7FA
:103C6000C1FF01F02BFB201A63EB0303012873F162
:103C70000003D0DBBDE8F0816FF00104241AD3E724
:103C80004C0900206C09002025520000B1F1FF3FD3
:103C900008BFB0F1FF3F08B506D1084B9868FFF7A1
:103CA00009FF4FF0FF3008BDFFF7ACFF4FF47A7308
:103CB00080FB0303C00B40EA4340F4E74C090020BB
:103CC000014B9868704700BF4C0900202DE9F04176
:103CD00004464FF02003EFF3118683F31288BFF3FD
:103CE0006F8F037BD9070BD586F31188BFF36F8FD6
:103CF000404080F311884FF0040002DFBDE8F081FE
:103D0000437B1A0704D586F31188BFF36F8FF5E75D
:103D100023F0200242F00801D20920D14173A368A8
:103D200013B1204601F01AFA04F1180001F0B0FABC
:103D300004F158074FF00008A56DBD4200D0B5B999
:103D40000120FFF737FD104B9B68A342DBD1EFF357
:103D50000583002BD7D13046FCF744FFD3E703F0AF
:103D60005F0343F00803437301F0F0F9D7E72846F7
:103D700001F0F4F905F1180001F08AFAC5F878802D
:103D80002846FFF76FFDD7E74C09002008B5064825
:103D9000064A0749121A01F06AF9BDE80840054AC7
:103DA0000549064801F063B9000000209001002099
:103DB00098610000000000009861000000000020F1
:103DC000034B1B680BB9FEF753BB0020704700BFC5
:103DD0007809002010B50E4B1C689C4204D1FFF7F7
:103DE000EFFF6FF0004010BDFFF7EAFF002CF8D0A6
:103DF000D4E904321B1A62EBE072B3F1004F72F1A6
:103E00000001EEDA002AACBF18460020EBE700BF45
:103E1000D000002030B570B10B4B5B6898420AD0DF
:103E2000036843B1D3E90421D0E90445121941EBF9
:103E30000501C3E90421D0E9003213605A60002370
:103E4000C0E9003330BD00BFD0000020B3F1FF3F18
:103E500008BFB2F1FF3FF8B504461D4616465CD0D8
:103E600081604FF02003EFF3118783F31288BFF3D3
:103E70006F8F013275F1FF3324DA2D49D1E900202B
:103E80006FF001039B1A4FF0FF3262EB00009E1BA4
:103E900060EB0500012E70F1000301DA012600201D
:103EA000C4E90460234ED6F800C07568B44508BF65
:103EB0004FF0000CBCF1000F0DD1C4E900652C607F
:103EC00074601CE0FFF77CFF013645F100053618F1
:103ED00045EBE070E4E7DCE90420D4E904319342E7
:103EE00071EB000E1ADAD21ADCF8043060EB010034
:103EF000CCE90420C4E900C31C60CCF8044033685A
:103F0000B34206D09C4204D1FFF764FF0021FEF7C4
:103F10007BFA87F31188BFF36F8FF8BD9B1A61EBB3
:103F20000001AC45C4E90431C7D0DCF800C0C1E7EA
:103F3000C8020020D00000202DE9F84F4FF02003E8
:103F4000EFF3118C83F31288BFF36F8FDFF8B0A00B
:103F5000DFF8B0902C4FC9F80000DAF80000002418
:103F6000504508BF00200025D7E90021D9F80030CE
:103F7000E04680B3D0E9046C4FEAE37EB3427EEBC7
:103F80000C0B05DAF61A6CEB0E04C0E9046422E0AF
:103F9000B21841EBE671C0E90445C7E90021FFF71B
:103FA00039FF88F31188BFF36F8F836898474FF00C
:103FB0002003EFF3118883F31288BFF36F8FD9F8D2
:103FC0000030DAF800009B1B5045C446C9F80030A9
:103FD000CAD1D7E900219A1841EBE3730024C7E95D
:103FE0000023C9F80040FFF7F5FE2146FEF70CFA62
:103FF00088F31188BFF36F8FBDE8F84FFFF796BCC9
:10400000D000002078090020C802002010B54FF031
:104010002003EFF3118483F31288BFF36F8FFFF750
:10402000CFFE064A0346D2E90001181841EBE371BE
:1040300084F31188BFF36F8F10BD00BFC80200204A
:10404000014800F05CBC00BF5D60000010B50A4C88
:1040500023681BB101232360002010BD00F0EAF8A3
:104060000028F7D00138062803D8044B53F8200065
:1040700010BD034810BD00BF7C0900205C57000044
:10408000FE8FFFFFBFF34F8F0549064BCA6802F44E
:10409000E0621343CB60BFF34F8F00BFFDE700BF6B
:1040A00000ED00E00400FA0510B4094B09490A4C80
:1040B0004FF0FE32C3F800244968C3F80424C3F863
:1040C0000824C3F80C240023C4F8003510BC0847AA
:1040D00000B00250D800002000A00250D0E9001229
:1040E000014BC3E900127047D800002010B5044608
:1040F00050B1636813F0685F05D0064A934202D05E
:1041000000232360626010BD034B04485B6898473E
:10411000EFE700BF2C5F5CA9D800002078570000B3
:10412000C8B143680D4A934213D013F0685F0ED0B4
:10413000012350E8002F194640E8001C9CF0000FB6
:10414000F7D1012AF5D0BFF35F8F002070470448F4
:104150007047044870476FF4E04070472C5F5CA9DB
:10416000E98FFFFFEA8FFFFF80B14368094A93425E
:104170000AD013F0685F05D0BFF35F8F00230360A0
:104180001846704704487047044870476FF4E04091
:10419000704700BF2C5F5CA9E98FFFFFEA8FFFFF2C
:1041A00010B5044620B1044B63600022226010BDAC
:1041B0000248FFF779FFF6E73A00003AA0570000FF
:1041C00070B5D0E90023174C174D6360D0E9023079
:1041D000C4E9023022604868D1F800C0134BC3E93B
:1041E00000C0D5F81801D1F808C0C3F808C010F015
:1041F000685FD1F80CC00969C3F80CC0196110D010
:104200000B49C5F8BC110023C5E9453105F58A7095
:10421000C5F8B8319047236805F5DC70BDE87040FB
:10422000184770BDF400002094090020E000002031
:104230002C5F5CA938B500F02FF820B1032400F002
:1042400063F8204638BD00F031F898B900F0ACF8BA
:1042500098B90F4DD5F828391B0EF02B08D1D5F899
:10426000242A0C4B9A420AD0072400F017F8E6E7FC
:104270000624FAE70424204638BD0024F5E701208F
:1042800000F092F804460028F7D1C5F80C0AD8E7E8
:1042900000B002500000E02000207047002070476E
:1042A000014BC3F8040A704700B0025010B5114822
:1042B00000F048F800B110BD0F4800F043F80028A6
:1042C000F9D10E4C204600F03DF80028F3D10C4BFC
:1042D0000C481C6000F036F801460028EBD100F0D5
:1042E0002DF8044608B1204610BD00F03FF82046E6
:1042F000FAE700BF34010020300100202C0100202B
:10430000240100202801002008B5084800F024F806
:10431000074800F021F8074800F01EF8064800F0B2
:104320001BF8BDE8084000F00BB800BF34010020C6
:10433000300100202C0100202801002000207047BF
:10434000704700BF08B5034B02681B6810689847A8
:10435000002008BDF400002008B5034B02685B682C
:1043600010689847002008BDF400002070B5094C83
:10437000094D2069AB68984718B1084B08485B683D
:104380009847084AEB68206900211160BDE8704039
:10439000184700BFE0000020F4000020D8000020F3
:1043A000C457000090090020F8B51A4D1A4E044673
:1043B000B26828699047E8B9184F3B684CB1A3B17F
:1043C000012B19D0013B3B602869F3689847002016
:1043D000F8BD43B9124A0121C2F800151149D1F8BC
:1043E0001029002AFBD101333B60F3682869984704
:1043F0000020F8BD0C48F8BD0A4AD2F81039002B4D
:10440000FBD1074A6FF07E40C2F80035FFF748FF46
:104410003B68D7E7E0000020F4000020900900206E
:1044200000A0025000B00250E98FFFFF2DE9F04FCD
:104430008BB04368019383789F078246144640F10E
:104440000981002591F80080B8F1000F00F0048187
:10445000B8F1250F0BD04B1C02930135019B51463F
:10446000404698470028C0F2F5800299EAE791F8A3
:1044700001808B1CB8F1250F0293EED000239946E2
:104480001F461F2F39D8A8F12002102A0AD8DFE8CA
:1044900002F02B0909310909092109090929092E05
:1044A00009091F00A8F13002092A32D9B8F12A0FF0
:1044B00035D1780654F8042B00F18180002AA7BF7B
:1044C00047F020079146C2F1000947F0280701E0B4
:1044D00047F00107029A12F8018B0292B8F1000F1F
:1044E000CFD132E047F0020747F00407F2E747F088
:1044F0000807EFE747F01007ECE77F2F18D8A8F17F
:104500003002092AD2D87E0603D50A2101FB0323F3
:10451000E0E70A2101FB092947F02007DAE7B8F1B3
:104520002E0F05D1790600F1978047F04007D1E7BB
:10453000B8F16C0F32D02AD8B8F1680F35D0B8F185
:104540006A0F39D0B8F14C0F36D0002B48F020025A
:10455000B8BF27F04007A2F16501BCBFBFB200237E
:10456000022901D9612A2CD1073424F007049A4E7C
:1045700008344FF00708380763D506EB080B3746B9
:104580005F4560D1AE1B3744A9EB080954E1B8F18F
:10459000740F9FD0B8F17A0F9CD0D6E73A0648BF87
:1045A00047F4007747F0800794E7FE0548BF47F4DB
:1045B000007747F480778DE747F420778AE7134642
:1045C00088E7A8F16301122900F2CF80DFE811F03B
:1045D00013004800CD00CD00CD00CD004800CD0037
:1045E000CD00CD00CD00CD00DF00C700CD00CD0057
:1045F0001B00CD00960054F8043B8DF81C304FF0A2
:10460000010807AEB7E754F8046B744A002E08BFE0
:10461000164617F0400F14BF19464FF0FF313046D1
:1046200000F051FE8046A6E7019B514620209847A6
:1046300000280FDB013FB845F6D34D44ED1BB946CA
:104640009BE74F46F7E717F8010B019B5146984748
:10465000002895DA4FF0FF3528460BB0BDE8F08F03
:10466000390637D5BA0545BF073424F0070454F896
:10467000040B54F8080B27F010060028B6B232DA03
:10468000404246F48066039307AF0A22394600F0A1
:1046900026FE7206039BA0EB07074BD526F001010F
:1046A000BB4289B240F38A80B8F1000F00F08280EB
:1046B00016F01002039240F083809B460E4640F2B3
:1046C000064116EA010203921EBF00220BF1010B04
:1046D000039238E0FE0554F8040BCCD5B9054CBF65
:1046E00040B200B2C7E7CED17A06CCD5002BCAD1F2
:1046F00027F01107BEB21F469B46E0E727F01007E0
:10470000BFB20A223E0646D5B80545BF073424F09D
:10471000070454F8040B54F8080B002844D127F080
:1047200016067906B6B242D5002B40D127F01707FE
:10473000BEB21F4616F0100203924AD0B8F1000F25
:1047400045D107F1010B31075CD4F20705D5D945F6
:1047500075DDA9EB0B02D319CB465A464CE047F066
:10476000100710224FF07808CCE7782A06D1B8F16C
:10477000580F14BF10224FF40472C3E7019B514637
:10478000252098470028FFF665AF023566E6082227
:104790004FF00008B6E7F90554F8040BBDD5BE0587
:1047A0004CBFC0B280B2B8E727F00607BEB2039391
:1047B00007AF6BE726F01106B6B29DE70E46B9E7E4
:1047C00038460E461F4607F1020B0746BBE7384640
:1047D000F9E7BB4673E700BF8D610000866100000A
:1047E000CDE904325146019B202098470028FFF66E
:1047F00031AF059A049B01329145F1DCA5EB0B0129
:104800008D189346039A32B303935146019B30208F
:1048100098470028FFF61EAF039BB8F1000F10D198
:1048200001355E19711B8F4227DB3E460DF11C08D6
:1048300066BB2F44A9EB0B093D46B94438E03B4623
:104840008BE70393023551464046019B9847002869
:10485000039BE6DAFEE640F206410E42E1D016F096
:10486000020F14BF2B20202016F4806F039305F154
:104870000105514618BF2D20E7E7019B5146302026
:104880009847002805F10105CCDAE3E6013E019BDB
:1048900018F80600514698470028C9DADAE6019B65
:1048A000514620209847002805F10105FFF6D2AEB9
:1048B000A9EB0503002BF2DCD7E500BFF0B40346FB
:1048C0000A461979DB8800681343DC0287680669A9
:1048D00006D513F4402F03D0DA0748BF83F44023F2
:1048E000346801258D4023F48012DB074CBF2C4334
:1048F000AC4334603B68F0BC1847002070470FB4ED
:1049000007B504A951F8040B0191FBF70FFE03B0A2
:104910005DF804EB04B0704700EBC100408840082C
:104920007047F8B50346FFF7F7FFB0FA80F0C0F123
:104930001F0003EB800CCA00DCF81060171D0C464A
:1049400006328DB256B9012101FA00F0D96801434F
:10495000D960CCF81040DD539D52F8BDF100043110
:10496000585AD85303EBC0009E52C5805D52F4E7FD
:10497000043A2DE9F041CC1D114424F0070421F044
:1049800007010E1BF708B7FA87F2C2F12405AD0044
:104990004FF000080735C2F12002ED0804604146DF
:1049A000A760C4F80C80920004F1100000F0C1FC74
:1049B0006B0043F00103638004EBC5027B1B5900CD
:1049C000A4F800805180A21924F83550A2F8028082
:1049D000A35304EBC70329465A8842F001025A80C8
:1049E0002046BDE8F041FFF79CBF038B13F007039F
:1049F00005D10368002B0CBF002003207047022B59
:104A000005D1408BB0FA80F0400980007047012B3F
:104A100005D10368002B0CBF002005207047002043
:104A2000704710B50C4600B111B96FF0150010BDFC
:104A3000081D00F095F80028F9D1A368032BF6D9DA
:104A4000F3E72DE9F0410D4607461946281D90462B
:104A50001E4600F096F8044638B1334642462946D1
:104A60003846A446BDE8F0416047BDE8F08110B487
:104A70004FF02004EFF3118284F31288BFF36F8F9D
:104A8000416110BC0121FBF783BD38B50C460546DA
:104A900058B151B10B6843B14B6833B11C220021AE
:104AA00000F047FC2C61002038BD6FF01500FBE7DB
:104AB00070B505460E46FFF7B4FF041E15DB4FF038
:104AC0002003EFF3118283F31288BFF36F8F6B8B98
:104AD0002C8B4FF6FF718B4204F0070407D182F351
:104AE0001188BFF36F8F6FF00A04204670BD022C4F
:104AF0000CD101336B8382F31188BFF36F8F0023D6
:104B0000224631462846FFF79CFFEEE7062C14D8D4
:104B1000DFE804F004131313041A040000233360C5
:104B20006B683BB9C5E90066ACB902212846FBF7C2
:104B30002FFDDAE71E606E60F6E782F31188BFF39F
:104B40006F8F6FF00404D0E782F31188BFF36F8F8B
:104B50006FF08504C9E782F31188BFF36F8FC4E754
:104B6000034658B1426802F00302012A03D0032A27
:104B700004D1026812B10020986070476FF01500F0
:104B800070474268816002F00302032A4FF000027E
:104B900003460CBF006810465A60704770470FB458
:104BA00007B504A951F8040B0191FBF7BFFC03B052
:104BB0005DF804EB04B0704708B50020FBF7F6FD84
:104BC00001460068FBF778BF00210120FBF774BFA6
:104BD00008B5FBF7E7FFBDE80840FCF7EFB808B5FC
:104BE000FCF792FC002008BD0369C9B20C2201FB4E
:104BF0000233186C00F0070070474FF02003EFF30A
:104C0000118283F31288BFF36F8F036803F0C00330
:104C100043F00203036082F31188BFF36F8F704784
:104C200070B5C9B203694FF02004EFF3118584F326
:104C30001288BFF36F8F0C2606FB0134246C14F02E
:104C4000C00408D0A24206D085F31188BFF36F8F4D
:104C50004FF0FF3070BD71430B4401221A6485F39D
:104C60001188BFF36F8F43680B445B68984700203F
:104C7000F0E78022FFF7D4BFF8B5069F0469C9B2F8
:104C80004FF02005EFF3118685F31288BFF36F8F85
:104C90000C2569430C44256C05F0070CBCF1010F91
:104CA0000BD1276486F31188BFF36F8FC4E90E23FD
:104CB00043685B5898470020F8BD05F0C005AF4237
:104CC00086F31188BFF36F8F0CBF6FF077004FF042
:104CD000FF30F1E713B580240094FFF7CDFF02B059
:104CE00010BD10B40069CBB21C2403FB04000021EA
:104CF00010BC1047002000F00BB9002000F044B9B0
:104D00001046FEF7B5BC43685B68D3F810350B60FE
:104D10000020704743685B6802EA010021EA020153
:104D2000C3F80805C3F80C150020704743685B689A
:104D30000020C3F80815704743685B680020C3F87B
:104D40000C15704743685A68D2F8043521EA03000D
:104D50000B40C2F80805C2F80C350020704710B5AA
:104D600003695868F8B1884219D19C68086858608E
:104D7000A14200D19860002008602AB15A680A60F8
:104D80009A68596002B99960002010E0814206D10A
:104D90000868206098688142EDD19C60EBE704468A
:104DA00000680028F2D1002AE8D16FF0150010BD8C
:104DB00030B543681360057A446804EBC504A34228
:104DC00002D36FF0010030BD5C798C4201D0083312
:104DD000F0E70020F7E702690B46D2E9010183E81A
:104DE00003000020704743681B68D3F88004C3F8B1
:104DF00080047047436802691B68D3F8100150B102
:104E00005269002012780A70C3F81001D3F81021FB
:104E100001221A6070474FF0FF3070470268034666
:104E2000D2F8580140B95B689B0706D4D2F820013C
:104E3000003818BF0120704701207047426813688E
:104E4000D3F80413C90518D5D3F82011A9B14FF030
:104E50002000EFF3118180F31288BFF36F8FD3F836
:104E6000200130B10020C3F82001D3F82001012037
:104E7000D86081F31188BFF36F8F5268D20615D5C1
:104E80004FF02001EFF3118281F31288BFF36F8F8F
:104E9000D3F8581111B10021C3F800154FF4800167
:104EA000C3F8081382F31188BFF36F8F704700F1C6
:104EB00050039B009BB203F1804303F5883300222B
:104EC0001A601B687047FFF7C1B808B5FBF7E8FC2C
:104ED000FBF7BCFDBDE80840FFF7B8B8004700F09D
:104EE000B4B8C00000F1804000F5F830C0F81015EB
:104EF000C0F81425704708B50020FBF72DFE08B94F
:104F0000FBF708FE4FF080430022C3F8182508BDC8
:104F100008B510B101282CD008BD4FF08042D2F85E
:104F20001814D2F81834C80317D503F00303012B63
:104F300004D013B10020FDF709FC00234FF080429C
:104F4000C2F818350023C2F80431D2F80431022324
:104F5000C2F8043301239360DEE7D2F81434D90792
:104F6000EBD5D2F81C349B07E4D40223C2F80433F7
:104F7000D2E74FF080430022C3F80021D3F800218C
:104F8000C3F804031860C7E7FDF7E0BBF7B501906D
:104F900001A8DDE9084716461D46FDF77DFC019B8B
:104FA000B6F1000C18BF4FF0010C00EB83000B1E94
:104FB00018BF0123002D43EA4C0314BF4FF00C0C23
:104FC0004FF0000C002C43EA0C0314BF4FF4E06CCC
:104FD0004FF0000C002F43EA0C03D0F8002714BF59
:104FE0004FF4403C4FF0000C43EA0C0322EA030369
:104FF00001B109780EB13678760019430DB12D78DC
:10500000AD0031430CB12478240229430FB13F781D
:105010003F040C433C43C0F8004703B0F0BD1FB54C
:105020000DF10F03019300238DF80F1000931A4622
:105030001946FFF7ABFF05B05DF804FBFEF704B8B7
:1050400008B5FFF7FBFF002008BD08B1FCF7A4BAC4
:105050007047704740B1C368587810F001001EBF18
:105060001878B0FA80F04009704700F062B900F09B
:1050700052B9D0E90332134313F003030CD1436157
:105080008168994201D80020704741691160C16868
:10509000426101330A44F3E76FF01500704710B521
:1050A000C0E902320023016183610446FFF7E1FF9A
:1050B0000028A8BFC4E9004410BDF8B504460D4659
:1050C0004FF02003EFF3118683F31288BFF36F8F45
:1050D00047696FB900F0AAF850B18767456100F0E1
:1050E0006FF8314604F10800BDE8F840FEF7B2BCA5
:1050F00063692B60A3696561013BA36186F3118835
:10510000BFF36F8FF8BDEFF30580003818BF0120A3
:1051100070470020704708B54FF02002EFF311836D
:1051200082F31288BFF36F8FFBF7ACFCF4E790F9C2
:105130000E308B4201D0FEF747BC0020704703467B
:105140000020C3E90200C3E900337047D0E9003210
:1051500013605A600023C0E90033704708B5FFF7B9
:10516000F5FF437B23F0020343730023836008BDF4
:1051700038B504460D46FEF7A9FB637B43F00203F6
:105180006373E5B1A5602B689D4209D16B68C4E9E2
:1051900000531C606C6012E06A689342F6D01B6892
:1051A000002BF3D094F90E2093F90E108A42F3D01D
:1051B0009142F1DD5A68C4E9003214605C6038BD88
:1051C00010B54FF02003EFF3118483F31288BFF37F
:1051D0006F8FFEF747FB84F31188BFF36F8F10BD0D
:1051E00038B504464FF02003EFF3118583F312889E
:1051F000BFF36F8F437B13F0280F0BD183680BB184
:10520000FFF7ACFF637B51B903F0FB0363732046E8
:10521000FEF728FB85F31188BFF36F8F38BD03F0CD
:10522000EB03F3E701211838FFF7DABF38B54FF089
:105230002003EFF3118583F31288BFF36F8F0468A7
:10524000A0420DD034B12046FFF788FF04F11800CA
:1052500000F01EF885F31188BFF36F8F204638BD2C
:105260000024F7E7034620B9EFF305820AB9FBF7FC
:10527000B9BC83F31188BFF36F8F70474FF02003E1
:10528000EFF3118083F31288BFF36F8FFFF7EABF4C
:1052900010B54FF02002EFF3118482F31288BFF3B0
:1052A0006F8F03683BB1FEF7B5FD002084F31188D2
:1052B000BFF36F8F10BD6FF01500F7E708B5FEF76D
:1052C000A5FE08BD704710B5024601448A42134648
:1052D00003D01C780132002CF8D1181A10BD9305A8
:1052E00070B548BF22F40072044608464CBF07213F
:1052F0002721B4FBF2F502FB1543DBB2092B88BF73
:105300005B18264688BFDBB23033B24200F8013B5F
:105310002C46EED970BD0A44914200F1FF3300D112
:10532000704710B511F8014B03F8014F9142F9D1C4
:1053300010BD02440346934200D1704703F8011B9D
:10534000F9E700000148006870470000F8070020F6
:08535000E4ADFF7F0100000045
:10535800551500000000000021160000B853000099
:1053680041500000000000004D3300000000000024
:10537800C5190000E0530000C5190000CC53000017
:10538800C74E000000000000891E0000F453000012
:105398009118000000000000A52200000000000095
:1053A8003115000000000000CB4E00000000000096
:1053B800845E00006C56000084560000380100200E
:1053C80020080020AD5E0000A0560000C056000076
:1053D8003A01002074080020BB5E0000B0560000AF
:1053E800C05600003C01002080080020ED5E00004F
:1053F800E4560000185700003E0100203400002049
:1054080031280000DD4E000000000000C94B0000FC
:10541800F45300003D4E000000000000C94B00009E
:1054280000000000C94B000000000000C94B00004C
:10543800952E0000DD4E000000000000C94B000062
:1054480000000000C94B000000000000C94B00002C
:1054580000000000C94B000000000000C94B00001C
:1054680000000000C94B000000000000C94B00000C
:1054780000000000C94B000000000000C94B0000FC
:1054880000000000C94B00000000000035230000A8
:1054980000000000C94B000000000000C94B0000DC
:1054A80000000000C94B000000000000C94B0000CC
:1054B80000000000C94B000000000000C94B0000BC
:1054C80000000000C94B000000000000C94B0000AC
:1054D80000000000C94B000000000000C94B00009C
:1054E80000000000C94B000000000000C94B00008C
:1054F80000000000C94B000000000000C94B00007C
:1055080000000000C94B000000000000C94B00006B
:1055180000000000C94B000000000000C94B00005B
:1055280000000000C94B000000000000C94B00004B
:1055380000000000C94B000000000000C94B00003B
:1055480000000000C94B000000000000C94B00002B
:1055580000000000C94B000000000000C94B00001B
:1055680000000000C94B000000000000C94B00000B
:1055780000000000C94B000000000000C94B0000FB
:10558800EA58000004000000395F00000000000035
:10559800565F000000000000625F0000000000008D
:1055A800F6580000030000009F5E000003000000A2
:1055B800215F000003000000145E000003000000EB
:1055C8005A60000003000000805E00000300000035
:0855D800FB5E0000030000006F
:1055E000000102030405060748656C6C6F000000AB
:1055F0000338FDD870470000E05300000D000100A3
:10560000E05300000B00110000000000B94B000047
:105610001C000020140000200C00002000000000EE
:1056200004000020B9090000AD08000001090000D5
:1056300061090000000000200000000000000B06CF
:105640000200000048560000000000006B5E0000F1
:105650002600020700000020735E000022000B11EC
:10566000DD150000AD15000000000000C9160000A7
:1056700061170000935E0000F54C0000FB4C000039
:10568000995E00002D170000734C0000D54C0000FF
:1056900000000000E94B00000000000000000000D6
:1056A000FFFF0000000300500000000001000000A8
:1056B000FFFFFFFF0000005000000000000000009E
:1056C000491A0000074D0000154D00002D4D000047
:1056D000394D0000454D0000E11800005F4D00000D
:1056E0000000000000200040020000000000000058
:1056F000F4560000002000400057000001000000A8
:105700000857000004000000060000000500020029
:105710008801010087010300F54D0000791F00009A
:10572000E74D0000211D0000D74D0000F5FFFFFFF1
:105730000B600000196000002D6000003C6000005C
:10574000486000005853000058530000A053000068
:10575000A8530000B8530000B8530000FF8FFFFFAC
:10576000FF8FFFFFFE8FFFFFFE8FFFFFFD8FFFFF0D
:10577000FC8FFFFFFC8FFFFF6D757465785F6672AD
:1057800065652063616C6C65642077697468204E80
:10579000554C4C20706172616D657465720000003B
:1057A00043616E277420696E697469616C697A65FA
:1057B000206D757465782C20776173204E554C4CA4
:1057C0000D0A0000436F756C64206E6F74206C6F5F
:1057D000636B20706F7765722073617665206D75DD
:1057E0007465780025633A2043616C63756C61745D
:1057F000696E672074686520666163746F726961A1
:105800006C73206F66206E756D6265727320312037
:10581000746F2025643A0A0025633A205468652095
:10582000666163746F7269616C206F6620253264F3
:10583000203D20256C640A0025633A206E524620E4
:10584000436F6E6E6563742053444B2046756E64DF
:10585000616D656E74616C730A0025633A2045784A
:105860006572636973652025640A0025633A2041E7
:10587000206C6F67206D65737361676520696E20AA
:105880006465627567206C6576656C0A0025633A0D
:105890002041206C6F67206D6573736167652069B7
:1058A0006E207761726E696E67206C6576656C211B
:1058B0000A0025633A2041206C6F67206D65737381
:1058C00061676520696E206572726F72206C657603
:1058D000656C210A0053616D706C652044617461D0
:1058E000210025633A2025730A004C657373345FE9
:1058F00045786572330063627072696E74665F70BA
:1059000061636B616765004661696C656420746FF3
:10591000207265626F6F743A207370696E6E696E83
:105920006720656E646C6573736C792E2E2E0A0089
:1059300025633A2000253032782000202020007C8A
:1059400000256300455749446D757465785F696E3D
:1059500069742063616C6C65642077697468204E9B
:10596000554C4C20706172616D6574657200436FB7
:10597000756C64206E6F7420616C6C6F636174650C
:10598000206D75746578206265666F726520696E3A
:10599000697469616C697A696E670025633A20727F
:1059A000302F61313A20203078253038782020722D
:1059B000312F61323A20203078253038782020721B
:1059C000322F61333A20203078253038780A00258C
:1059D000633A2072332F61343A20203078253038F2
:1059E00078207231322F69703A2020307825303893
:1059F00078207231342F6C723A202030782530387C
:105A0000780A0025633A2020787073723A2020309B
:105A100078253038780A0025633A204661756C7421
:105A2000696E6720696E737472756374696F6E2036
:105A30006164647265737320287231352F70632935
:105A40003A203078253038780A0025633A202A2A0F
:105A50002A2A2A204D5055204641554C54202A2AA6
:105A60002A2A2A0A0025633A202020537461636B96
:105A7000696E67206572726F722028636F6E74653D
:105A800078742061726561206D6967687420626551
:105A9000206E6F742076616C6964290A0025633A70
:105AA000202020556E737461636B696E6720657288
:105AB000726F720A0025633A2020204461746120CD
:105AC0004163636573732056696F6C6174696F6EAF
:105AD0000A0025633A2020204D4D46415220416462
