:1000000000260020E9270000A96B0000BD270000A2
:10001000BD270000BD270000BD2700000000000034
:100020000000000000000000000000005D20000053
:10003000BD27000000000000F91F0000BD270000E0
:1000400019210000192100001921000019210000C8
:1000500019210000192100001921000019210000B8
:1000600019210000192100001921000019210000A8
:100070001921000019210000192100001921000098
:100080001921000019210000192100001921000088
:100090001921000019210000192100001921000078
:1000A0001921000019210000192100001921000068
:1000B0001921000019210000192100001921000058
:1000C0001921000019210000192100001921000048
:1000D0001921000019210000192100001921000038
:1000E0001921000019210000192100001921000028
:1000F0001921000019210000192100001921000018
:1001000053B94AB9002908BF00281CBF4FF0FF317E
:100110004FF0FF3000F00CB8ADF1080C6DE904CEE3
:1001200000F008F8DDF804E0DDE9022304B07047D0
:10013000704700BF2DE9F04786468C460846089E6A
:10014000154674461946002B40F0C2808542B2FA2B
:1001500082F245D94AB1C2F1200300FA02FC2EFA1C
:1001600003F3954043EA0C0C94404FEA154EA8B2B5
:10017000BCFBFEF8230C0EFB18CC08FB00F943EA8D
:100180000C43994528D9EB1808F1FF3704D299455B
:1001900002D9A8F102072B44A3EB0903A4B2B3FBD5
:1001A000FEFC0EFB1C330CFB00F044EA0344A042AF
:1001B00014D92C190CF1FF3304D2A04202D9ACF1AE
:1001C00002032C44241A43EA07401EB1D440002302
:1001D00034607360BDE8F0874746DDE76346F1E7CA
:1001E00092BB431B01214FEA154EAFB2B3FBFEFC9D
:1001F000200C0EFB1C330CFB07F840EA0343984528
:1002000062D9EB180CF1FF3004D2984502D9ACF159
:1002100002002B44A3EB0803A4B2B3FBFEFC0EFBCD
:100220001C330CFB07F744EA0344A7424ED92C19B0
:100230000CF1FF3304D2A74202D9ACF102032C44E3
:10024000E41B43EA0040C0E7C2F1200320FA03F1B7
:10025000954090402EFA03F303434FEA154EAFB298
:10026000B1FBFEFC0EFB1C10190C0CFB07F841EA5D
:100270000041884504FA02F422D969180CF1FF30D4
:1002800004D2884502D9ACF102002944A1EB08014F
:100290009BB2B1FBFEFC0EFB1C110CFB07F743EA03
:1002A00001439F420ED9EB180CF1FF3104D29F425B
:1002B00002D9ACF102012B44DB1B41EA004192E779
:1002C0006046E3E76146F7E76046A3E76346B7E7C2
:1002D000834206D916B9002108467BE7C6E900E04B
:1002E000F9E7B3FA83F78FB9834201D3724508D88F
:1002F000BEEB020460EB030301209C461EB9002103
:1003000068E73846FAE7C6E9004CF8E7C7F1200C81
:10031000BB4022FA0CF41C432EFA0CF120FA0CF329
:10032000B84001434FEA14490EFA07F5B3FBF9F858
:100330001FFA84FE09FB18300B0C08FB0EFA43EA87
:1003400000439A4502FA07F240D9E31808F1FF305A
:1003500004D29A4502D9A8F102002344A3EB0A0370
:1003600089B2B3FBF9F809FB183308FB0EFE41EA2A
:1003700003418E452CD9611808F1FF3304D28E4514
:1003800002D9A8F10203214443EA0040A0FB0298ED
:10039000A1EB0E014145CE46434602D306D14D4561
:1003A00004D2B9EB020E68EB04030138002EA6D08C
:1003B000B5EB0E0261EB030101FA0CFC22FA07F324
:1003C0004CEA0303F940C6E9003198E74046C5E727
:1003D0004346D9E7034613F8012B002AFBD1181A2C
:1003E000013870472DE9F04186B06C4600AF88B007
:1003F0006A461C4B53610A239361032342F8103F62
:1004000019481A4D00234FF4C65101F08BF8042609
:10041000A54601240123194659430133A342FBDDBC
:10042000E84688B06A46C2E90554D16142F8106FC7
:100430000D4800234FF40351013401F073F80B2CE5
:10044000C546E7D10A4B7B6102233B61064807F1B1
:10045000100200234FF4865101F064F81837BD46AE
:10046000BDE8F0819879000058760000CE79000050
:10047000EB7900002DE9F0478AB0524800AF05F053
:100480003CFF514B3A4603F10805B84618685968D5
:10049000144603C40833AB422246F7D118681B79CF
:1004A00020602371E946494B7B6202263E62484840
:1004B000002307F120024FF4865101F033F888B091
:1004C0006C46444B25464FF0030AC4E9053645F80F
:1004D00010AF3F4800232A464FF4C65101F022F8DE
:1004E000CD46A5463C4B63613C4BA361C4F810A0CC
:1004F000374800232A464FF4C85101F013F8CD467F
:10050000374BC7E908633248002307F120024FF454
:10051000845101F007F8334BC7E908632C480023E6
:1005200007F120024FF4825100F0FCFFA5462E4B4C
:1005300063612E4BA3614FF40073A3832C4B2361A3
:100540002C49234843462A4600F0ECFFCD462A4C6E
:10055000204606F078FD70B328484FF4D01105F01E
:1005600055FE002827DB26484FF4803105F04EFE6B
:10057000002820DB2369A5681B68AE6913F4006FAF
:1005800014BF4FF000734FF080630B214FF0A07247
:100590002046B0471B491C4B4B604FF400638B60F7
:1005A000EB6913B101222046984700214FF0967065
:1005B00004F046FFF9E74FF0FF302837BD46BDE8AD
:1005C000F08700BF257A0000F07600005C7A00001A
:1005D00058760000797A0000857A0000F47A0000ED
:1005E000A67A0000C67A0000E47A0000E77A0000EC
:1005F00003000001C01CD000B074000008770000A8
:1006000010770000F8070020E50300002DE9F04F07
:1006100091B08407009302F004030293C2F3C20373
:1006200003F10103DDF86890039205460E46059339
:1006300040F0BA81041D30B1072909D86FF01B00C2
:1006400011B0BDE8F08F01F00706341DC6F10806B1
:10065000009B4FF00008591E4FF0040A4FF0FF3383
:100660000193CDF810804746C34653460DB1009A1A
:1006700022600598002800F3E8809848009A82429A
:1006800003D397488242C0F0E080039AA4EB050EA2
:1006900092074FEA9E0000F103810F2F00F2B18014
:1006A000002D00F0058107F140020DEB020C019ACC
:1006B0000CF8200C0CF8102C049801300490E7E0A2
:1006C0007A285DD84B280ED8472859D829282DD804
:1006D000252852D054D820287AD02338D0F1000BC6
:1006E0004BEB000B74E04C382E2849D8DFE800F0C3
:1006F0007048484848484848484848484B4848484F
:10070000484848484859484B4B595959704B6D48CF
:100710007048184B184848827F4B48484B487F0028
:1007200000204FF0000B4FF0040A38E02A38C0B226
:10073000012202FA00F010EA0E0F49D110F0625CBB
:100740002FD110EA020B43D06046013C5444B4FB65
:10075000FAF40AFB04F4002D61D0A3EB050CA444C9
:100760006645FFF46BAF002868D1042B47D159F8D8
:10077000043B2360043404232AE0019A013A0192E5
:100780004FF0000B24E011F8010C6C2834D111F863
:10079000023C00206C2B8346C5D14FF0080A53461B
:1007A000D3E709F1070929F007090734F9E802AB93
:1007B00024F0070435B106982044B0423FF63EAF1E
:1007C000C4E900AB08344FF0000B4FF0080A534661
:1007D00011F8010F002878D0BBF1000F7FF470AF43
:1007E0002528F5D1019B013301934FF0010B4FF008
:1007F000040AECE7584694E700208346A5E7082B57
:1008000002D06FF015001BE709F1070929F007096D
:10081000F9E80223C4E9002308340823D8E768B9BB
:10082000042B02D109F10409A4E7082BE9D109F14D
:10083000070929F0070909F10809EDE7059A013AC6
:10084000059259F8042B009210E7039A900720D5DF
:10085000A4EB050E4FEA9E004FF0010CBEF5007FA1
:10086000CFD20F2FCDD8F5B107F140020DEB020E1C
:10087000C0B2019A0EF8200C0EF8102CBCF1000F3B
:100880003FF41AAF60F07F000EF8200C08F1010869
:100890000137C5F10802043406924FF6DA7E97E775
:1008A0004FF0000CDAE7BCF1000F01D00136EFE7A2
:1008B000029802360028EBD10098CDE90631FFF707
:1008C00089FDDDE906310644E2E7631BB3F5806F7D
:1008D00097D23DB9A6F10804E018B1E620740000F3
:1008E00084840000029A28609B082B709DF81030C9
:1008F000C2B1EB7085F80280B8F1000F05D008A8EE
:100900000022C5F1010C97420ED1C5F101030DF192
:1009100020094FF0000A01930DF1300B574512D119
:10092000601B8DE66B70E5E710F8013B190608D5F2
:1009300004EB0C0E764503F07F03FFF47FAE04F862
:10094000013B0132DFE7B8F1000F03D099F9002035
:10095000002A17DB029BD3B11AF80B2004F8012BF5
:100960000022019B981820448642FFF467AE99F854
:10097000000004F8010B00990392204606F027FDC1
:10098000039A14440AF1010A09F10109C6E799F82A
:10099000002055F822300093029B45F82230009841
:1009A000FFF718FD421CDCE76FF00D0048E600BFC2
:1009B0002DE9F04F95B000AF90F802B0BB61BB6F6E
:1009C0007A62C3F3C00304463B618A4641B9457865
:1009D00000780BEB80002044554517D8A0EB040AA3
:1009E000E3787B61BBF1000F02D0BB6FD80716D450
:1009F0007B6953BB7B6A1BB1BA6951462046984755
:100A0000554628465437BD46BDE8F08F461C304653
:100A1000FFF7E0FC013030440AF1010ADCE72378FB
:100A20003B629B00FB603B6A6268FA6104EB8309EE
:100A30007B6A002B40F0FE805546C84609EB0B0A46
:100A40000026D04551D1D94413E0BB6F9907D1D5C9
:100A500023783B6299469B00FB606368FB617B6A7D
:100A600004EB8909002B7AD15546BBF1000F4FD119
:100A70005E46BB6F13F0050F7B6909EB430ABB6F42
:100A800003F002030CBF4FF0020B4FF0010B7B622F
:100A9000D145B6D019F8021B19F8013C54F823804F
:100AA000AA4B984502D3AA4B984538D33B69002BF3
:100AB00042D0F86905F0FAFB00283DD0E8468AB03C
:100AC0006A46A44B5361FB69C2E906314FF40073D7
:100AD0001384A14B42F8103FA04800234FF4125159
:100AE00000F020FD023DC546D2E718F8013B54F85E
:100AF0002300FFF76FFCFB6F01303BB1D7F880306C
:100B00009E423EBFFB6F23F816000136054498E76E
:100B1000BB6F13F004061CBF7E6AD944A9E73B698A
:100B200023B1F86905F0C2FB0028C7D1BB6FDA0713
:100B300005D4A5EB0B05ABE77B6A002BA8D040469C
:100B4000FFF748FCFB6F43B1D7F880309E423FBFB0
:100B5000FA6F431C22F816300136054498E7BBF1C2
:100B6000000F6DD0BB6F13F004066CD0D846002682
:100B700007F140005A46494606F029FC7B695B00B4
:100B80007B607B69D94409EB4303BB60BB6F03F017
:100B900002033B60BB684B4557D1B96F6378B86FB0
:100BA000890706EB030254BF4FEA58010021C5072D
:100BB000D2B200F19A8010F0040F14BF404600201A
:100BC000FB616270A070E170BA69F9687B6A2046C7
:100BD0009847051EFFF615AF3B6A2370FB696370EB
:100BE0007B69E3704146BA697B6A84F802B007F119
:100BF00040009847B0F10008C0F2A480FB68BA69D1
:100C0000AAEB0B01C91A7B684846C91A7B6A984748
:100C10000028C0F29980A84408EB00054FF0000BB3
:100C200007F1300AB34562D30021BA697B6A0846EE
:100C30009847E6E65E464FF0000807F1300099E776
:100C40005E46D8469AE7B04698E719F8021B3F4B34
:100C500019F8015C54F82500984202D33C4B9842A5
:100C60001DD33B6923B1F86905F020FB002891D121
:100C70003B68FBB908F1280307F1280208F10100DD
:100C800003EB020C07F1500353FA80F008F102085D
:100C90000CF8101C5FFA88F800F8105C7AE73B69E2
:100CA0002BB1F86905F002FB00287FF473AFBB6F2E
:100CB000DB0709D506F1280307F12802711C9E18ED
:100CC00006F8205CCEB265E7BB6F58077FF562AFD0
:100CD00008F1280307F1280208F1010103EB0208DB
:100CE00008F8105C5FFA81F854E7002068E71BF809
:100CF0000A3087F82F3054F82390FB6FFBB133F89C
:100D00001B80BA697B6A012107F12F0098470028F0
:100D10001ADB0544B8F1000F06D14846FFF75AFB2D
:100D200000F101081FFA88F8BA697B6A4146484613
:100D30009847002808DB05440BF1010B72E7D7F850
:100D40007C80DEE745465CE605465AE620740000F6
:100D500084840000057B0000040000017876000018
:100D6000014B1860704700BF0000002080B50546A9
:100D70000E461746984604F07DFB034606F046FBF8
:100D8000DFF81890044649F80030424630463946AC
:100D9000A84754F8090001F0A7FD00BF08000000B3
:100DA0002DE9F047058B04462807904611D4022907
:100DB00005F0070540F0CD80204605F014FB78B122
:100DC0000138218B042811D8DFE800F0C3106D85AD
:100DD000950001290CBF45F0100545F0200525833D
:100DE00088F31188BFF36F8FBDE8F08701F0070A21
:100DF000AA4500F0A6800027B9463E46A368002B0E
:100E000000F0BD8041F00801218388F31188BFF311
:100E10006F8FA168002900F0BB800D68002900F0E9
:100E2000B780D1F80480334652462046C047002D93
:100E300076D02B6829461D46F0E701F007035A1FBC
:100E4000012A1BD8002221F00701062B276889B24E
:100E5000C4E9002209D13B4603E0628B0132628380
:100E60001B68002BF9D141F002012183204605F0D7
:100E7000BAFA00287BD041F0200177E0042B0AD198
:100E800021F0070189B22183204605F0ACFA10B1A8
:100E900041F020012183218B01F0070AAA4550D09F
:100EA0000027B946AAE7236921F0070141F00601AE
:100EB000062DD3F8009021832DD1B9F1000F40D039
:100EC00041F00801218388F31188BFF36F8F3A49FD
:100ED0002046C84729E021F00701236941F00401B9
:100EE00089B2042DD3F804902183E6D000273E4632
:100EF0004FF0040A82E721F00701236941F0050160
:100F000089B2052DD3F808902183D6D000273E461C
:100F10004FF0050A72E700273E464FF0060A6DE7DC
:100F20002B4687E7B9F1000FD1D14FF02003EFF343
:100F3000118883F31288BFF36F8F238B23F008038C
:100F40002383258BEA062ED525F01003238305F095
:100F500007056669218B002EBFF66FAF0023276857
:100F6000C4E9003321F0070141F001012183218B05
:100F700001F0070AAA454FF000097FF43FAF002FA8
:100F80009BD041F00801218388F31188BFF36F8F54
:100F9000002FC7D03D68394633465246204605F0FB
:100FA0004EFA2F46F4E7AB067FF51AAF25F0200383
:100FB000238305F00705FFE66B64000008B50446CF
:100FC0004FF02002EFF3118382F31288BFF36F8F8B
:100FD00002F06EFD204601F031FC034805F08DF96A
:100FE00000F008FFFCE700BFB97B000002F0A8BDDD
:100FF0002DE9F047DFF85880044607464FF0010915
:1010000014B93846BDE8F08794FAA4F5B5FA85F529
:1010100009FA05F32E0108EB05156FEA030A24EA25
:1010200003042B7B002BEBD058F806301B694BB91F
:101030004644042273682846196807EA0A0700F044
:101040005DFADDE7284698470028D9D1F0E700BFD0
:10105000C876000030B51049104889B0002206F06B
:1010600064F90F4D0F4900220023CDE90623002427
:101070000E23CDE90334CDE901440B4B00944FF42A
:101080004072284603F090FD0849284606F03AF8D9
:10109000204609B030BD00BFB1100000800600201E
:1010A000F801002000150020A1130000E27B0000E1
:1010B000014803F0B7BE00BFE40100202DE9F0476E
:1010C00080461F480F4605F0D0FC0646002830D069
:1010D00000252846BDE8F087237B73B12368DB68D1
:1010E0000BB12046984723681B69D3B96368042273
:1010F0001968204600F002FA013610344C45EBD353
:10110000B8F1000FE5D0002DE2D02846FFF770FFC0
:101110000546002FF7D000214FF4A47004F090F999
:10112000F1E7204698470028E0D00AFA06F31D436D
:10113000E2E7044CDFF8109005464FF0010ADDE7C6
:1011400014080020C8760000E8760000014B53F830
:10115000200070472C77000008B5034608462BB1E5
:10116000044A136000F080FC002008BD6FF01500F9
:10117000FBE700BF0400002010B5044C237813B92E
:10118000034803F04FFE0123237010BDC810002058
:10119000E401002010B50446084805F066FC5CB187
:1011A000BFF35B8F064B53E8001F013943E8001281
:1011B000002AF8D1BFF35B8F10BD00BF0C080020E0
:1011C000100800200020064BBFF35B8F014653E858
:1011D000000F43E80012002AF9D1BFF35B8F70477C
:1011E0000C08002070B5FFF7EDFF084C084E0546CF
:1011F000B44200D370BD63685B792BB123685B6830
:1012000013B12946204698471034F1E7C87600000C
:10121000E876000010B5044C0449204605F0B6FA03
:10122000034B1C6010BD00BF440100201877000074
:1012300004080020084A094808B500231370084A2A
:101240001360084A4FF400411360FFF785FFBDE8C3
:101250000840FFF7DFBF00BFC9100020676A000029
:101260000C0800201008002001460022014800233D
:1012700005F0ADBA44010020014805F046BB00BFAF
:1012800044010020024B0146186805F090BB00BFE6
:1012900004080020014805F0C6BB00BF440100203F
:1012A00070B5284B187800284BD0FFF7E5FF0546AE
:1012B00090B1BFF35B8F244B53E8001F013943E823
:1012C0000012002AF8D1BFF35B8F204C204EB442AD
:1012D0002DD32846FFF7D6FF1E4B1F4C1B68002B53
:1012E00019DD06F020F84FF47A72A0FB020302FB2E
:1012F0000131C30BD4E9002043EA41439B1A4FEA72
:10130000D13140F2E93261EB0001934271F1000109
:1013100001D3FFF767FFD4E9003213F57A7342F186
:101320000002C4E90032BDE87040FFF7B3BF636854
:101330005B7923B1236829461B68204698471034FF
:10134000C5E770BDC810002010080020C876000056
:10135000E87600000C0800207806002070B50D4DDE
:10136000297861B90120FFF7A9FE0B4C0B4EB4425E
:1013700006D3FFF795FF0028FBD101232B7070BD2A
:1013800063685B791BB1236820469B6898471034DB
:10139000EDE700BFC9100020C8760000E876000025
:1013A00000212DE9F0470846FFF788FE044658B3B0
:1013B00040F267684FF0000906F028F81B4B1C4A02
:1013C0001B58136033B11B4B1B68092B02DD1A48F5
:1013D00003F028FD194FDFF860A0002544B1204636
:1013E000FFF706FE044618B94FF0FF384FF0FF39FB
:1013F000FFF756FF064628B9B5B942464B46504658
:1014000003F034FD3546E9E74FF0FF384FF0FF3980
:10141000D2E72B689B691BB10022114628469847EA
:101420001035BD42F5D3E8E7054DFAE708000000A6
:101430000808002010080020E4010020E8760000E1
:10144000C876000013B5184805F00FFB174B1B7842
:101450007BB14FF02003EFF3118483F31288BFF3C5
:101460006F8FFFF71DFF84F31188BFF36F8F02B0FA
:1014700010BD0F4B1B68002BF9D050B90022002380
:10148000CDE900230B484FF40042002304F024FA76
:10149000EDE70928EBD1074805F053FF064802B0F5
:1014A000BDE8104003F0BEBC10080020C9100020A9
:1014B0000808002080060020E401002010B5064B3B
:1014C0001B68044698472146A060044805F0FDF9D2
:1014D000BDE81040FFF7B6BF040000204401002023
:1014E000044A054B9B1AB1EBD30F34BF52F83100BD
:1014F0000020704758760000C8760000084BC31AD9
:1015000010B41B1144680133237143689A71436816
:101510001960436801225A7110BCFFF72DBE00BF4D
:10152000C87600002DE9F04F8FB004AFC1F34A2810
:10153000B8600D4691467B600C0DB8F1000F63D08A
:10154000002607F114034FF0040B4FF00A0AC7F806
:101550000C80C7E907667E620193CDF808B0CDF82C
:1015600000A007F11C03F96832464846FFF720FA4D
:10157000B0F5006F03461CD36C468AB0D9F804104E
:1015800004AB2648C3E9050140F2FF71D9611A4650
:101590004FF400711984224B42F8103F2148334622
:1015A0004FF41251FFF7BEFFA5462C37BD46BDE8EC
:1015B000F08FC0F30A0804F11700184420F0070068
:1015C00080083B60FFF750FE68F35325044690B156
:1015D0003B68154AC7E9083600F1100107F114030A
:1015E000F961CDE900A3CDF808B0F96807F11C0353
:1015F0004846FFF7DDF968F353257B68B9682A464A
:10160000204605F068FAD0E704F1170020F0070043
:101610008008FFF729FE0446EDE700BFF77B0000D6
:101620000400000190760000AB6A00002DE9F04F45
:1016300087B0DDE91269DDE9105A04460F4693468A
:101640009846A6B31021CDF80090334652460020AC
:10165000CDF81490FEF7DAFF014605F117000844B3
:10166000144B039104F007040BF0070BE40020F087
:10167000070003EA412344EA8B1480081C43FFF768
:10168000F3FD44EA0554054640B13EB10399CDF857
:101690000090334652461030FEF7B8FF43462246CC
:1016A0003946284607B0BDE8F04F05F014BA314678
:1016B000D3E700BF00FE0F000EB403B503AB014635
:1016C00053F8042B0448019301F022FA02B05DF8AC
:1016D00004EB03B0704700BF3D6B0000CA0605D4A1
:1016E0008B064CBF02490349FFF7E6BF704700BFB6
:1016F000377C0000367C00002DE9F04F89B09A4617
:10170000DDE914739DF84CB00593169B179E069265
:1017100004460D460493BBF1000F00F0858006F0EF
:101720000803079305F0BFF906F0020902460028F6
:1017300049D086492046FFF7BFFF8046B9F1000F28
:1017400008D016F0440F40D181492A462046FFF7C1
:10175000B3FF804406F0010353B17E4B7E4953F83A
:101760002B207E4B2046002A08BF1A46FFF7A4FF15
:1017700006F00803002B54D0794B7A4953F82B20FC
:101780002046FFF799FF0546069B2BB176491A467E
:101790002046FFF791FF0544BAF1000F05D07349C9
:1017A00052462046FFF788FF05444544002F49D1A3
:1017B000049B002B4FD1F30700F1C1803146204636
:1017C000FFF78CFFB5E08046B8E7694B1868002842
:1017D000BFD0684B4FF47A791B68B5FBF3F54FF433
:1017E0006161B5FBF0F300FB135509FB05F54FF004
:1017F0003C0CB3FBF1F201FB1231B5FBF0FEB1FB87
:10180000FCF300FB1E550CFB131109FB05F50091C1
:10181000B5FBF0F55849CDE901E52046FFF74CFF4F
:1018200097E706F00805AFE7BAF1010F06D1002FE0
:1018300065D1049B002B7CD000250CE0002FF8D054
:101840004E485DE04E484F493B46224604F0FDFCC1
:10185000049B002B69D0DFF83081DFF83091049FC2
:101860003146102F204628BF1027FFF737FF4FF0D3
:10187000000A554546DC059B49461A782046FFF785
:101880001BFF4FF0010A1AF0070F03D14146204613
:10189000FFF712FF57453CD9059B494613F80A202C
:1018A0002046FFF709FF0AF1010ABAF1100FEAD149
:1018B000374920464FF0000AFFF7FEFE5246059BCF
:1018C0009A5C344B995C11F0970F08BF2E22324975
:1018D0002046FFF7F1FE0AF1010ABAF1100F1DD000
:1018E0001AF0070F03D141462046FFF7E5FE5745A2
:1018F0005246E4D841462046FFF7DEFEEBE720489B
:101900005D46A0E741462046FFF7D6FE0AF1010AF0
:10191000AFE722492046FFF7CFFEC4E7059B3B44D3
:101920000593049BDB1B049399D1BBF1000F7FF45B
:1019300042AF204609B0BDE8F04F05F0F2B8074AC3
:1019400005492046FFF7B8FE38E700BF3E7C00009F
:10195000427C00003C770000E47A0000397C000003
:1019600050770000677C00006D7C0000717C0000F7
:101970001C080020180800204B7C0000736B00003E
:101980003D6B0000112B00007E7C0000767C000087
:10199000807C000072830000827C00007C7C000060
:1019A0002DE9F0410F884B688E6886B005460C46DD
:1019B0009046C7F382175BB1144A9B1A43F3CF01D9
:1019C000002920DB2078C0F3C200FFF789FD034621
:1019D0002146608851F8102B0197C2F34A22002A51
:1019E00001EB0204C0F30B1008BF00210022CDE977
:1019F0000408CDE90214009231462846FFF77CFE28
:101A000006B0BDE8F0810023E2E700BF5876000091
:101A100073B542F20F738B4228BF0B4605680F4A1D
:101A200004460521684604F07DF963680C495B684B
:101A300006460B22284605F067F863683246694679
:101A400028465B6805F060F8636806495B681B22FE
:101A5000284605F059F802B070BD00BFBB820000F7
:101A6000A17C0000857C0000074A002101239042F0
:101A700006D8064A01B901231360054B1860704768
:101A800040085B000121F2E740420F0018080020E7
:101A90001C080020014B01221A707047CA10002058
:101AA000014B00201960704734080020024B0348A6
:101AB00001221A7005F035B8CB10002080770000A5
:101AC0000148FFF7A5BF00BF8077000010B5064BA7
:101AD00018680C46FFF73AFB21460346BDE8104064
:101AE00002480F22184700BF34080020807700000A
:101AF00010B9074B18707047064B1B781BB141F2A9
:101B0000883005F09BBAA420002103F099BC00BFE7
:101B1000CA100020CB1000202DE9F843DFF87490A4
:101B20001D4F80460E46042499F8005095B902F0E6
:101B30002BFE28463246414602F0D8FD054602F00B
:101B40002DFEE5B101233B7099F8003073B93046A2
:101B5000BDE8F88332464146002002F0C7FD054645
:101B6000EFE72046FFF7C4FF651E2C46002002F079
:101B700001FE0028EBD03B78002BF2D1E7E73B7861
:101B8000002BE4D0013C2046FFF7B2FF3B78002B4E
:101B9000CAD1DCE7CB100020CA100020014B002086
:101BA000196070474C080020024B034801221A704C
:101BB00004F0B7BFDD100020AC7700000148FFF74C
:101BC00027BF00BFAC77000010B5064B18680C4665
:101BD000FFF7BCFA21460346BDE8104002480F2239
:101BE000184700BF4C080020AC770000F8B5074F3D
:101BF0000D4604464618B44201D12846F8BD14F8F3
:101C0000011BBB6801485B689847F4E7C474000097
:101C1000014803F0DFBE00BFBC77000038B50446C2
:101C200018B90F4B0F485B6898476168B1F5683F7A
:101C300010D0B1F5680F0DD00B4DA9420AD011F4A8
:101C40006861206807D00146084805F02FFA002394
:101C50002360656038BD142205F0C7FBF9E700BFBB
:101C6000DC000020F77C00002C5F5CA9500D0020F8
:101C700008B520B34368B3F5683F10D1012203686B
:101C8000BFF35B8F53E8001F002903D143E8002016
:101C90000028F7D1BFF35B8F0DD1002008BD094AA2
:101CA00093420AD000684FF0FF324FF0FF3303F049
:101CB00003F80028F1D00448F0E70448EEE76FF499
:101CC000E040EBE72C5F5CA9E98FFFFFEA8FFFFFA5
:101CD00008B5D8B14368B3F5683F10D10022036856
:101CE000BFF35B8F53E8001F012903D143E80020B5
:101CF0000028F7D1BFF35B8F0BD1002008BD074A46
:101D0000934208D0006803F051F8F6E76FF4E04022
:101D1000F4E70348F2E70348F0E700BF2C5F5CA953
:101D2000E98FFFFFEA8FFFFF10B5044618B91D4B7E
:101D30001D485B6898476368B3F5683F2FD0B3F5DB
:101D4000680F2CD0194A934219D1236803BB184855
:101D50004FF0FF324FF0FF33214602F0B7FE08B9D3
:101D600023681BB90F4B13485B68984720681422FF
:101D7000002105F03AFB4FF46863636008E0B3F5B7
:101D8000683F0DD83A2B03D040F6BA629342DED1B9
:101D9000206805F0D0F9636843F03A03636010BD32
:101DA000054AF3E7DC000020F77C00002C5F5CA90B
:101DB000500D00201D7D00003A00003A08B506498C
:101DC00006484023142205F063F9BDE808400449A1
:101DD000044803F071BE00BF50080020500D0020E1
:101DE000C4770000D8770000014910220A607047CC
:101DF00010ED00E072B6404080F31188BFF36F8FA2
:101E0000BFF34F8F30BF62B6BFF36F8F704700BF15
:101E100072B6494081F31188BFF34F8F20BF80F322
:101E2000118862B6704700BF2DE9F047814600AFC8
:101E30000C4600294CD06E468AB0D1E90012A36846
:101E40006D462748A8464FF0050AC5E90501C5E9D2
:101E5000072348F810AF2348424600234FF421518E
:101E6000FFF760FBB546D4E903126369AD461E482F
:101E7000C5F810A0C5E90501C5E9072319480023E5
:101E800042464FF42151FFF74DFBB54688B0E36958
:101E90006D46164AA8464FF0030AC5E9052348F8DF
:101EA00010AF1048002342464FF4C251FFF73AFBEF
:101EB000B546A369AD460E4AC5F810A0C5E905238D
:101EC0000848002342464FF4C251FFF72BFBB546AA
:101ED0002146484602F068FCBD46BDE8F08700BFD9
:101EE0004A7D0000B0760000797D0000A87D0000EA
:101EF000B77D000040B2002807DB044A41090123F6
:101F000000F01F00834042F82130704700E100E0FC
:101F100040B200280CDB4309064900F01F002033C3
:101F20000122824041F82320BFF34F8FBFF36F8F10
:101F3000704700BF00E100E0054B420900F01F00C0
:101F400053F82220012303FA00F01040704700BF2D
:101F500000E100E040B20028A8BF00F1604001F1BC
:101F60000101B8BF064B4FEA4111ACBF00F561401B
:101F700000F00F00C9B2B4BF195480F800137047C5
:101F800014ED00E030BFFFF7FDBF00BF0B4A08B5FE
:101F90000B4B22F07F029A60BFF34F8FBFF36F8F1E
:101FA000D3F8882022F47002C3F8882002F0BAFC2B
:101FB00003F0C6FA00F00CFC02F006FD0000000081
:101FC00000ED00E0094A0A499368096899670949E0
:101FD00058674B6843F080534B60002383F31188AC
:101FE000BFF36F8F9368986F704700BFC00E0020DB
:101FF000E078000000ED00E015498A684FF03000FD
:102000001044EFF3098C80E8F01F202080F3128841
:10201000BFF36F8F0F4F4FF000664A698A603E60D2
:102020004FF07004141920680B4C2060506F00238F
:10203000536780F3118804B5104600F077FCBDE8C3
:10204000044002F1300090E8F01F8CF309887047DB
:10205000C00E002004ED00E06C0D00201EF0040F07
:102060000CBFEFF30880EFF30980816911F8021CBF
:102070000229FFD001B504F08FFD01BD42F8203CDC
:10208000009B42F81C3C0A49019B42F8183C029B09
:1020900042F8143C21F001014FF0807342F8043CF7
:1020A00042F8081C0023203A02654367704700BFCE
:1020B0006D0D0000094A0346906870B113F1160FC8
:1020C000006E05D0A0F140029A4205D8834203D2A7
:1020D000814228BF0020704700207047C00E0020BA
:1020E00008B514460A4A0B4B9060026F1A600D4601
:1020F00000F01CFC204685F30988002163B681F3BB
:102100001188BFF36F8F00220023FEF72FFE00BF60
:10211000C00E00206C0D002001B5EFF30580A0F18A
:1021200010004FEAC0000449014409C99847BDE8BE
:102130000140024908470000D87400009D210000BA
:10214000114B124A2DE9F041D518DFF84480013DCA
:10215000B5FBF3F55D430F4B08EB0304013CB4FB07
:10216000F3F403FB04540E1B07460B49304605F0FD
:102170002EF9701942460021083E05F036F93E67F7
:1021800004F10800BDE8F08101000000000000003B
:102190000400000004000000E8760000044B996889
:1021A0005869884203D003494FF080520A60704753
:1021B000C00E002004ED00E02DE9F04186B0064697
:1021C00000AF0D46474B7B6102244FF482514648D5
:1021D0003C6107F1100204F0EEFC444B9B6AD90409
:1021E0006DD5434B4048C7E9044307F110024FF453
:1021F000825104F0E0FC17203C4B9B6A1A050BD57A
:102200003C4B7B61022338483B6107F110024FF4DD
:10221000825104F0D0FC1820344CA36A9B0523D5CE
:10222000E846354B7B6102232F483B6107F11002E2
:102230004FF4825104F0BFFCA36BA26A100412D5C4
:1022400088B06A462D492848C2E90513032342F89D
:10225000103F4FF4C25104F0AEFCC5461EB1A36A54
:1022600023F40043A3621920204B9B6A59050BD528
:10227000234B7B6102231C483B6107F110024FF4A2
:10228000825104F098FC1A20184B9A6AD20518D58E
:102290001C4B7B61022314483B6107F110024FF491
:1022A000825104F088FC1B20104A936A43F47F4358
:1022B0009362183700232B70BD46BDE8F0811620CD
:1022C0009AE79B6A9B04EFD50F4B7B61022306487C
:1022D0003B6107F110024FF4825104F06CFC1C20AA
:1022E000E2E700BFE57D0000B076000000ED00E011
:1022F000FB7D00000C7E00001F7E0000387E000089
:102300004D7E0000687E0000807E000010B586B023
:10231000364B3748059304AA02244FF482510494A3
:1023200004F049FC334B9B6A9A015DD5324B30482F
:1023300004AA4FF48251CDE9044304F03CFC1E2072
:102340002C4B9B6ADB010AD52C4B2948059304AA28
:1023500002234FF48251049304F02DFC1F20254BDF
:102360009B6A1C030AD5264B2148059304AA022325
:102370004FF48251049304F01EFC21201D4B9B6AF4
:1023800059030AD51F4B1A48059304AA02234FF498
:102390008251049304F00FFC2220164B9B6A9A038F
:1023A0000AD5194B1248059304AA02234FF482510F
:1023B000049304F000FC23200E4B9B6ADB030AD538
:1023C000124B0B48059304AA02234FF48251049345
:1023D00004F0F1FB2420074A936A6FEA03436FEA93
:1023E0001343936206B010BD1D20A9E7AF7E000025
:1023F000B076000000ED00E0C77E0000DA7E00004D
:10240000F47E0000127F0000377F0000517F000043
:102410002DE9F04786B0814600AF8A469046514B81
:102420007B61022450483C6107F110024FF4825155
:1024300004F0C1FB4D4B9B6ADE0645D54C4B4A4828
:10244000C7E9044307F110024FF48251112404F04C
:10245000B2FB464B9B6A1D070BD5464B7B610223A3
:1024600041483B6107F110024FF48251122404F0FD
:10247000A2FB3E4DAB6A980728D56C463E4B7B616C
:1024800002233B614FF48251374807F1100204F0F8
:1024900092FB6E6BAB6A190660D588B06A46374B03
:1024A0003148C2E90536032342F8103F4FF4C251C8
:1024B00004F081FBA546BAF1000F03D0AB6A23F00C
:1024C0008003AB62132403E01024C2E76FF015060B
:1024D000264B9B6ADA070BD5294B7B6102232248E6
:1024E0003B6107F110024FF48251142404F063FBA6
:1024F0001E4B9B6A9B060BD5224B7B6102231A481D
:102500003B6107F110024FF48251152404F053FB94
:10251000164B9A6AD50602D49A6A90070AD55B6868
:10252000190507D549463046FFF7C4FD10B180F3C1
:10253000098802240D4B9A6A920642BF5A6A22F415
:1025400000525A629A6A42F0FF029A6220460023C1
:10255000183788F80030BD46BDE8F0876FF01506E3
:10256000B0E700BF7C7F0000B076000000ED00E027
:10257000927F00000C7E0000C57F0000DD7F000020
:10258000F37F0000807E00002DE9F0437A4B8BB092
:10259000D3F8048000AF0446C8F30805002686F38C
:1025A0001188BFF36F8F02F07F43B3F17F4F0ED1DD
:1025B00002F00C03082B19D1704BFB610223704809
:1025C000BB6107F118024FF4825104F0F4FA0026BF
:1025D00034460023FB71EB1E092B00F2AD80DFE8CF
:1025E00003F00AA0A39CABABABABABA610074CBFF0
:1025F0000C460126EDE7E946624BFB614FF002080D
:1026000007F118025E48C7F818804FF4825104F0B1
:10261000D2FA0023584DFB71EB6A9A070BD55A4B3F
:10262000C7E90683564807F118024FF4825104F0B7
:10263000C2FA002342E0EB6A002B01DA534BEFE7CA
:10264000EB6A5B00F5D5524B4D48C7E9068307F1AD
:1026500018024FF4825104F0AEFA6B69A26943F498
:1026600080736B61BFF34F8FBFF36F8F6B6932F86D
:10267000022C23F480736B61BFF34F8FBFF36F8F16
:102680004DF602739A4209D0AB6ADBB2002B37D009
:10269000FA1D01212046FFF7BBFE40E088B0236809
:1026A0006A463C493648C2E90513032342F8103F05
:1026B0004FF4C25104F07FFA2368CD46FA79DAB9B3
:1026C00007F1080504F1200C206861682A4603C25E
:1026D000083464451546F7D17A6A002E47D0C2F314
:1026E000080121B96FEA52226FEA42227A6207F1A9
:1026F00008011846FFF798FB2C37BD46BDE8F0836C
:10270000AB6A13F47F4F04D0F91D0120FFF754FD8D
:1027100005E0AB6AB3F5803F8BD3FFF7F7FD0346C7
:10272000CCE7FA1D0021B5E7F91D0020EEE71A4BB2
:10273000FB610223BB6175E7184A194B18F4F87F57
:10274000E8468AB018BF13466A4616490C48C2E9E3
:1027500005134FF400731384103D134BD5614FF4F0
:10276000115142F8103F04F026FAC54661E722F401
:10277000FF7222F00102B9E700ED00E040800000A6
:10278000B07600006B80000082800000A380000013
:10279000B1800000D0800000EC80000027800000A5
:1027A000128000001081000004000001024A5369F9
:1027B00043F010035361704700ED00E0EFF3088031
:1027C000EFF3098101B57246FFF7DEFE01BD00BFE0
:1027D000044800232021C2180133302B82F8001353
:1027E000F9D1704700E100E0002080F31488BFF3C6
:1027F0006F8FFEF7FBFB00200D490860BFF34F8F82
:102800000C4880F3088800F03DF8202080F3118800
:1028100009484FF40461401880F30988EFF31480ED
:102820000221084380F31488BFF36F8FFFF7AEFBDC
:1028300094ED00E00026002040180020BFF34F8FE9
:102840000549064BCA6802F4E0621343CB60BFF34C
:102850004F8F00BFFDE700BF00ED00E00400FA0568
:102860000749D1F890200023C2F30722184693426B
:1028700000DB7047C1F89830C1F8A0000133F6E7DB
:1028800000ED00E008B572B6002383F31388FFF76C
:10289000E7FF144B4FF0FF32C3F88020C3F88420C9
:1028A000C3F88820C3F88C20C3F89020C3F8942084
:1028B000C3F89820C3F89C20C3F88021C3F8842172
:1028C000C3F88821C3F88C21C3F89021C3F8942160
:1028D000C3F89821C3F89C2162B6BFF34F8FBFF3B2
:1028E0006F8F08BD00E100E0084B9B6883420BD16D
:1028F000EFF3058343B1064B5A6842F080525A60A9
:102900005A6A22F400425A6202F0BABDC00E002098
:1029100000ED00E0024B034A0348012100F092B8A9
:102920000000042000000020E8770000026E054B44
:10293000403A1A60044A4021C3E9011218460121B5
:1029400000F08AB8700D002000000B152DE9F04151
:10295000DFF8B4E09C4600AF154600238B421ADA3C
:102960004468002C4DD0BCF1000F1DD0661E3442CF
:1029700015D06C4688B06A462449C2E90513032382
:1029800042F8103F224800234FF4C251FEF7CAFD1F
:102990006FF01505A5462846BD46BDE8F0811F2C01
:1029A000E7D902681642E4D1202C026886685FFAF3
:1029B00085F814D9B4F1004F13D8013CB4FA84F46B
:1029C000C4F11F046400B8F1070F46EA04060AD9EF
:1029D0006C4688B06A460F4BC2E90535CFE708243C
:1029E000F1E73E24EFE722F01F022A4342F01002F3
:1029F00046F00106CEF89850CEF89C200135CEF86E
:102A0000A06001330C30A9E700ED00E02781000051
:102A1000A87600004A810000044B0522C3F89420E8
:102A2000BFF34F8FBFF36F8F704700BF00ED00E023
:102A3000BFF35F8F024B0022C3F89420704700BFA2
:102A400000ED00E010B5034C01232278FFF77EFF74
:102A5000207010BDDE10002008B5094A002312784E
:102A6000FFF774FF10F1160F03D0064B0022072862
:102A700000DD08BDC3F89800C3F8A0200130F6E7D8
:102A8000DE10002000ED00E014490868082810B5A9
:102A900021D8FFF7CDFF124C49680022904201F186
:102AA0000C0105D10F4B1870FFF7B6FF002010BDC9
:102AB000C4F8982051F80C3C23F01F03134343F053
:102AC0001003C4F89C3051F8043C43F00103C4F8EF
:102AD000A0300132E2E74FF0FF30E8E7F477000082
:102AE00000ED00E0DE10002008B5024B1B6898479F
:102AF000002008BD7C0D0020034B044A1860937829
:102B000043F00203937070477C0D002028000020E2
:102B1000F0B587B007460E461446002110226846DD
:102B20001D4604F062FC02238DF802302A46054B54
:102B3000019321466846CDE9047603F01FF907B0FA
:102B4000F0BD00BFBD6B000008B50649064821F086
:102B50000701C1F1005202F5802203F007FC0020BA
:102B600008BD00BF53260020402600200E4A012346
:102B7000C2F840354FF080424FF08051C2F87835AE
:102B8000D1F83001082808D1D1F83411052904D82A
:102B90000648415C09B1C2F838364FF08043012243
:102BA000C3F880250020704700E001407F810000CD
:102BB00020B1034B800143F001031847704700BF69
:102BC00000770000084B70B5C31A0D4607499B10EB
:102BD000044659430648402204F017F82B460146A4
:102BE0002046BDE870401847940D0020B76DDBB655
:102BF0008874000073B50C4C0C4A4023041B0093EE
:102C00000D460B460A49A41061430646094804F0E4
:102C100028F8011E05DA30462B4602B0BDE87040A8
:102C2000184702B070BD00BF940D0020CD6C0000AD
:102C3000B76DDBB688740000002270B50121044630
:102C40001046FFF787F90F4801F004F90E4B984240
:102C500015D104F049F926690C49304603F013FCFC
:102C600000280BDB012535642469084904F11C00A8
:102C700003F009FC002801DBE564002070BD6FF063
:102C80000400FBE7C52C00000000AD0B1478000029
:102C900070B501460C2309484B43C418D4E90E56BD
:102CA000403300221844A26303F09CFF2DB132464A
:102CB0002B460348BDE87040184770BD940D0020B6
:102CC0008874000010B1012804D07047034B1B6CBE
:102CD0005B0701D1FFF7DCBF704700BF940D0020F8
:102CE00008B54FF02003EFF3118183F31288BFF38F
:102CF0006F8F124A136843F002001060DA0708D49D
:102D000081F31188BFF36F8F0120BDE8084004F004
:102D1000F8B84FF08043D3F80C24D3F80C34DB0719
:102D2000EED5074803F05EFF81F31188BFF36F8F84
:102D30000020BDE80840FFF7ABBF00BFE40D002056
:102D4000D40D00201FB500220123CDE90223094A3A
:102D5000CDF800D06B46CDF804D003F0B0FF0028CA
:102D600005DB4FF480420023684602F07FF805B08F
:102D70005DF804FBEB6C000010B54FF02003EFF39F
:102D8000118483F31288BFF36F8F074A136823F00F
:102D90000201DB07116002D4012004F0EEF884F395
:102DA0001188BFF36F8F10BDE40D00202DE9F041B5
:102DB0003849BFF35B8F0746012251E8003F41E8E5
:102DC00000200028F9D1BFF35B8F33B93249334873
:102DD0004B60CB608A6003F069FB7B1E012B2BD814
:102DE000012F07D14FF08043D3F81C3403F00303C5
:102DF000012B21D004F080F90546F8B9284B1B7847
:102E0000E3B14FF080430222C3F808230646DFF8FF
:102E100094804FF08044D4F81824D4F81834D203A6
:102E200016D503F00303012B01D0012F10D15DB3A0
:102E300086F31188BFF36F8FBDE8F0814FF0200358
:102E4000EFF3118683F31288BFF36F8F0125DEE75E
:102E5000ADB13046FEF7DCFFD4F81835002BDAD1DF
:102E6000D4F80421002AD6D0C4F80431D4F80431AF
:102E70000123C4F81835C8F88031A360CBE70021DE
:102E8000212002F0DDFAE7E74FF080430222C3F889
:102E90000423D1E7900D0020800D0020B00D00200C
:102EA000F114002000E100E008B5074804F0CBF879
:102EB00038B10648FFF720FE0448FDF751FF002017
:102EC00008BD6FF01200FBE7C4740000D12E0000B3
:102ED0000A2838B5074D044604D1AB680D215B685C
:102EE00028469847AB6803485B68E1B2984720469C
:102EF00038BD00BFC474000030B54068057B01F0E8
:102F00001F04B2F5001F85B044EA451405D12046E0
:102F100001F07CFA002005B030BD0025B2F5800F2D
:102F2000CDE9025514D1B3F1007F0CBF0423052372
:102F30008DF808300023194602AA204601F082F8D5
:102F4000234B98423DD10121204601F011FAE1E7DF
:102F5000B3F1C06F27D0B3F1007F14BF0123022368
:102F60008DF80830836823FA01F111F00101E1D1F5
:102F7000B2F1A07FDED104F01F03620903F5E07314
:102F800013D0012A20D1134A52F82330DB07D1D4C1
:102F90000DF107052946204601F094F90E4B9842A1
:102FA00006D00395C6E70323DAE74FF0A042EBE72C
:102FB000284601F0D7F9064B9842F2D06FF00B008B
:102FC000A9E76FF01500A6E751F82330FFDE00BF38
:102FD0000000AD0B000300500400AD0B10B501F074
:102FE000B1F9044668B901F085F9084B98420AD155
:102FF0000748214601F060F9224605210620FEF728
:10300000A9FF002010BD6FF00400FBE70000AD0B2E
:1030100015300000420970B5034602D0012A17D0CE
:1030200070BD0D4E326951680029F9D003F01F03BD
:1030300001250C689D400029F2D08A682A4002D000
:103040004B68304698472CB1236821461C46F2E76E
:10305000024EE7E72346F8E7B07400009C740000D6
:103060002DE9FF4147683B7B01F01F0545EA431509
:103070000E4628460DF10701144601F023F914F419
:10308000403F80460DD1284601F0E6F93D4B98457A
:1030900003D19DF8070001F05FF9002004B0BDE8FE
:1030A000F0810023194602AA2846CDE9023300F038
:1030B000C9FF344B984214D1804503D19DF80700D5
:1030C00001F04AF9A3034ED540F206332340B3F58D
:1030D000837F1AD00DD8062B18D005D8B3B1022B98
:1030E00033D06FF01500D9E7B3F5807FF9D1012314
:1030F0000CE040F20222934229D0B3F5407F28D061
:10310000B3F5007FEDD1022300E007238DF80830EE
:1031100084F48033C3F30043E0068DF8093054BFD4
:10312000C4F34013032321038DF80A3013D57A68C2
:103130000123B340C2F80835002202A9284601F055
:1031400041F8104B9842A8D0CBE70423DEE70523D3
:10315000DCE70323DAE7620341BF01237A68B34067
:10316000C2F80C35E8E7E3064FF0000354BFC4F3A0
:10317000401403241A4602A928468DF8084000F09E
:1031800061FFDEE70000AD0B036803F01F025B097F
:10319000026004D0012B034818BF002070474FF095
:1031A000A0407047000300502DE9F04FDFF88491F4
:1031B00085B01546824600EB81014FF0010851456C
:1031C00003D1002005B0BDE8F08FDAF8003003F03D
:1031D0007F04C3F343277F2C4FEA134308BF4FF00C
:1031E000FF34222B00F2A380DFE803F012232B44EC
:1031F0002E3544A1A1A1A14773A1A1A1A1A1A1A183
:10320000A1A176818487A1A1A18A909396999C001F
:10321000C5F80C45601C1BD003A80394FFF7B4FF4E
:10322000039B08FA03F3C0F8083501264FF0010BA1
:103230002CE0C5F81445631C0AD000264FF0000BA3
:1032400024E0C5F80845E5E7621CC5F808456CD1DF
:103250000AF1040AB3E7631CC5F80C45F8D001264F
:1032600003A80394FFF790FF039B08FA03F3C0F849
:103270000C35DBE7C5F81045DDE7C5F80845002F3C
:10328000D9D1671CE4D00026B3460627DAF800300F
:10329000019303F40052002A03A81CBF01264FF03B
:1032A000000B0394FFF770FF039A019B00EB820071
:1032B000C3F3C114D0F800273B0243EA840343EA76
:1032C0000B0302EA0902134343EA4603C0F800373E
:1032D000BEE7C5F80C45D2E7C5F86045661CDAF8CC
:1032E0000030B5D0C3F38033002BB8D094E7C5F8D5
:1032F0006445F3E7C5F86845F0E7C5F86C45EDE7C8
:10330000C5F82445621CA3D0012697E7C5F82845D7
:1033100080E7C5F83045F5E7C5F83445F2E7C5F86C
:103320003845EFE7C5F83C45ECE7002698E76FF035
:10333000850047E7F0F8FCFFF0B54B79012B26D06C
:10334000032B21D110258B79032B1DD1CE790EB102
:10335000012E19D10A7912B1022A15D10E220B6859
:103360004468B3F5164F276867D02DD8B3F5165FBC
:1033700066D016D8B3F5966F64D00AD8B3F5967FA9
:1033800063D0B3F5167F63D06FF0850054E000255D
:10339000D9E7B3F5166F5ED0B3F5965FF4D1384B2D
:1033A0003CE0B3F5E14F59D007D8B3F5615F57D092
:1033B000B3F5964FE8D1334B30E047F61224A342E1
:1033C000E2D14FF4000329E0B3F5613F4AD013D8AE
:1033D000B3F5963F49D009D84DF6C024A34246D054
:1033E000B3F5614FD0D14FF46B0317E0B3F5E13F74
:1033F000CAD14FF0EB7311E0B3F5612F3AD008D882
:10340000214CA34239D0B3F5E12FBDD14FF0E86391
:1034100004E01E4CA342B7D14FF080530469C7F8B3
:103420002435436835431B682A43C3F86C2503C918
:10343000231D83E803000020F0BD4FF41D03EDE7DA
:10344000134BEBE74FF49E23E8E74FF4A033E5E797
:103450004FF41C33E2E74FF41D23DFE70D4BDDE7AC
:103460000D4BDBE74FF06C73D8E70C4BD6E74FF40E
:103470006503D3E74FF07063D0E74FF08063CDE78B
:1034800000B0130000A04E0090D0030040420F0097
:103490000050270000C0750000F03A0000903A018B
:1034A0002DE9F043002287B0804601210220FEF77B
:1034B00051FD0220FEF71EFDD8F80470D8F8106008
:1034C0003C680021C4F80015C6F80080D7F80C90BD
:1034D0006A46484603F061FC051E25DB009BD9F8CF
:1034E000002019791868FFF75FFE051E1CDB311DEF
:1034F0004046FFF721FF0546B0B97B68990723D501
:1035000006F1180001F0BCF8234B984210D0234B71
:1035100005930223049322482B4604AA4FF48251B8
:103520006FF00405FDF7FEFF284607B0BDE8F08305
:10353000307E04F10C0204F5907103F0CBFC337E75
:103540000120984000F01EFC0823C4F800353B7AA7
:1035500053B9C4F81031D4F810317369C4F8343554
:103560000123C4F8383523607B689A075CBF4FF4A9
:103570008073C4F804337B68DB0644BF4FF48003D8
:10358000C4F804333369C4F844350023C4F848351B
:103590000123A360E360C7E70000AD0BCE8100000C
:1035A000C0760000F8B5044607690D4603F0A4FD97
:1035B000B0B92E4B1B789BB16426606803F023FCE6
:1035C00000BB012003F084FC013EF6D10021212044
:1035D00001F036FFF0E786F31188BFF36F8FF5E750
:1035E0004FF02003EFF3118683F31288BFF36F8F40
:1035F0006068314603F007FC90B986F31188BFF389
:103600006F8FEDE74FF02003EFF3118683F31288FD
:10361000BFF36F8F6068314603F0F5FB0028DAD006
:103620003B691D70626838691368C3F8440501205E
:10363000C3F848050020C3F82001D3F82051C3F88F
:1036400058015268D3F85801D20608D5626812684A
:103650000820C2F800054FF48002C3F804230122B9
:103660009A6081F31188BFF36F8FF8BDF1140020C9
:1036700070B5012383400E4ABFF35B8FDC4352E8F1
:10368000001F01EA040542E80056002EF7D1BFF3FF
:103690005B8F4FF4803282400648C0F80823BFF3A6
:1036A0005F8FBFF36F8F0B4214BF0120002070BDEE
:1036B000040E00200010014070B40E49D1E900341E
:1036C000D01AC31844F1000422F07F46C1E9003447
:1036D000A6F50013B3F5400F09D2074B1B681A0A71
:1036E0001B069C19054B42F10005C3E9004570BC5F
:1036F00001F0FCBFC8060020080E0020D006002004
:1037000011B3BFF35B8F0123104A834052E800CF0F
:103710004CEA030C42E800C10029F7D1BFF35B8FEC
:103720000B4A4FF480338340C2F80433094BBFF394
:103730005B8F1B68BFF35B8FC340DB0742BF064B49
:103740004FF40032C3F80021704700BF040E002080
:1037500000100140000E002000E100E00D4B186851
:10376000010A0006BFF35F8F0B4BD3F8043518181E
:1037700041F10001B3F5801F0AD2084BD3E90023C1
:10378000904271EB030303D210F1807041F100010C
:10379000704700BF080E002000100140D006002036
:1037A0002DE9F04F85B016461F469DF840A004460F
:1037B000FFF75EFF0190FFF7D1FFB04271EB070307
:1037C00054D23E4B301A67EB0101984271F100016F
:1037D0004FD23B4B03EB0413D3E902239F4208BFB4
:1037E00096425ED037494FF4803804F1500508FA0C
:1037F00004F8AD00C1F848832046ADB203F04CFB9D
:1038000026F07F4B05F1804504F5A87305F5883552
:10381000DC464FF003090293029A2CF07F4341F8F3
:103820002230C1F84483D1F80435274A6FF00200F2
:10383000C01A604420F07F40904232D9286868B1B5
:10384000D1F804350393A3EB0B0020F07F40B0F5D3
:10385000000F26D9204603F01FFB039BBAF1000F8F
:1038600007D109EB030C09F10109D5E7BAF1000F03
:1038700009D06FF0150520460199FFF741FF284652
:1038800005B0BDE8F08F0123104ABFF35B8FA34062
:1038900052E8000F184342E800010029F8D1BFF3B5
:1038A0005B8F07490E98230101EB0412C8500F9B50
:1038B0005360C2E902670025DDE700BF0100800018
:1038C000B806002000100140FDFF7F00000E002020
:1038D0007FB51C4C1C4BC4F80833C4F848331B4B51
:1038E00000254FF0FF304FF0FF31C4F80855C3E911
:1038F00002014FF48033C4F80433154B02264FF411
:1039000000320121C4F804631120C3F880212A4643
:10391000FEF720FB1120FEF7EDFA0E4A0123A3600B
:10392000236013600C4B0D4A0093CDE90155002331
:103930002846FFF735FF3046FFF738FA284604B02F
:1039400070BD00BF0010014003000F00B80600204A
:1039500000E100E0040E0020B9360000FFFF7F0008
:103960002DE9F7432F4CD4F8043399070BD5D4F83D
:10397000043143B12C4A0023C4F80431D4F8043193
:10398000136801331360D4F80433DA032AD5BFF384
:103990005B8F264B53E8002F22F0010143E8001013
:1039A0000028F7D1BFF35B8FD30702D4D4F840319E
:1039B000C3B10025C4F84051D4F84031FFF7CEFE22
:1039C0004FF02003EFF3118283F31288BFF36F8F60
:1039D000174BD3E90267B042B94106D282F311888E
:1039E000BFF36F8F03B0BDE8F0834FF0FF384FF0A7
:1039F000FF39C3E90289D3E900101D604FF4803319
:103A0000C4F84833C4F84051D4F8403182F31188E7
:103A1000BFF36F8F0029E5D0009032463B46284621
:103A20008847DFE700100140080E0020000E00204C
:103A3000B80600201FB5431C23D0012823DD134AFC
:103A4000134B9042D4BF04461C46FFF787FE114B30
:103A50000F49D3E90023801AB0F5000F28BF0024D6
:103A600004448C4228BF0C46A2180B4900914FF029
:103A70000000CDE9010043F10003FFF791FE04B01F
:103A800010BD034CE1E70124DFE700BFFEFF7F002C
:103A9000FFFF7F00C8060020B936000008B5FFF719
:103AA0005DFE024B1B68C01A08BD00BFC80600209F
:103AB00010B5084C012363601120FEF729FA064B6C
:103AC000C4F80833C4F84833044B4FF40032C3F849
:103AD000802110BD0010014003000F0000E100E054
:103AE0007FB5FDF73BFC074B059302230493064883
:103AF000002304AA4FF48251FDF714FD0020FEF7C5
:103B00009DFE00BF0B820000887600004FF08053BE
:103B1000D3F83021082A06D1D3F83431052B02D846
:103B2000024AD05C70470020704700BF2E82000020
:103B3000024AD2F80034002BFBD0704700E001406D
:103B400010B54FF08053D3F83021082A4ED14FF0F2
:103B500080420021C2F80C11C2F81011C2F83815C9
:103B600002F54042D3F80414C2F82015D3F8081423
:103B7000C2F82415D3F80C14C2F82815D3F8101481
:103B8000C2F82C15D3F81414C2F83015D3F8181451
:103B9000C2F83415D3F81C14C2F84015D3F8201419
:103BA000C2F84415D3F82414C2F84815D3F82814E1
:103BB000C2F84C15D3F82C14C2F85015D3F83014B1
:103BC000C2F85415D3F83414C2F86015D3F8381479
:103BD000C2F86415D3F83C14C2F86815D3F8401441
:103BE000C2F86C15D3F84434C2F87035FFF78EFF75
:103BF00018B13A4B3A4AC3F88C26FFF787FF18B141
:103C0000384BFB22C3F81825FFF780FF70B14FF047
:103C100080414FF08053D1F8E42ED3F8583222F08F
:103C20000F0203F00F031343C1F8E43EFFF76EFFEA
:103C300020B12D4B4FF40072C3F840264FF0805353
:103C4000D3F83031082B1AD14FF08043D3F8002439
:103C5000D20744BF6FF00102C3F800244FF0805335
:103C6000D3F83431052B02D8204AD35C3BB14FF056
:103C70001023D3F808224FF08043C3F858254FF0A3
:103C80001023D3F80022002A03DBD3F80432002BE0
:103C900022DA174901234FF01020C1F8043512240D
:103CA000FFF746FFC0F80042FFF742FFC0F80442AA
:103CB000FFF73EFF0023C1F80435FFF739FFBFF3DC
:103CC0004F8F0C490C4BCA6802F4E0621343CB607F
:103CD000BFF34F8F00BFFDE710BD00BF0050004095
:103CE0004881030000F0004000900240288200005C
:103CF00000E0014000ED00E00400FA0530B5046882
:103D0000CCB1BFF35B8FB4FA84F3C3F11F03DBB212
:103D100001229A4024EA020250E8005FA54204D141
:103D200040E8002CBCF1000FF6D1BFF35B8FE6D169
:103D300002480B7030BD0248FCE700BF0000AD0B2D
:103D40000200AD0B10B50368CB40DB0714D4012390
:103D50008B400268BFF35B8F43EA020150E8004FDB
:103D6000944204D140E8001CBCF1000FF6D1BFF32F
:103D70005B8FEED1014810BD0148FCE70000AD0BA0
:103D80000400AD0B014BC3F80405704700F001407F
:103D9000F7B5044618B1012823D003B0F0BD4FF0A9
:103DA00080430222C3F80823C3F80401D3F8042196
:103DB0000122DA60064601238DF8073042F21075C1
:103DC0004FF08047D4B1012CE7D1D7F80C3403F47D
:103DD0008033AEBB83B3012003F07AF8013DF4D108
:103DE0002AE04FF080430022C3F80803C3F8002103
:103DF000D3F8002158600DF10706DCE7D7F8183436
:103E000003F480333EB9002BC7D0012003F060F8E3
:103E1000013DF3D1C1E7D7F8182402F00302326064
:103E2000002BBAD09DF80700012803D103F050F809
:103E3000013DC7D1012CB0D1054B00225A71ACE72E
:103E4000D7F80C2402F001023270002BEAD1F3E71C
:103E50000C0E0020044B1A7922B9012218609A80B6
:103E600002487047024870470C0E00200000AD0B5E
:103E70000C00AD0B10B54FF08043D3F800216AB1B0
:103E80000022C3F80021D3F800210122C3F808233F
:103E9000114B587910B95A711B6898474FF08043FD
:103EA000D3F8042172B10022C3F80421D3F804210D
:103EB000D3F81824D3F81824920704D10122C3F8A8
:103EC00018259A6010BD0222C3F80823024BBDE8F2
:103ED00010401B68012018470C0E0020036803F0F7
:103EE0001F025B09026004D0012B034818BF0020A9
:103EF00070474FF0A040704700030050034A430949
:103F000000F01F00D35C1844C0B270473F8200002D
:103F100008B5FFF7F3FF034B083033F81000C0F388
:103F2000401008BD5400002008B5FFF7E7FF034B21
:103F3000083033F81000C0F3400008BD54000020E2
:103F400008B5FFF7DBFF034B083033F81000400BD8
:103F500008BD00BF5400002070B50546FFF7CEFF36
:103F60000C4C08300E4634F81030DA0508D5C3F38F
:103F7000432304EBC302284654F833305268984771
:103F8000A3682BB1E26831462846BDE87040184767
:103F900070BD00BF5400002010B5FFF7AFFF124AFC
:103FA000083032F81030D9051CD5C3F3432123F46F
:103FB000F85322F8103002F10E04002034F8023FCA
:103FC00013F4807F03D0C3F3432399420AD0013016
:103FD0003028F3D1002342F831300448BDE81040C6
:103FE000FFF7B0BE10BD00BF54000020C800002085
:103FF000F0B50146104A114C00200125064602F199
:104000004043A3F5C2439B0805FA03F3194204D0C9
:10401000176817B11660176818430432A242EED130
:10402000074BD3F87C2132B10022C3F87C21D3F8AE
:104030007C3140F00040F0BD006100402061004054
:10404000006000402DE9F04385B0054690461E46CD
:10405000FFF754FF044609B32846FFF765FF18B180
:104060002846FFF755FF38BB0023CDE900338DF814
:104070000E308DF80F300DF10F020B4628460DF172
:104080000E0102F07CFF4A4A04F1080132F81130B7
:1040900023F0020343F0010322F81130B8F1000FBE
:1040A00031D0284698F80070D8F80490FFF73CFF0C
:1040B00020B1B9F1000F1BD03E4826E03C4B04F183
:1040C000080C33F81C1021F02001C904C90C23F896
:1040D0001C10B9F1000F0BD0032FEDD8D8F8042035
:1040E00092F800E0A7B9344B0EF5A27E43F82E708B
:1040F0002F4A04F1080132F8113023F01C0343EA7F
:10410000870322F811304EBB2C4805B0BDE8F08380
:104110004FEA8E0202F1804202F5C04241EA4E317E
:10412000D2F8100520F00300C2F81005D2F81005EF
:1041300020F44F3020F44070C2F81005D2F81085FA
:10414000280200F47C5040EA080040EA074041F0B1
:10415000200123F81C10C2F81005C9E7D6E9007643
:104160002846FFF719FF002FCED0114DD5E90023C7
:10417000974201D19E4218D011480DF10F01FFF76F
:10418000BDFD0E4B9842C0D19DF80F2045F832700E
:1041900005EBC20308345E6035F8143043EA42236D
:1041A00043F4807325F81430AEE70022EEE700BF39
:1041B000540000200400AD0B006000400000AD0B77
:1041C000C80000202DE9FF4104461646FFF796FE81
:1041D000054631B32046FFF7A7FE20B92046FFF77A
:1041E00097FE002860D1314F05F1080837F81830E4
:1041F00013F01C0F02D04B78012B55D001238DF802
:104200000F300023CDE900134A1C8B1C20460DF112
:104210000F0102F0B4FE37F8183043F0030327F81B
:1042200018301EB9224804B0BDE8F0812046FFF7DF
:104230007BFEC8B31D4F96F800C005F1080061462B
:1042400037F81050890025F0200501F18041ED0478
:1042500001F5C041ED0C27F810500023C1F81035CE
:104260007278002ADED0D1F81035B67823F499138D
:1042700023F4F853C1F8103512042302D1F810E5E5
:1042800002F4403203F47C531343320543EA0E0335
:1042900002F4801245EA4C35134345F0200527F817
:1042A0001050C1F81035BDE70248BCE754000020AB
:1042B0000000AD0B0400AD0B014BC3E902017047D8
:1042C0005400002010B50446FFF722FE50B12046EE
:1042D000FFF714FE044B083033F8103003485B0B33
:1042E0000B7010BD0248FCE7540000200000AD0B2D
:1042F0000400AD0B70B50F4C94F87860BEB90E4D4C
:104300006022314604F1100003F06FF8C5F87C61BB
:104310000620D5F87C31FDF7EDFD4FF00043C5F8E0
:1043200004330648012384F87830636770BD04487D
:10433000FCE700BF54000020006000400000AD0B0F
:104340000500AD0B034B93F87800003818BF01202F
:10435000704700BF5400002001460148FFF7F2BC3F
:10436000C400002001460148FFF7C8BCC40000207B
:1043700037B50446FFF7CCFD08B32046FFF7D4FD60
:104380000546E0B92046FFF7DBFD03B29B0003F1D1
:10439000804202F5C24203F1804303F5C043156039
:1043A0001268D3F8102542F00102C3F8102521B19C
:1043B000144A01238340C2F8043303B030BD2046C1
:1043C000FFF79CFD104B083033F81030C3F3820325
:1043D000042B12D0052B12D001A80194FFF77EFD0B
:1043E000019BD0F81015D94001F00101023120469F
:1043F00003B0BDE8304002F00BBE0321F7E7022115
:10440000F5E700BF006000405400002010B50446EE
:10441000FFF77EFDC0B12046FFF786FDA0B920461C
:10442000FFF78EFD0B4A01238340C2F8083303B225
:104430009B0003F1804303F5C043D3F8102522F01D
:104440000302C3F8102510BD20460021BDE810402E
:1044500002F0DEBD0060004073B50446FFF74EFD7C
:10446000184E00F1080536F81530DB0727D5204631
:10447000FFF7CCFF2046FFF74BFD40B12046FFF78A
:104480005FFD114B00F5A270002243F8202020466A
:10449000FFF782FD002301A826F815300194FFF7ED
:1044A0001DFD019B00EB8300084BD0F80027134053
:1044B00043F00203C0F80037054802B070BD05485C
:1044C000FBE700BF5400002000600040F0F8FCFF54
:1044D0000000AD0B0400AD0B2DE9F04F644BD3F899
:1044E0000403C0B285B040F00040FFF781FD051E17
:1044F00080F2A1804FF0A043D3F820250292C3F8A8
:104500002025D3F820280392C3F820280DF10808AD
:104510004FF00009574B09EB030B4FE093FAA3FA56
:104520009BF80040BAFA8AFA4AEA44142046FFF798
:10453000E5FC514B019408304FEADA0233F8107071
:104540000AF007030120984018F8023023EA00031C
:1045500008F8023001A8FFF7C1FC019B03F5E073E6
:10456000B90850F82330C7F38206C3F3014A4B075A
:1045700037462FD520463146FFF7EEFC01A80194BF
:10458000FFF7ACFC019B03F5E0735FFA8AFA50F881
:104590002330C3F301439A4507D10021204602F09E
:1045A00037FD5146204602F033FD01A80194FFF784
:1045B00095FC019A01239340C0F82035D8F80030CB
:1045C000002BABD108F10408B9F1000F1DD14FF059
:1045D00001099FE7BAF1020F0CD10321204602F036
:1045E00017FD06F00503012BDFD139462046FFF702
:1045F000B3FCDAE70221204602F00AFD032EF4D0D4
:10460000BAF1030FD1D1022EEEE74FF00040FFF7D1
:10461000EFFC4FF0A0421949D2F820350293C2F8BE
:104620002035D1F8202503921343C1F820257FF4CB
:104630006DAF25F00045012415B905B0BDE8F08F38
:1046400095FAA5F3B3FA83F304FA03F29B0003F19E
:10465000804303F5C04325EA0205D3F81005D3F8DB
:104660001015C0F30520C1F30141FFF775FCE3E726
:10467000006000404F820000540000200003005002
:1046800001460148FFF73ABBD000002008B5124BA5
:10469000A8220021184602F0A8FE032202610F4959
:1046A00042610F4A8161C2614FF48062026200225E
:1046B00082624262C26201660A49416610218166D5
:1046C000094902670346C266426711F8010D985412
:1046D0000132102AF9D108BD140E002066820000B4
:1046E000F1100020E11000207F8200002DE9F84F3A
:1046F000DFF87C80182606FB008E00FB0666464429
:10470000DEF82440DEF828C07368A44507468946D1
:10471000154603EB040022D8DEF820B0ABEB040A08
:104720000AF1FF339A4203D802F051FE2C440FE005
:1047300063449A4219D852462C4402F048FEB4EB26
:104740000B0405D07068224609EB0A0102F03FFE17
:10475000182303FB078301205C62BDE8F88F0CF18E
:10476000FF3CACEB040C9445DED20020F5E700BF23
:10477000140E0020034B182202FB00339A6A586A79
:10478000801A7047140E002003484FF0FF324FF09C
:10479000FF3300F091BA00BFBC010020014800F0D7
:1047A00005BB00BFBC0100202DE9F04786B00446E0
:1047B00000AF0D464FF02003EFF3118883F312880A
:1047C000BFF36F8F02F022FE2D4B042C1E5896BFB4
:1047D0002C4B2D4B53F82430E9468AB06A462B49BE
:1047E000D36140F2013393844FF0000A284BC2F8A2
:1047F00020A0C2E9051442F8103F264853464FF462
:104800003151FCF78FFECD467DB1EB69C3F3080350
:104810005BB1214B7B6102233B611E48534607F18C
:1048200010024FF48251FCF77DFE2EB1304602F0AB
:104830006CFC08B1037803B91848E9468AB06A46A7
:10484000174BD061C2E9053640F201331384154B92
:1048500042F8103F00230F484FF41151FCF762FE5D
:104860002946CD462046FFF73BF988F31188BFF370
:104870006F8F3046FEF738F81837BD46BDE8F08731
:1048800008000000E47800008082000096820000AA
:1048900005000001B0760000BE8200008E8200009C
:1048A000DF82000004000001104B70B553F8204077
:1048B000013053F82060A64200D870BDD4E900351D
:1048C00095B153B12846984738B10028B8BF404247
:1048D000EB68FF28A8BFFF201870EA68537843F000
:1048E000010353700834E6E79847FBE7F8780000C7
:1048F00008B50A4B012203201A70FFF7D5FF01F01B
:104900001BF80420FFF7D0FF00F07AF9FBF7B2FDA7
:10491000034A137B23F00103137308BDF114002035
:104920005807002008B50348034A0021121A02F074
:1049300095FB08BDF8010020F414002070B5002399
:1049400086B00122CDE90423194E1A4D01930F229E
:10495000CDE902321849142303FB005506EBC016BB
:1049600004464FF4C070154B00954FF4A07200FB45
:104970000411304600F0D8F8737B114AEE6023F042
:10498000040373734FF4046304FB033313446B6039
:104990000C4B2C74BFF35B8F53E8001F013143E8CD
:1049A0000012002AF8D1BFF35B8F06B070BD00BFC4
:1049B000D8060020C00E0020802000200F710000CB
:1049C00040180020BC0E002080B50020A6B0FFF7E4
:1049D0006BFF2E4B83F308882D4D2E4E6B692E4FA7
:1049E00043F400736B610024E02385F82230EC77F8
:1049F0002C766C76AC7685F820406B6A43F4E02325
:104A00006B6285F82340FDF7D1FEFDF7EDF94FF01D
:104A1000FF33AB62EB62FEF737F8FDF77BFFFCF785
:104A200009FC40F20113ADF8243006ABB360CDE9C8
:104A30001E44219402F006FB0120FFF735FF0220FF
:104A4000164DFFF731FF00F071FC154B75610593B2
:104A5000012314490094CDE903434FF480623B469F
:104A6000CDE90144284600F05FF86A7B064622F053
:104A7000040228466A7302F0ABFB2046FFF75EFF94
:104A80003A4631462846FDF72BFB00BF8020002028
:104A900000ED00E0C00E0020F148000058070020A3
:104AA000418300000022002038B5064C064D00204E
:104AB000AC4200D338BD204602F0D4FA0028F9DB1E
:104AC0001C34F5E7800100208001002073B50C46FE
:104AD0004FF02005EFF3118185F31288BFF36F8F3C
:104AE00045695DB125602B6843618369013383614A
:104AF000002081F31188BFF36F8F11E052EA0306A3
:104B000003D125606FF00B00F3E7CDE900230246E7
:104B1000083000F015FB18B9024B9B685B692360F5
:104B200002B070BDC00E00202DE9F04385B0073201
:104B3000994600F1580322F00706C0E91633109B8E
:104B4000037306F140050423002743730D440F9BB4
:104B500083738846C0E9067729468760C773044691
:104B6000FDF7EEFA08F140030730C4E9183620F0EB
:104B700007000E9BA06602930D9B01932D1A0C9BC0
:104B800000932A464B4641462046FDF777FA054BEF
:104B900067659B6803B1DB6EE366284605B0BDE838
:104BA000F08300BFC00E0020F0B587B0002505954A
:104BB000109D04950F9D03950E9D0295DDE91276DB
:104BC0000D9D01950C9D00950446FFF7ADFFB6F1D4
:104BD000FF3F08BFB7F1FF3F05D056EA070305D1F5
:104BE000204600F023FB204607B0F0BD03493A46BB
:104BF000334604F1180000F003FDF4E75972000099
:104C00002DE9F043294C2A4D87B02646AE4204F1E7
:104C10002C040FD300F05AFB244CDFF898904FF48B
:104C2000004640F2E737AC4220D307B0BDE8F0437E
:104C300000F060BB54F8043C059354F80C3C04931A
:104C400054F8103C039354F8143C029354F8183C65
:104C5000019354F81C3C009354E9092354E90B01D7
:104C6000FFF762FF54F82C3C5E65CEE7636A5A1C7E
:104C70000DD023EAE37300213846C3FB060151EA55
:104C8000C333D4F8008004D1404600F0CFFA2C346E
:104C9000C9E74FF47A720023FBF732FA02460B465B
:104CA00008F11800494600F0ABFCF0E75876000028
:104CB00058760000597200002DE9F341044617466A
:104CC0001E464FF02003EFF3118883F31288BFF3E1
:104CD0006F8FC368334A7BB180689168884219D06E
:104CE00057EA060318D188F31188BFF36F8F6FF06E
:104CF0000F0002B0BDE8F081916891F90E102161BA
:104D00000133E3609368A36088F31188BFF36F8F6A
:104D10000020EEE72169F2E791F90E1090F90E30CC
:104D20009942A8BF19466FF07E029142B8BF114662
:104D30008B422EDD02F0F7F90546CDE900761A48E0
:104D40002246414600F0FCF90028E1D04FF0200354
:104D5000EFF3118683F31288BFF36F8FA068D0B191
:104D6000236821699C420AD04BB193F90E309942D5
:104D7000A8BF19466FF07E039942B8BF194602F0EA
:104D8000D2F940B10848314600F03EFA6FF00A000F
:104D9000AFE70025D1E7002DF4D186F31188BFF3EA
:104DA0006F8FF3E7C00E0020F214002038B583683F
:104DB00004466BB3194A926893422CD1C368012B05
:104DC00003D9013BC360002038BD4FF02003EFF34F
:104DD000118583F31288BFF36F8F0169806802F039
:104DE000A2F9204602F053FAA06058B190F90E20C3
:104DF00022610022826702F0EBF90948294600F09F
:104E000003FAE0E7E06085F31188BFF36F8FDAE71C
:104E10006FF01500D8E74FF0FF30D5E7C00E002047
:104E2000F214002038B504464FF02003EFF311854B
:104E300083F31288BFF36F8F02F029FA48B1002282
:104E4000826702F0C5F929460748BDE8384000F0FE
:104E5000DBB9D4E902329A4218BF0133A36085F36B
:104E60001188BFF36F8F38BDF214002013B54FF0D7
:104E70002004EFF3118184F31288BFF36F8F8468ED
:104E800044B1013C846081F31188BFF36F8F00202F
:104E900002B010BD52EA030406D181F31188BFF3BA
:104EA0006F8F6FF00F00F3E7CDE900230246024851
:104EB00000F046F9ECE700BFF2140020C3897F2B15
:104EC00012D80A4B1B6863B1094B90F90E201B687E
:104ED0009A4209DB437BDB0606D1064BC31A18BF97
:104EE000012303F0010070470023FAE7E80E0020D9
:104EF000E40E0020D8060020044BC01A044BC0105A
:104F00005843044B01221A54704700BFD8070020B1
:104F1000ABAAAAAAF214002070B50E4B0E4C1E7C50
:104F200006EB460304EBC3040546204602F0E1F914
:104F30000A4B002228469A55FFF7C0FF48B1084B9C
:104F400008491A68013A2046D317BDE8704000F0BE
:104F500057BB70BDC00E0020D8070020F2140020FF
:104F6000E80E0020F94E000038B50D4D2B4653F8E1
:104F7000184F9C4200D004B9EC68AB6838B95A7B32
:104F8000D20604D1A26912B9DA897F2A05D89C42D7
:104F900002D02046FFF7C0FF23466B6138BD00BF3B
:104FA000C00E002070B590F90D20437B002A014609
:104FB00004DA03F07F03437302F0D0F84B7B154A09
:104FC00063F07F0310464B7350F8183FD469834257
:104FD00008BF002323B9C1E900042160D1610CE0BE
:104FE00091F90E5093F90E60B5420ED0AE420CDD31
:104FF0005868C1E90030016059609068431A58420E
:10500000BDE870405841FFF7AFBF9C42E3D01B683A
:10501000E0E700BFC00E002070B490F90D30427B75
:10502000002B29DBD30627D183692BBB134962F000
:105030007F0242730A4652F8184F944218BF234623
:10504000CC6923B9C0E900242060C8610CE090F964
:105050000E5093F90E60B5420AD0AE4208DD5A6890
:10506000C0E900321060586070BC0020FFF77CBFC0
:10507000A342E7D01B68E4E770BC7047C00E002075
:1050800008B590F90D20437B002A014604DA03F0AD
:105090007F03437302F062F8044B9868431A584246
:1050A0005841BDE80840FFF75FBF00BFC00E0020B9
:1050B00070B515461C46064602F062F8B4F1FF3F93
:1050C00008BFB5F1FF3F08D02A46234606F1180075
:1050D0000249BDE8704000F093BA70BD59720000FB
:1050E00038B54FF02003EFF3118583F31288BFF337
:1050F0006F8F104B104A9C681068A04206D1FFF7D2
:105100000BFF85F31188BFF36F8F38BD00211B7C27
:1051100011600A4AD35C002BF3D02046FFF7CEFE85
:105120000028EED0637BDB0602D12046FFF73AFF72
:105130002046E4E7C00E0020E00E0020F21400201C
:1051400070B50C480C4D86682E600C461146DDE9A2
:1051500004234FF02006EFF3118586F31288BFF386
:105160006F8F8068FFF7A4FF2046BDE87040FCF712
:1051700029BF00BFC00E0020E00E0020F8B5044695
:105180004FF02003EFF3118683F31288BFF36F8F84
:10519000437BDA0649B219D18569BDB903F07F03B3
:1051A000437301F0DBFF437B164A817363F07F0397
:1051B0004373134653F8180F984218BF0546D06939
:1051C0005DB9C4E900300460D46111E0A17300202E
:1051D00086F31188BFF36F8FF8BD95F90E70B94251
:1051E0000BD08F4209DD6B68C4E900531C606C6012
:1051F0000120FFF7B9FE0120EAE7A842E1D02D68BF
:10520000DEE700BFC00E002049B9EFF3058030B9DA
:10521000054B5A699B689A4201D0FCF7D3BE81F3D3
:105220001188BFF36F8F7047C00E002010B54FF08C
:105230002002EFF3118482F31288BFF36F8F427B59
:10524000510704D484F31188BFF36F8F10BD22F08F
:1052500004024273FFF7E0FE21460248BDE8104019
:10526000FFF7D2BFF314002070B50446183002F0E7
:1052700040F84FF02003EFF3118683F31288BFF359
:105280006F8F94F90D20637B002A05DA03F07F030A
:105290006373204601F062FF0B4D637BA86843F007
:1052A00010036373031B58425841FFF75DFE86F3FA
:1052B0001188BFF36F8FAB68A34203D1BDE8704084
:1052C00002F00DB870BD00BFC00E00204FF02003EB
:1052D000EFF3118183F31288BFF36F8F044B9A6849
:1052E000D37B013BD37381F31188BFF36F8F70477A
:1052F000C00E002010B54FF02003EFF3118483F3AC
:105300001288BFF36F8F084B9A68D37B0133D37336
:105310000020FFF729FE84F31188BFF36F8FBDE8EB
:10532000104001F0DCBF00BFC00E0020024B03F1B3
:105330001802C3E906227047C00E0020F8B54FF0EE
:105340002003EFF3118583F31288BFF36F8F1949A0
:105350008868437B03F07F03437301F0FFFE8B6893
:105360005A7B084662F07F025A7350F8182FCC69B6
:10537000824208BF002222B9C3E900042360CB6146
:105380000CE093F90E6092F90E70BE420ED0B74257
:105390000CDD5168C3E900210B6053600120FFF769
:1053A000E3FD2846BDE8F840FCF70CBEA242E3D07E
:1053B0001268E0E7C00E002050EA01032DE9F04139
:1053C00005460E4603D1FFF7B9FF00202CE0831CF1
:1053D00071F1FF332ADB01F0A2FF2C184FF02003FC
:1053E000EFF3118883F31288BFF36F8F114F124BC5
:1053F000B8681860FFF744FEB86810492A4633467B
:10540000183000F0FDF8BA68537B43F01003537373
:105410004046FCF7D7FD01F082FF201A63EB03033F
:10542000012873F10003D0DBBDE8F0816FF00104C7
:10543000241AD3E7C00E0020E00E002059720000AD
:10544000B1F1FF3F08BFB0F1FF3F08B506D1084BEF
:105450009868FFF709FF4FF0FF3008BDFFF7ACFF7A
:105460004FF47A7380FB0303C00B40EA4340F4E738
:10547000C00E0020014B9868704700BFC00E00208E
:105480002DE9F04104464FF02003EFF3118683F33A
:105490001288BFF36F8F037BD9070BD586F3118872
:1054A000BFF36F8F404080F311884FF0040002DF9C
:1054B000BDE8F081437B1A0704D586F31188BFF35A
:1054C0006F8FF5E723F0200242F00801D20920D1C6
:1054D0004173A36813B1204601F048FE04F118009F
:1054E00001F007FF04F158074FF00008A56DBD4219
:1054F00000D0B5B90120FFF737FD104B9B68A342E0
:10550000DBD1EFF30583002BD7D13046FCF75AFDF2
:10551000D3E703F05F0343F00803437301F01EFE7B
:10552000D7E7284601F022FE05F1180001F0E1FE60
:10553000C5F878802846FFF76FFDD7E7C00E00203A
:1055400008B50648064A0749121A01F089FDBDE868
:105550000840054A0549064801F082BD00000020C8
:10556000F401002084840000000000008484000016
:1055700000000020034B1B680BB9FEF78FBA002018
:10558000704700BFEC0E002010B50E4B1C689C420B
:1055900004D1FFF7EFFF6FF0004010BDFFF7EAFF07
:1055A000002CF8D0D4E904321B1A62EBE072B3F19C
:1055B000004F72F10001EEDA002AACBF184600205D
:1055C000EBE700BFD400002030B570B10B4B5B6837
:1055D00098420AD0036843B1D3E90421D0E90445D5
:1055E000121941EB0501C3E90421D0E9003213602F
:1055F0005A600023C0E9003330BD00BFD400002052
:10560000B3F1FF3F08BFB2F1FF3FF8B504461D46B6
:1056100016465CD081604FF02003EFF3118783F3CF
:105620001288BFF36F8F013275F1FF3324DA2D49F1
:10563000D1E900206FF001039B1A4FF0FF3262EBBB
:1056400000009E1B60EB0500012E70F1000301DAE3
:1056500001260020C4E90460234ED6F800C0756816
:10566000B44508BF4FF0000CBCF1000F0DD1C4E9E8
:1056700000652C6074601CE0FFF77CFF013645F18B
:105680000005361845EBE070E4E7DCE90420D4E9D6
:105690000431934271EB000E1ADAD21ADCF80430AE
:1056A00060EB0100CCE90420C4E900C31C60CCF825
:1056B00004403368B34206D09C4204D1FFF764FF34
:1056C0000021FEF7B7F987F31188BFF36F8FF8BD9C
:1056D0009B1A61EB0001AC45C4E90431C7D0DCF88A
:1056E00000C0C1E7F0070020D40000202DE9F84FEA
:1056F0004FF02003EFF3118C83F31288BFF36F8F09
:10570000DFF8B0A0DFF8B0902C4FC9F80000DAF84D
:1057100000000024504508BF00200025D7E90021E3
:10572000D9F80030E04680B3D0E9046C4FEAE37E5C
:10573000B3427EEB0C0B05DAF61A6CEB0E04C0E9F3
:10574000046422E0B21841EBE671C0E90445C7E900
:105750000021FFF739FF88F31188BFF36F8F83684B
:1057600098474FF02003EFF3118883F31288BFF3BB
:105770006F8FD9F80030DAF800009B1B5045C44603
:10578000C9F80030CAD1D7E900219A1841EBE37378
:105790000024C7E90023C9F80040FFF7F5FE2146C1
:1057A000FEF748F988F31188BFF36F8FBDE8F84F13
:1057B000FFF796BCD4000020EC0E0020F00700207C
:1057C00010B54FF02003EFF3118483F31288BFF379
:1057D0006F8FFFF7CFFE064A0346D2E90001181883
:1057E00041EBE37184F31188BFF36F8F10BD00BFED
:1057F000F0070020F8B504464FF02003EFF31187BF
:1058000083F31288BFF36F8F026822B187F3118888
:10581000BFF36F8FF8BDD0E90A36581C46F100017E
:10582000022871F1000127D3012B76F10001BCBFE2
:10583000012316465D1E46F1FF3601F074FD01306E
:1058400041F10001401946EB0101012871F100010D
:105850003ADB01F068FD013041F100016FF0010217
:10586000401946EB0103121A4FF0FF3161EB0303BD
:1058700018492046FFF7C4FE236B01332363236AD4
:1058800073B187F31188BFF36F8F236A204698475F
:105890004FF02003EFF3118783F31288BFF36F8F6C
:1058A00054F8185FA542B1D0002DAFD0284601F0C2
:1058B0009FFC0023AB6787F31188BFF36F8F2846E7
:1058C000BDE8F84001F084BC6FF001024FF0FF33F7
:1058D000CEE700BFF55700002DE9F047B3F1FF3FD9
:1058E00008BFB2F1FF3FDDE9086705461C46914657
:1058F00098461CD0531C74F1FF3309DB012A74F164
:105900000003BCBF0122002412F1FF3944F1FF382B
:10591000284601F0EEFCC5E90A6700232B634A46DE
:10592000434628460349BDE8F047FFF769BEBDE896
:10593000F08700BFF5570000014800F0DEBC00BF53
:105940004983000010B50A4C23681BB10123236072
:10595000002010BD00F0EAF80028F7D00138062832
:1059600003D8044B53F8200010BD034810BD00BFFE
:10597000F00E002010790000FE8FFFFFBFF34F8F65
:105980000549064BCA6802F4E0621343CB60BFF3DB
:105990004F8F00BFFDE700BF00ED00E00400FA05F7
:1059A00010B4094B09490A4C4FF0FE32C3F80024E9
:1059B0004968C3F80424C3F80824C3F80C2400235E
:1059C000C4F8003510BC084700B00250DC000020CD
:1059D00000A00250D0E90012014BC3E90012704749
:1059E000DC00002010B5044650B1636813F0685F16
:1059F00005D0064A934202D000232360626010BDA6
:105A0000034B04485B689847EFE700BF2C5F5CA935
:105A1000DC0000202C790000C8B143680D4A934295
:105A200013D013F0685F0ED0012350E8002F194601
:105A300040E8001C9CF0000FF7D1012AF5D0BFF31D
:105A40005F8F0020704704487047044870476FF428
:105A5000E04070472C5F5CA9E98FFFFFEA8FFFFFF2
:105A600080B14368094A93420AD013F0685F05D0B9
:105A7000BFF35F8F002303601846704704487047E8
:105A8000044870476FF4E040704700BF2C5F5CA98A
:105A9000E98FFFFFEA8FFFFF10B5044620B1044BEA
:105AA00063600022226010BD0248FFF779FFF6E72D
:105AB0003A00003A5479000070B5D0E90023174C41
:105AC000174D6360D0E90230C4E9023022604868B3
:105AD000D1F800C0134BC3E900C0D5F81801D1F8C4
